{
  "_format": "hh-sol-artifact-1",
  "contractName": "CommunityLocker",
  "sourceName": "contracts/schain/CommunityLocker.sol",
  "abi": [
    {
      "anonymous": false,
      "inputs": [
        {
          "indexed": false,
          "internalType": "bytes32",
          "name": "schainHash",
          "type": "bytes32"
        },
        {
          "indexed": false,
          "internalType": "address",
          "name": "user",
          "type": "address"
        }
      ],
      "name": "ActivateUser",
      "type": "event"
    },
    {
      "anonymous": false,
      "inputs": [
        {
          "indexed": false,
          "internalType": "bytes32",
          "name": "schainHash",
          "type": "bytes32"
        },
        {
          "indexed": false,
          "internalType": "address",
          "name": "user",
          "type": "address"
        }
      ],
      "name": "LockUser",
      "type": "event"
    },
    {
      "anonymous": false,
      "inputs": [
        {
          "indexed": true,
          "internalType": "bytes32",
          "name": "role",
          "type": "bytes32"
        },
        {
          "indexed": true,
          "internalType": "bytes32",
          "name": "previousAdminRole",
          "type": "bytes32"
        },
        {
          "indexed": true,
          "internalType": "bytes32",
          "name": "newAdminRole",
          "type": "bytes32"
        }
      ],
      "name": "RoleAdminChanged",
      "type": "event"
    },
    {
      "anonymous": false,
      "inputs": [
        {
          "indexed": true,
          "internalType": "bytes32",
          "name": "role",
          "type": "bytes32"
        },
        {
          "indexed": true,
          "internalType": "address",
          "name": "account",
          "type": "address"
        },
        {
          "indexed": true,
          "internalType": "address",
          "name": "sender",
          "type": "address"
        }
      ],
      "name": "RoleGranted",
      "type": "event"
    },
    {
      "anonymous": false,
      "inputs": [
        {
          "indexed": true,
          "internalType": "bytes32",
          "name": "role",
          "type": "bytes32"
        },
        {
          "indexed": true,
          "internalType": "address",
          "name": "account",
          "type": "address"
        },
        {
          "indexed": true,
          "internalType": "address",
          "name": "sender",
          "type": "address"
        }
      ],
      "name": "RoleRevoked",
      "type": "event"
    },
    {
      "anonymous": false,
      "inputs": [
        {
          "indexed": false,
          "internalType": "uint256",
          "name": "oldValue",
          "type": "uint256"
        },
        {
          "indexed": false,
          "internalType": "uint256",
          "name": "newValue",
          "type": "uint256"
        }
      ],
      "name": "TimeLimitPerMessageWasChanged",
      "type": "event"
    },
    {
      "inputs": [],
      "name": "CONSTANT_SETTER_ROLE",
      "outputs": [
        {
          "internalType": "bytes32",
          "name": "",
          "type": "bytes32"
        }
      ],
      "stateMutability": "view",
      "type": "function"
    },
    {
      "inputs": [],
      "name": "DEFAULT_ADMIN_ROLE",
      "outputs": [
        {
          "internalType": "bytes32",
          "name": "",
          "type": "bytes32"
        }
      ],
      "stateMutability": "view",
      "type": "function"
    },
    {
      "inputs": [],
      "name": "MAINNET_HASH",
      "outputs": [
        {
          "internalType": "bytes32",
          "name": "",
          "type": "bytes32"
        }
      ],
      "stateMutability": "view",
      "type": "function"
    },
    {
      "inputs": [],
      "name": "MAINNET_NAME",
      "outputs": [
        {
          "internalType": "string",
          "name": "",
          "type": "string"
        }
      ],
      "stateMutability": "view",
      "type": "function"
    },
    {
      "inputs": [
        {
          "internalType": "address",
          "name": "",
          "type": "address"
        }
      ],
      "name": "activeUsers",
      "outputs": [
        {
          "internalType": "bool",
          "name": "",
          "type": "bool"
        }
      ],
      "stateMutability": "view",
      "type": "function"
    },
    {
      "inputs": [
        {
          "internalType": "address",
          "name": "receiver",
          "type": "address"
        }
      ],
      "name": "checkAllowedToSendMessage",
      "outputs": [],
      "stateMutability": "nonpayable",
      "type": "function"
    },
    {
      "inputs": [],
      "name": "communityPool",
      "outputs": [
        {
          "internalType": "address",
          "name": "",
          "type": "address"
        }
      ],
      "stateMutability": "view",
      "type": "function"
    },
    {
      "inputs": [
        {
          "internalType": "bytes32",
          "name": "role",
          "type": "bytes32"
        }
      ],
      "name": "getRoleAdmin",
      "outputs": [
        {
          "internalType": "bytes32",
          "name": "",
          "type": "bytes32"
        }
      ],
      "stateMutability": "view",
      "type": "function"
    },
    {
      "inputs": [
        {
          "internalType": "bytes32",
          "name": "role",
          "type": "bytes32"
        },
        {
          "internalType": "uint256",
          "name": "index",
          "type": "uint256"
        }
      ],
      "name": "getRoleMember",
      "outputs": [
        {
          "internalType": "address",
          "name": "",
          "type": "address"
        }
      ],
      "stateMutability": "view",
      "type": "function"
    },
    {
      "inputs": [
        {
          "internalType": "bytes32",
          "name": "role",
          "type": "bytes32"
        }
      ],
      "name": "getRoleMemberCount",
      "outputs": [
        {
          "internalType": "uint256",
          "name": "",
          "type": "uint256"
        }
      ],
      "stateMutability": "view",
      "type": "function"
    },
    {
      "inputs": [
        {
          "internalType": "bytes32",
          "name": "role",
          "type": "bytes32"
        },
        {
          "internalType": "address",
          "name": "account",
          "type": "address"
        }
      ],
      "name": "grantRole",
      "outputs": [],
      "stateMutability": "nonpayable",
      "type": "function"
    },
    {
      "inputs": [
        {
          "internalType": "bytes32",
          "name": "role",
          "type": "bytes32"
        },
        {
          "internalType": "address",
          "name": "account",
          "type": "address"
        }
      ],
      "name": "hasRole",
      "outputs": [
        {
          "internalType": "bool",
          "name": "",
          "type": "bool"
        }
      ],
      "stateMutability": "view",
      "type": "function"
    },
    {
      "inputs": [
        {
          "internalType": "string",
          "name": "newSchainName",
          "type": "string"
        },
        {
          "internalType": "contract MessageProxyForSchain",
          "name": "newMessageProxy",
          "type": "address"
        },
        {
          "internalType": "contract TokenManagerLinker",
          "name": "newTokenManagerLinker",
          "type": "address"
        },
        {
          "internalType": "address",
          "name": "newCommunityPool",
          "type": "address"
        }
      ],
      "name": "initialize",
      "outputs": [],
      "stateMutability": "nonpayable",
      "type": "function"
    },
    {
      "inputs": [],
      "name": "messageProxy",
      "outputs": [
        {
          "internalType": "contract MessageProxyForSchain",
          "name": "",
          "type": "address"
        }
      ],
      "stateMutability": "view",
      "type": "function"
    },
    {
      "inputs": [
        {
          "internalType": "bytes32",
          "name": "fromChainHash",
          "type": "bytes32"
        },
        {
          "internalType": "address",
          "name": "sender",
          "type": "address"
        },
        {
          "internalType": "bytes",
          "name": "data",
          "type": "bytes"
        }
      ],
      "name": "postMessage",
      "outputs": [
        {
          "internalType": "address",
          "name": "",
          "type": "address"
        }
      ],
      "stateMutability": "nonpayable",
      "type": "function"
    },
    {
      "inputs": [
        {
          "internalType": "bytes32",
          "name": "role",
          "type": "bytes32"
        },
        {
          "internalType": "address",
          "name": "account",
          "type": "address"
        }
      ],
      "name": "renounceRole",
      "outputs": [],
      "stateMutability": "nonpayable",
      "type": "function"
    },
    {
      "inputs": [
        {
          "internalType": "bytes32",
          "name": "role",
          "type": "bytes32"
        },
        {
          "internalType": "address",
          "name": "account",
          "type": "address"
        }
      ],
      "name": "revokeRole",
      "outputs": [],
      "stateMutability": "nonpayable",
      "type": "function"
    },
    {
      "inputs": [],
      "name": "schainHash",
      "outputs": [
        {
          "internalType": "bytes32",
          "name": "",
          "type": "bytes32"
        }
      ],
      "stateMutability": "view",
      "type": "function"
    },
    {
      "inputs": [
        {
          "internalType": "uint256",
          "name": "newTimeLimitPerMessage",
          "type": "uint256"
        }
      ],
      "name": "setTimeLimitPerMessage",
      "outputs": [],
      "stateMutability": "nonpayable",
      "type": "function"
    },
    {
      "inputs": [
        {
          "internalType": "bytes4",
          "name": "interfaceId",
          "type": "bytes4"
        }
      ],
      "name": "supportsInterface",
      "outputs": [
        {
          "internalType": "bool",
          "name": "",
          "type": "bool"
        }
      ],
      "stateMutability": "view",
      "type": "function"
    },
    {
      "inputs": [],
      "name": "timeLimitPerMessage",
      "outputs": [
        {
          "internalType": "uint256",
          "name": "",
          "type": "uint256"
        }
      ],
      "stateMutability": "view",
      "type": "function"
    },
    {
      "inputs": [],
      "name": "tokenManagerLinker",
      "outputs": [
        {
          "internalType": "contract TokenManagerLinker",
          "name": "",
          "type": "address"
        }
      ],
      "stateMutability": "view",
      "type": "function"
    }
  ],
  "bytecode": "0x608060405234801561001057600080fd5b5061199c806100206000396000f3fe608060405234801561001057600080fd5b50600436106101425760003560e01c80635573b8b6116100b8578063a217fddf1161007c578063a217fddf146102c5578063bbc4e8c2146102cd578063ca15c873146102f4578063d547741f14610307578063eb0eb8ab1461031a578063f34822b41461033d57600080fd5b80635573b8b61461027057806382fd8c9614610283578063884cee5a1461028c5780639010d07c1461029f57806391d14854146102b257600080fd5b80632dc151de1161010a5780632dc151de146101e85780632f2ff15d146101fb57806336568abe1461020e5780633b690b6b1461022157806348ed32ef1461022a57806350f442801461023d57600080fd5b806301ffc9a71461014757806314d140b01461016f578063237c667a1461019a578063248a9ca3146101af57806328c5e182146101e0575b600080fd5b61015a6101553660046114fb565b610350565b60405190151581526020015b60405180910390f35b60cb54610182906001600160a01b031681565b6040516001600160a01b039091168152602001610166565b6101ad6101a83660046113cd565b61037b565b005b6101d26101bd366004611407565b60009081526065602052604090206001015490565b604051908152602001610166565b6101d2610558565b60ca54610182906001600160a01b031681565b6101ad610209366004611420565b6105a1565b6101ad61021c366004611420565b6105c8565b6101d260cc5481565b6101ad610238366004611407565b6105ea565b6102636040518060400160405280600781526020016613585a5b9b995d60ca1b81525081565b6040516101669190611742565b60c954610182906001600160a01b031681565b6101d260cd5481565b61018261029a366004611450565b6106b0565b6101826102ad3660046114d9565b610a14565b61015a6102c0366004611420565b610a33565b6101d2600081565b6101d27f96e3fc3be15159903e053027cff8a23f39a990e0194abcd8ac1cf1b355b8b93c81565b6101d2610302366004611407565b610a5e565b6101ad610315366004611420565b610a75565b61015a6103283660046113cd565b60ce6020526000908152604090205460ff1681565b6101ad61034b366004611540565b610a7f565b60006001600160e01b03198216635a05180f60e01b1480610375575061037582610bd5565b92915050565b60ca546040516374a9e4c960e11b81523360048201526001600160a01b039091169063e953c9929060240160206040518083038186803b1580156103be57600080fd5b505afa1580156103d2573d6000803e3d6000fd5b505050506040513d601f19601f820116820180604052508101906103f691906113ea565b6104565760405162461bcd60e51b815260206004820152602660248201527f53656e646572206973206e6f74207265676973746572656420746f6b656e206d60448201526530b730b3b2b960d11b60648201526084015b60405180910390fd5b6001600160a01b038116600090815260ce602052604090205460ff166104be5760405162461bcd60e51b815260206004820152601860248201527f526563697069656e74206d757374206265206163746976650000000000000000604482015260640161044d565b60cd546001600160a01b038216600090815260cf602052604090205442916104e59161181e565b1061053c5760405162461bcd60e51b815260206004820152602160248201527f547279696e6720746f2073656e64206d6573736167657320746f6f206f6674656044820152603760f91b606482015260840161044d565b6001600160a01b0316600090815260cf60205260409020429055565b6040518060400160405280600781526020016613585a5b9b995d60ca1b81525060405160200161058891906116b1565b6040516020818303038152906040528051906020012081565b6105ab8282610c0a565b60008281526097602052604090206105c39082610c30565b505050565b6105d28282610c45565b60008281526097602052604090206105c39082610cc3565b6106147f96e3fc3be15159903e053027cff8a23f39a990e0194abcd8ac1cf1b355b8b93c33610a33565b61066f5760405162461bcd60e51b815260206004820152602660248201527f4e6f7420656e6f756768207065726d697373696f6e7320746f2073657420636f6044820152651b9cdd185b9d60d21b606482015260840161044d565b60cd5460408051918252602082018390527fd5ee3b75b2f8c23643b113187e703dfd8ab8e1578f9f76b0c1f060ee4439e47a910160405180910390a160cd55565b60c9546000906001600160a01b0316331461070d5760405162461bcd60e51b815260206004820152601d60248201527f53656e646572206973206e6f742061206d6573736167652070726f7879000000604482015260640161044d565b60cb546001600160a01b0385811691161461076a5760405162461bcd60e51b815260206004820152601c60248201527f53656e646572206d75737420626520436f6d6d756e697479506f6f6c00000000604482015260640161044d565b6040518060400160405280600781526020016613585a5b9b995d60ca1b81525060405160200161079a91906116b1565b6040516020818303038152906040528051906020012085146108085760405162461bcd60e51b815260206004820152602160248201527f536f7572636520636861696e206e616d65206d757374206265204d61696e6e656044820152601d60fa1b606482015260840161044d565b60006108148484610cd8565b9050600781600c81111561082a5761082a6118eb565b1461088b5760405162461bcd60e51b815260206004820152602b60248201527f546865206d6573736167652073686f756c6420636f6e7461696e20612073746160448201526a3a3ab99037b3103ab9b2b960a91b606482015260840161044d565b60006108978585610d20565b6040818101516020808401516001600160a01b0316600090815260ce9091529190912054919250151560ff909116151514156109245760405162461bcd60e51b815260206004820152602660248201527f4163746976652075736572207374617475736573206d7573742062652064696660448201526519995c995b9d60d21b606482015260840161044d565b604081810180516020808501516001600160a01b0316600090815260ce90915292909220805460ff19169215159290921790915551156109b4577fdacccea96400d48c51a00ff7af4d1c6b6ac4909bbff0fe495f0e0edc298c3dde60cc5482602001516040516109a79291909182526001600160a01b0316602082015260400190565b60405180910390a1610a06565b7f01d8973c54faac85b2cfd40f935f8da4261d9883283ad73ce0e10aa91fc37bdf60cc5482602001516040516109fd9291909182526001600160a01b0316602082015260400190565b60405180910390a15b602001519695505050505050565b6000828152609760205260408120610a2c9083610db9565b9392505050565b60009182526065602090815260408084206001600160a01b0393909316845291905290205460ff1690565b600081815260976020526040812061037590610dc5565b6105d28282610dcf565b600054610100900460ff1680610a98575060005460ff16155b610ab45760405162461bcd60e51b815260040161044d90611775565b600054610100900460ff16158015610ad6576000805461ffff19166101011790555b6001600160a01b038216610b2c5760405162461bcd60e51b815260206004820152601a60248201527f4e6f646520616464726573732068617320746f20626520736574000000000000604482015260640161044d565b610b34610df5565b610b3f600033610e81565b60c980546001600160a01b038087166001600160a01b03199283161790925560ca805492861692909116919091179055604051610b809086906020016116b1565b60408051808303601f19018152919052805160209091012060cc5561012c60cd5560cb80546001600160a01b0319166001600160a01b0384161790558015610bce576000805461ff00191690555b5050505050565b60006001600160e01b03198216637965db0b60e01b148061037557506301ffc9a760e01b6001600160e01b0319831614610375565b600082815260656020526040902060010154610c268133610e8b565b6105c38383610eef565b6000610a2c836001600160a01b038416610f75565b6001600160a01b0381163314610cb55760405162461bcd60e51b815260206004820152602f60248201527f416363657373436f6e74726f6c3a2063616e206f6e6c792072656e6f756e636560448201526e103937b632b9903337b91039b2b63360891b606482015260840161044d565b610cbf8282610fc4565b5050565b6000610a2c836001600160a01b03841661102b565b600080610ce783850185611407565b9050610cf46020826118b3565b610d1457610d0c610d07848381886117f4565b610cd8565b915050610375565b610d0c83850185611525565b60408051608081018252600060608201818152825260208201819052918101919091526007610d4f8484610cd8565b600c811115610d6057610d606118eb565b14610dad5760405162461bcd60e51b815260206004820152601f60248201527f4d6573736167652074797065206973206e6f7420557365722053746174757300604482015260640161044d565b610a2c82840184611607565b6000610a2c8383611118565b6000610375825490565b600082815260656020526040902060010154610deb8133610e8b565b6105c38383610fc4565b600054610100900460ff1680610e0e575060005460ff16155b610e2a5760405162461bcd60e51b815260040161044d90611775565b600054610100900460ff16158015610e4c576000805461ffff19166101011790555b610e5461119e565b610e5c61119e565b610e6461119e565b610e6c61119e565b8015610e7e576000805461ff00191690555b50565b6105ab8282611208565b610e958282610a33565b610cbf57610ead816001600160a01b03166014611212565b610eb8836020611212565b604051602001610ec99291906116cd565b60408051601f198184030181529082905262461bcd60e51b825261044d91600401611742565b610ef98282610a33565b610cbf5760008281526065602090815260408083206001600160a01b03851684529091529020805460ff19166001179055610f313390565b6001600160a01b0316816001600160a01b0316837f2f8788117e7eff1d82e926ec794901d17c78024a50270940304540a733656f0d60405160405180910390a45050565b6000818152600183016020526040812054610fbc57508154600181810184556000848152602080822090930184905584548482528286019093526040902091909155610375565b506000610375565b610fce8282610a33565b15610cbf5760008281526065602090815260408083206001600160a01b0385168085529252808320805460ff1916905551339285917ff6391f5c32d9c69d2a47ea670b442974b53935d1edc7fd64eb21e047a839171b9190a45050565b6000818152600183016020526040812054801561110e57600061104f600183611855565b855490915060009061106390600190611855565b9050600086600001828154811061107c5761107c611917565b906000526020600020015490508087600001848154811061109f5761109f611917565b6000918252602080832090910192909255828152600189019091526040902084905586548790806110d2576110d2611901565b60019003818190600052602060002001600090559055866001016000878152602001908152602001600020600090556001945050505050610375565b6000915050610375565b815460009082106111765760405162461bcd60e51b815260206004820152602260248201527f456e756d657261626c655365743a20696e646578206f7574206f6620626f756e604482015261647360f01b606482015260840161044d565b82600001828154811061118b5761118b611917565b9060005260206000200154905092915050565b600054610100900460ff16806111b7575060005460ff16155b6111d35760405162461bcd60e51b815260040161044d90611775565b600054610100900460ff16158015610e6c576000805461ffff19166101011790558015610e7e576000805461ff001916905550565b610cbf8282610eef565b60606000611221836002611836565b61122c90600261181e565b67ffffffffffffffff8111156112445761124461192d565b6040519080825280601f01601f19166020018201604052801561126e576020820181803683370190505b509050600360fc1b8160008151811061128957611289611917565b60200101906001600160f81b031916908160001a905350600f60fb1b816001815181106112b8576112b8611917565b60200101906001600160f81b031916908160001a90535060006112dc846002611836565b6112e790600161181e565b90505b600181111561135f576f181899199a1a9b1b9c1cb0b131b232b360811b85600f166010811061131b5761131b611917565b1a60f81b82828151811061133157611331611917565b60200101906001600160f81b031916908160001a90535060049490941c936113588161189c565b90506112ea565b508315610a2c5760405162461bcd60e51b815260206004820181905260248201527f537472696e67733a20686578206c656e67746820696e73756666696369656e74604482015260640161044d565b80356113b981611943565b919050565b8035600d81106113b957600080fd5b6000602082840312156113df57600080fd5b8135610a2c81611943565b6000602082840312156113fc57600080fd5b8151610a2c81611958565b60006020828403121561141957600080fd5b5035919050565b6000806040838503121561143357600080fd5b82359150602083013561144581611943565b809150509250929050565b6000806000806060858703121561146657600080fd5b84359350602085013561147881611943565b9250604085013567ffffffffffffffff8082111561149557600080fd5b818701915087601f8301126114a957600080fd5b8135818111156114b857600080fd5b8860208285010111156114ca57600080fd5b95989497505060200194505050565b600080604083850312156114ec57600080fd5b50508035926020909101359150565b60006020828403121561150d57600080fd5b81356001600160e01b031981168114610a2c57600080fd5b60006020828403121561153757600080fd5b610a2c826113be565b6000806000806080858703121561155657600080fd5b843567ffffffffffffffff8082111561156e57600080fd5b818701915087601f83011261158257600080fd5b81356020828211156115965761159661192d565b6115a8601f8301601f191682016117c3565b925081835289818386010111156115be57600080fd5b818185018285013760008183850101528297506115dc818a016113ae565b9650505050506115ee604086016113ae565b91506115fc606086016113ae565b905092959194509250565b6000818303606081121561161a57600080fd5b6040516060810167ffffffffffffffff828210818311171561163e5761163e61192d565b81604052602084121561165057600080fd5b608083019350818410818511171561166a5761166a61192d565b5082604052611678856113be565b815281526020840135915061168c82611943565b816020820152604084013591506116a282611958565b60408101919091529392505050565b600082516116c381846020870161186c565b9190910192915050565b7f416363657373436f6e74726f6c3a206163636f756e742000000000000000000081526000835161170581601785016020880161186c565b7001034b99036b4b9b9b4b733903937b6329607d1b601791840191820152835161173681602884016020880161186c565b01602801949350505050565b602081526000825180602084015261176181604085016020870161186c565b601f01601f19169190910160400192915050565b6020808252602e908201527f496e697469616c697a61626c653a20636f6e747261637420697320616c72656160408201526d191e481a5b9a5d1a585b1a5e995960921b606082015260800190565b604051601f8201601f1916810167ffffffffffffffff811182821017156117ec576117ec61192d565b604052919050565b6000808585111561180457600080fd5b8386111561181157600080fd5b5050820193919092039150565b60008219821115611831576118316118d5565b500190565b6000816000190483118215151615611850576118506118d5565b500290565b600082821015611867576118676118d5565b500390565b60005b8381101561188757818101518382015260200161186f565b83811115611896576000848401525b50505050565b6000816118ab576118ab6118d5565b506000190190565b6000826118d057634e487b7160e01b600052601260045260246000fd5b500690565b634e487b7160e01b600052601160045260246000fd5b634e487b7160e01b600052602160045260246000fd5b634e487b7160e01b600052603160045260246000fd5b634e487b7160e01b600052603260045260246000fd5b634e487b7160e01b600052604160045260246000fd5b6001600160a01b0381168114610e7e57600080fd5b8015158114610e7e57600080fdfea26469706673582212207d92f9b076d10ca09934b2799e5e3ebedd92188ec57b0e3071f4572eb0e0947e64736f6c63430008060033",
  "linkReferences": {},
  "deployedLinkReferences": {}
}