{
  "_format": "hh-sol-artifact-1",
  "contractName": "ERC1155OnChain",
  "sourceName": "contracts/schain/tokens/ERC1155OnChain.sol",
  "abi": [
    {
      "inputs": [
        {
          "internalType": "string",
          "name": "uri",
          "type": "string"
        }
      ],
      "stateMutability": "nonpayable",
      "type": "constructor"
    },
    {
      "anonymous": false,
      "inputs": [
        {
          "indexed": true,
          "internalType": "address",
          "name": "account",
          "type": "address"
        },
        {
          "indexed": true,
          "internalType": "address",
          "name": "operator",
          "type": "address"
        },
        {
          "indexed": false,
          "internalType": "bool",
          "name": "approved",
          "type": "bool"
        }
      ],
      "name": "ApprovalForAll",
      "type": "event"
    },
    {
      "anonymous": false,
      "inputs": [
        {
          "indexed": true,
          "internalType": "bytes32",
          "name": "role",
          "type": "bytes32"
        },
        {
          "indexed": true,
          "internalType": "bytes32",
          "name": "previousAdminRole",
          "type": "bytes32"
        },
        {
          "indexed": true,
          "internalType": "bytes32",
          "name": "newAdminRole",
          "type": "bytes32"
        }
      ],
      "name": "RoleAdminChanged",
      "type": "event"
    },
    {
      "anonymous": false,
      "inputs": [
        {
          "indexed": true,
          "internalType": "bytes32",
          "name": "role",
          "type": "bytes32"
        },
        {
          "indexed": true,
          "internalType": "address",
          "name": "account",
          "type": "address"
        },
        {
          "indexed": true,
          "internalType": "address",
          "name": "sender",
          "type": "address"
        }
      ],
      "name": "RoleGranted",
      "type": "event"
    },
    {
      "anonymous": false,
      "inputs": [
        {
          "indexed": true,
          "internalType": "bytes32",
          "name": "role",
          "type": "bytes32"
        },
        {
          "indexed": true,
          "internalType": "address",
          "name": "account",
          "type": "address"
        },
        {
          "indexed": true,
          "internalType": "address",
          "name": "sender",
          "type": "address"
        }
      ],
      "name": "RoleRevoked",
      "type": "event"
    },
    {
      "anonymous": false,
      "inputs": [
        {
          "indexed": true,
          "internalType": "address",
          "name": "operator",
          "type": "address"
        },
        {
          "indexed": true,
          "internalType": "address",
          "name": "from",
          "type": "address"
        },
        {
          "indexed": true,
          "internalType": "address",
          "name": "to",
          "type": "address"
        },
        {
          "indexed": false,
          "internalType": "uint256[]",
          "name": "ids",
          "type": "uint256[]"
        },
        {
          "indexed": false,
          "internalType": "uint256[]",
          "name": "values",
          "type": "uint256[]"
        }
      ],
      "name": "TransferBatch",
      "type": "event"
    },
    {
      "anonymous": false,
      "inputs": [
        {
          "indexed": true,
          "internalType": "address",
          "name": "operator",
          "type": "address"
        },
        {
          "indexed": true,
          "internalType": "address",
          "name": "from",
          "type": "address"
        },
        {
          "indexed": true,
          "internalType": "address",
          "name": "to",
          "type": "address"
        },
        {
          "indexed": false,
          "internalType": "uint256",
          "name": "id",
          "type": "uint256"
        },
        {
          "indexed": false,
          "internalType": "uint256",
          "name": "value",
          "type": "uint256"
        }
      ],
      "name": "TransferSingle",
      "type": "event"
    },
    {
      "anonymous": false,
      "inputs": [
        {
          "indexed": false,
          "internalType": "string",
          "name": "value",
          "type": "string"
        },
        {
          "indexed": true,
          "internalType": "uint256",
          "name": "id",
          "type": "uint256"
        }
      ],
      "name": "URI",
      "type": "event"
    },
    {
      "inputs": [],
      "name": "DEFAULT_ADMIN_ROLE",
      "outputs": [
        {
          "internalType": "bytes32",
          "name": "",
          "type": "bytes32"
        }
      ],
      "stateMutability": "view",
      "type": "function"
    },
    {
      "inputs": [],
      "name": "MINTER_ROLE",
      "outputs": [
        {
          "internalType": "bytes32",
          "name": "",
          "type": "bytes32"
        }
      ],
      "stateMutability": "view",
      "type": "function"
    },
    {
      "inputs": [
        {
          "internalType": "address",
          "name": "account",
          "type": "address"
        },
        {
          "internalType": "uint256",
          "name": "id",
          "type": "uint256"
        }
      ],
      "name": "balanceOf",
      "outputs": [
        {
          "internalType": "uint256",
          "name": "",
          "type": "uint256"
        }
      ],
      "stateMutability": "view",
      "type": "function"
    },
    {
      "inputs": [
        {
          "internalType": "address[]",
          "name": "accounts",
          "type": "address[]"
        },
        {
          "internalType": "uint256[]",
          "name": "ids",
          "type": "uint256[]"
        }
      ],
      "name": "balanceOfBatch",
      "outputs": [
        {
          "internalType": "uint256[]",
          "name": "",
          "type": "uint256[]"
        }
      ],
      "stateMutability": "view",
      "type": "function"
    },
    {
      "inputs": [
        {
          "internalType": "address",
          "name": "account",
          "type": "address"
        },
        {
          "internalType": "uint256",
          "name": "id",
          "type": "uint256"
        },
        {
          "internalType": "uint256",
          "name": "value",
          "type": "uint256"
        }
      ],
      "name": "burn",
      "outputs": [],
      "stateMutability": "nonpayable",
      "type": "function"
    },
    {
      "inputs": [
        {
          "internalType": "address",
          "name": "account",
          "type": "address"
        },
        {
          "internalType": "uint256[]",
          "name": "ids",
          "type": "uint256[]"
        },
        {
          "internalType": "uint256[]",
          "name": "values",
          "type": "uint256[]"
        }
      ],
      "name": "burnBatch",
      "outputs": [],
      "stateMutability": "nonpayable",
      "type": "function"
    },
    {
      "inputs": [
        {
          "internalType": "bytes32",
          "name": "role",
          "type": "bytes32"
        }
      ],
      "name": "getRoleAdmin",
      "outputs": [
        {
          "internalType": "bytes32",
          "name": "",
          "type": "bytes32"
        }
      ],
      "stateMutability": "view",
      "type": "function"
    },
    {
      "inputs": [
        {
          "internalType": "bytes32",
          "name": "role",
          "type": "bytes32"
        },
        {
          "internalType": "uint256",
          "name": "index",
          "type": "uint256"
        }
      ],
      "name": "getRoleMember",
      "outputs": [
        {
          "internalType": "address",
          "name": "",
          "type": "address"
        }
      ],
      "stateMutability": "view",
      "type": "function"
    },
    {
      "inputs": [
        {
          "internalType": "bytes32",
          "name": "role",
          "type": "bytes32"
        }
      ],
      "name": "getRoleMemberCount",
      "outputs": [
        {
          "internalType": "uint256",
          "name": "",
          "type": "uint256"
        }
      ],
      "stateMutability": "view",
      "type": "function"
    },
    {
      "inputs": [
        {
          "internalType": "bytes32",
          "name": "role",
          "type": "bytes32"
        },
        {
          "internalType": "address",
          "name": "account",
          "type": "address"
        }
      ],
      "name": "grantRole",
      "outputs": [],
      "stateMutability": "nonpayable",
      "type": "function"
    },
    {
      "inputs": [
        {
          "internalType": "bytes32",
          "name": "role",
          "type": "bytes32"
        },
        {
          "internalType": "address",
          "name": "account",
          "type": "address"
        }
      ],
      "name": "hasRole",
      "outputs": [
        {
          "internalType": "bool",
          "name": "",
          "type": "bool"
        }
      ],
      "stateMutability": "view",
      "type": "function"
    },
    {
      "inputs": [
        {
          "internalType": "address",
          "name": "account",
          "type": "address"
        },
        {
          "internalType": "address",
          "name": "operator",
          "type": "address"
        }
      ],
      "name": "isApprovedForAll",
      "outputs": [
        {
          "internalType": "bool",
          "name": "",
          "type": "bool"
        }
      ],
      "stateMutability": "view",
      "type": "function"
    },
    {
      "inputs": [
        {
          "internalType": "address",
          "name": "account",
          "type": "address"
        },
        {
          "internalType": "uint256",
          "name": "id",
          "type": "uint256"
        },
        {
          "internalType": "uint256",
          "name": "amount",
          "type": "uint256"
        },
        {
          "internalType": "bytes",
          "name": "data",
          "type": "bytes"
        }
      ],
      "name": "mint",
      "outputs": [],
      "stateMutability": "nonpayable",
      "type": "function"
    },
    {
      "inputs": [
        {
          "internalType": "address",
          "name": "account",
          "type": "address"
        },
        {
          "internalType": "uint256[]",
          "name": "ids",
          "type": "uint256[]"
        },
        {
          "internalType": "uint256[]",
          "name": "amounts",
          "type": "uint256[]"
        },
        {
          "internalType": "bytes",
          "name": "data",
          "type": "bytes"
        }
      ],
      "name": "mintBatch",
      "outputs": [],
      "stateMutability": "nonpayable",
      "type": "function"
    },
    {
      "inputs": [
        {
          "internalType": "bytes32",
          "name": "role",
          "type": "bytes32"
        },
        {
          "internalType": "address",
          "name": "account",
          "type": "address"
        }
      ],
      "name": "renounceRole",
      "outputs": [],
      "stateMutability": "nonpayable",
      "type": "function"
    },
    {
      "inputs": [
        {
          "internalType": "bytes32",
          "name": "role",
          "type": "bytes32"
        },
        {
          "internalType": "address",
          "name": "account",
          "type": "address"
        }
      ],
      "name": "revokeRole",
      "outputs": [],
      "stateMutability": "nonpayable",
      "type": "function"
    },
    {
      "inputs": [
        {
          "internalType": "address",
          "name": "from",
          "type": "address"
        },
        {
          "internalType": "address",
          "name": "to",
          "type": "address"
        },
        {
          "internalType": "uint256[]",
          "name": "ids",
          "type": "uint256[]"
        },
        {
          "internalType": "uint256[]",
          "name": "amounts",
          "type": "uint256[]"
        },
        {
          "internalType": "bytes",
          "name": "data",
          "type": "bytes"
        }
      ],
      "name": "safeBatchTransferFrom",
      "outputs": [],
      "stateMutability": "nonpayable",
      "type": "function"
    },
    {
      "inputs": [
        {
          "internalType": "address",
          "name": "from",
          "type": "address"
        },
        {
          "internalType": "address",
          "name": "to",
          "type": "address"
        },
        {
          "internalType": "uint256",
          "name": "id",
          "type": "uint256"
        },
        {
          "internalType": "uint256",
          "name": "amount",
          "type": "uint256"
        },
        {
          "internalType": "bytes",
          "name": "data",
          "type": "bytes"
        }
      ],
      "name": "safeTransferFrom",
      "outputs": [],
      "stateMutability": "nonpayable",
      "type": "function"
    },
    {
      "inputs": [
        {
          "internalType": "address",
          "name": "operator",
          "type": "address"
        },
        {
          "internalType": "bool",
          "name": "approved",
          "type": "bool"
        }
      ],
      "name": "setApprovalForAll",
      "outputs": [],
      "stateMutability": "nonpayable",
      "type": "function"
    },
    {
      "inputs": [
        {
          "internalType": "bytes4",
          "name": "interfaceId",
          "type": "bytes4"
        }
      ],
      "name": "supportsInterface",
      "outputs": [
        {
          "internalType": "bool",
          "name": "",
          "type": "bool"
        }
      ],
      "stateMutability": "view",
      "type": "function"
    },
    {
      "inputs": [
        {
          "internalType": "uint256",
          "name": "",
          "type": "uint256"
        }
      ],
      "name": "uri",
      "outputs": [
        {
          "internalType": "string",
          "name": "",
          "type": "string"
        }
      ],
      "stateMutability": "view",
      "type": "function"
    }
  ],
  "bytecode": "0x60806040523480156200001157600080fd5b506040516200325c3803806200325c83398101604081905262000034916200073f565b600054610100900460ff16806200004e575060005460ff16155b620000a65760405162461bcd60e51b815260206004820152602e60248201526000805160206200321c83398151915260448201526d191e481a5b9a5d1a585b1a5e995960921b60648201526084015b60405180910390fd5b600054610100900460ff16158015620000c9576000805461ffff19166101011790555b620000de6200015a60201b62000cb41760201c565b620000f4826200022960201b62000d401760201c565b62000109620002f060201b62000dc61760201c565b620001246000805160206200323c833981519152806200038a565b6200013f6000805160206200323c83398151915233620003de565b801562000152576000805461ff00191690555b50506200086e565b600054610100900460ff168062000174575060005460ff16155b620001c85760405162461bcd60e51b815260206004820152602e60248201526000805160206200321c83398151915260448201526d191e481a5b9a5d1a585b1a5e995960921b60648201526084016200009d565b600054610100900460ff16158015620001eb576000805461ffff19166101011790555b620001f562000421565b620001ff62000421565b6200020962000421565b6200021362000421565b801562000226576000805461ff00191690555b50565b600054610100900460ff168062000243575060005460ff16155b620002975760405162461bcd60e51b815260206004820152602e60248201526000805160206200321c83398151915260448201526d191e481a5b9a5d1a585b1a5e995960921b60648201526084016200009d565b600054610100900460ff16158015620002ba576000805461ffff19166101011790555b620002c462000421565b620002ce62000421565b620002d982620004c6565b8015620002ec576000805461ff00191690555b5050565b600054610100900460ff16806200030a575060005460ff16155b6200035e5760405162461bcd60e51b815260206004820152602e60248201526000805160206200321c83398151915260448201526d191e481a5b9a5d1a585b1a5e995960921b60648201526084016200009d565b600054610100900460ff16158015620001f5576000805461ffff1916610101179055620001ff62000421565b600082815260656020526040902060010154819060405184907fbd79b86ffe0ab8e8776151514217cd7cacd52c909f66475c3af44e129f0b00ff90600090a460009182526065602052604090912060010155565b620003f582826200056260201b62000e241760201c565b60008281526097602090815260409091206200041c91839062000e2e6200056e821b17901c565b505050565b600054610100900460ff16806200043b575060005460ff16155b6200048f5760405162461bcd60e51b815260206004820152602e60248201526000805160206200321c83398151915260448201526d191e481a5b9a5d1a585b1a5e995960921b60648201526084016200009d565b600054610100900460ff1615801562000213576000805461ffff1916610101179055801562000226576000805461ff001916905550565b600054610100900460ff1680620004e0575060005460ff16155b620005345760405162461bcd60e51b815260206004820152602e60248201526000805160206200321c83398151915260448201526d191e481a5b9a5d1a585b1a5e995960921b60648201526084016200009d565b600054610100900460ff1615801562000557576000805461ffff19166101011790555b620002d9826200058e565b620002ec8282620005a3565b600062000585836001600160a01b03841662000647565b90505b92915050565b8051620002ec9060cb90602084019062000699565b60008281526065602090815260408083206001600160a01b038516845290915290205460ff16620002ec5760008281526065602090815260408083206001600160a01b03851684529091529020805460ff19166001179055620006033390565b6001600160a01b0316816001600160a01b0316837f2f8788117e7eff1d82e926ec794901d17c78024a50270940304540a733656f0d60405160405180910390a45050565b6000818152600183016020526040812054620006905750815460018181018455600084815260208082209093018490558454848252828601909352604090209190915562000588565b50600062000588565b828054620006a7906200081b565b90600052602060002090601f016020900481019282620006cb576000855562000716565b82601f10620006e657805160ff191683800117855562000716565b8280016001018555821562000716579182015b8281111562000716578251825591602001919060010190620006f9565b506200072492915062000728565b5090565b5b8082111562000724576000815560010162000729565b600060208083850312156200075357600080fd5b82516001600160401b03808211156200076b57600080fd5b818501915085601f8301126200078057600080fd5b81518181111562000795576200079562000858565b604051601f8201601f19908116603f01168101908382118183101715620007c057620007c062000858565b816040528281528886848701011115620007d957600080fd5b600093505b82841015620007fd5784840186015181850187015292850192620007de565b828411156200080f5760008684830101525b98975050505050505050565b600181811c908216806200083057607f821691505b602082108114156200085257634e487b7160e01b600052602260045260246000fd5b50919050565b634e487b7160e01b600052604160045260246000fd5b61299e806200087e6000396000f3fe608060405234801561001057600080fd5b50600436106101365760003560e01c8063731133e9116100b8578063ca15c8731161007c578063ca15c873146102b4578063d5391393146102c7578063d547741f146102ee578063e985e9c514610301578063f242432a1461033d578063f5298aca1461035057600080fd5b8063731133e9146102485780639010d07c1461025b57806391d1485414610286578063a217fddf14610299578063a22cb465146102a157600080fd5b80632eb2c2d6116100ff5780632eb2c2d6146101dc5780632f2ff15d146101ef57806336568abe146102025780634e1273f4146102155780636b20c4541461023557600080fd5b8062fdd58e1461013b57806301ffc9a7146101615780630e89341c146101845780631f7fdffa146101a4578063248a9ca3146101b9575b600080fd5b61014e6101493660046120b0565b610363565b6040519081526020015b60405180910390f35b61017461016f366004612291565b6103ff565b6040519015158152602001610158565b610197610192366004612233565b61040a565b604051610158919061248b565b6101b76101b2366004611fdb565b61049e565b005b61014e6101c7366004612233565b60009081526065602052604090206001015490565b6101b76101ea366004611e58565b61051f565b6101b76101fd36600461224c565b61078c565b6101b761021036600461224c565b6107b3565b610228610223366004612162565b6107d5565b604051610158919061244a565b6101b7610243366004611f67565b6108ff565b6101b761025636600461210d565b610942565b61026e61026936600461226f565b6109bd565b6040516001600160a01b039091168152602001610158565b61017461029436600461224c565b6109dc565b61014e600081565b6101b76102af366004612074565b610a07565b61014e6102c2366004612233565b610ade565b61014e7f9f2df0fed2c77648de5860a4cc508cd0818c85b8b8a1ab4ceeef8d981c8956a681565b6101b76102fc36600461224c565b610af5565b61017461030f366004611e25565b6001600160a01b03918216600090815260ca6020908152604080832093909416825291909152205460ff1690565b6101b761034b366004611f02565b610aff565b6101b761035e3660046120da565b610c71565b60006001600160a01b0383166103d45760405162461bcd60e51b815260206004820152602b60248201527f455243313135353a2062616c616e636520717565727920666f7220746865207a60448201526a65726f206164647265737360a81b60648201526084015b60405180910390fd5b50600081815260c9602090815260408083206001600160a01b03861684529091529020545b92915050565b60006103f982610e43565b606060cb8054610419906127d1565b80601f0160208091040260200160405190810160405280929190818152602001828054610445906127d1565b80156104925780601f1061046757610100808354040283529160200191610492565b820191906000526020600020905b81548152906001019060200180831161047557829003601f168201915b50505050509050919050565b6104c87f9f2df0fed2c77648de5860a4cc508cd0818c85b8b8a1ab4ceeef8d981c8956a6336109dc565b61050d5760405162461bcd60e51b815260206004820152601660248201527529b2b73232b91034b9903737ba10309026b4b73a32b960511b60448201526064016103cb565b61051984848484610e83565b50505050565b81518351146105405760405162461bcd60e51b81526004016103cb90612693565b6001600160a01b0384166105665760405162461bcd60e51b81526004016103cb90612573565b6001600160a01b0385163314806105825750610582853361030f565b6105e95760405162461bcd60e51b815260206004820152603260248201527f455243313135353a207472616e736665722063616c6c6572206973206e6f74206044820152711bdddb995c881b9bdc88185c1c1c9bdd995960721b60648201526084016103cb565b3360005b845181101561071e57600085828151811061060a5761060a612880565b60200260200101519050600085838151811061062857610628612880565b602090810291909101810151600084815260c9835260408082206001600160a01b038e1683529093529190912054909150818110156106795760405162461bcd60e51b81526004016103cb90612649565b6106838282612777565b60c9600085815260200190815260200160002060008c6001600160a01b03166001600160a01b03168152602001908152602001600020819055508160c9600085815260200190815260200160002060008b6001600160a01b03166001600160a01b0316815260200190815260200160002060008282546107039190612740565b925050819055505050508061071790612839565b90506105ed565b50846001600160a01b0316866001600160a01b0316826001600160a01b03167f4a39dc06d4c0dbc64b70af90fd698a233a518aa5d07e595d983b8c0526c8f7fb878760405161076e92919061245d565b60405180910390a4610784818787878787610fcb565b505050505050565b6107968282611136565b60008281526097602052604090206107ae9082610e2e565b505050565b6107bd828261115c565b60008281526097602052604090206107ae90826111d6565b6060815183511461083a5760405162461bcd60e51b815260206004820152602960248201527f455243313135353a206163636f756e747320616e6420696473206c656e677468604482015268040dad2e6dac2e8c6d60bb1b60648201526084016103cb565b6000835167ffffffffffffffff81111561085657610856612896565b60405190808252806020026020018201604052801561087f578160200160208202803683370190505b50905060005b84518110156108f7576108ca8582815181106108a3576108a3612880565b60200260200101518583815181106108bd576108bd612880565b6020026020010151610363565b8282815181106108dc576108dc612880565b60209081029190910101526108f081612839565b9050610885565b509392505050565b6001600160a01b03831633148061091b575061091b833361030f565b6109375760405162461bcd60e51b81526004016103cb9061252a565b6107ae8383836111eb565b61096c7f9f2df0fed2c77648de5860a4cc508cd0818c85b8b8a1ab4ceeef8d981c8956a6336109dc565b6109b15760405162461bcd60e51b815260206004820152601660248201527529b2b73232b91034b9903737ba10309026b4b73a32b960511b60448201526064016103cb565b61051984848484611377565b60008281526097602052604081206109d59083611440565b9392505050565b60009182526065602090815260408084206001600160a01b0393909316845291905290205460ff1690565b336001600160a01b0383161415610a725760405162461bcd60e51b815260206004820152602960248201527f455243313135353a2073657474696e6720617070726f76616c20737461747573604482015268103337b91039b2b63360b91b60648201526084016103cb565b33600081815260ca602090815260408083206001600160a01b03871680855290835292819020805460ff191686151590811790915590519081529192917f17307eab39ab6107e8899845ad3d59bd9653f200f220920489ca2b5937696c31910160405180910390a35050565b60008181526097602052604081206103f99061144c565b6107bd8282611456565b6001600160a01b038416610b255760405162461bcd60e51b81526004016103cb90612573565b6001600160a01b038516331480610b415750610b41853361030f565b610b5d5760405162461bcd60e51b81526004016103cb9061252a565b33610b7d818787610b6d8861147c565b610b768861147c565b5050505050565b600084815260c9602090815260408083206001600160a01b038a16845290915290205483811015610bc05760405162461bcd60e51b81526004016103cb90612649565b610bca8482612777565b600086815260c9602090815260408083206001600160a01b038c81168552925280832093909355881681529081208054869290610c08908490612740565b909155505060408051868152602081018690526001600160a01b03808916928a821692918616917fc3d58168c5ae7397731d063d5bbf3d657854427343f4c083240f7aacaa2d0f62910160405180910390a4610c688288888888886114c7565b50505050505050565b6001600160a01b038316331480610c8d5750610c8d833361030f565b610ca95760405162461bcd60e51b81526004016103cb9061252a565b6107ae838383611591565b600054610100900460ff1680610ccd575060005460ff16155b610ce95760405162461bcd60e51b81526004016103cb906125b8565b600054610100900460ff16158015610d0b576000805461ffff19166101011790555b610d1361169f565b610d1b61169f565b610d2361169f565b610d2b61169f565b8015610d3d576000805461ff00191690555b50565b600054610100900460ff1680610d59575060005460ff16155b610d755760405162461bcd60e51b81526004016103cb906125b8565b600054610100900460ff16158015610d97576000805461ffff19166101011790555b610d9f61169f565b610da761169f565b610db082611709565b8015610dc2576000805461ff00191690555b5050565b600054610100900460ff1680610ddf575060005460ff16155b610dfb5760405162461bcd60e51b81526004016103cb906125b8565b600054610100900460ff16158015610d13576000805461ffff1916610101179055610d1b61169f565b610dc28282611769565b60006109d5836001600160a01b0384166117ef565b60006001600160e01b03198216636cdb3d1360e11b1480610e7457506001600160e01b031982166303a24d0760e21b145b806103f957506103f98261183e565b6001600160a01b038416610ea95760405162461bcd60e51b81526004016103cb906126db565b8151835114610eca5760405162461bcd60e51b81526004016103cb90612693565b3360005b8451811015610f6757838181518110610ee957610ee9612880565b602002602001015160c96000878481518110610f0757610f07612880565b602002602001015181526020019081526020016000206000886001600160a01b03166001600160a01b031681526020019081526020016000206000828254610f4f9190612740565b90915550819050610f5f81612839565b915050610ece565b50846001600160a01b031660006001600160a01b0316826001600160a01b03167f4a39dc06d4c0dbc64b70af90fd698a233a518aa5d07e595d983b8c0526c8f7fb8787604051610fb892919061245d565b60405180910390a4610b76816000878787875b6001600160a01b0384163b156107845760405163bc197c8160e01b81526001600160a01b0385169063bc197c819061100f90899089908890889088906004016123a7565b602060405180830381600087803b15801561102957600080fd5b505af1925050508015611059575060408051601f3d908101601f19168201909252611056918101906122ae565b60015b611106576110656128ac565b806308c379a0141561109f575061107a6128c8565b8061108557506110a1565b8060405162461bcd60e51b81526004016103cb919061248b565b505b60405162461bcd60e51b815260206004820152603460248201527f455243313135353a207472616e7366657220746f206e6f6e20455243313135356044820152732932b1b2b4bb32b91034b6b83632b6b2b73a32b960611b60648201526084016103cb565b6001600160e01b0319811663bc197c8160e01b14610c685760405162461bcd60e51b81526004016103cb9061249e565b6000828152606560205260409020600101546111528133611863565b6107ae8383611769565b6001600160a01b03811633146111cc5760405162461bcd60e51b815260206004820152602f60248201527f416363657373436f6e74726f6c3a2063616e206f6e6c792072656e6f756e636560448201526e103937b632b9903337b91039b2b63360891b60648201526084016103cb565b610dc282826118c7565b60006109d5836001600160a01b03841661192e565b6001600160a01b0383166112115760405162461bcd60e51b81526004016103cb90612606565b80518251146112325760405162461bcd60e51b81526004016103cb90612693565b604080516020810190915260009081905233905b835181101561131857600084828151811061126357611263612880565b60200260200101519050600084838151811061128157611281612880565b602090810291909101810151600084815260c9835260408082206001600160a01b038c1683529093529190912054909150818110156112d25760405162461bcd60e51b81526004016103cb906124e6565b6112dc8282612777565b600093845260c9602090815260408086206001600160a01b038c168752909152909320929092555081905061131081612839565b915050611246565b5060006001600160a01b0316846001600160a01b0316826001600160a01b03167f4a39dc06d4c0dbc64b70af90fd698a233a518aa5d07e595d983b8c0526c8f7fb868660405161136992919061245d565b60405180910390a450505050565b6001600160a01b03841661139d5760405162461bcd60e51b81526004016103cb906126db565b336113ae81600087610b6d8861147c565b600084815260c9602090815260408083206001600160a01b0389168452909152812080548592906113e0908490612740565b909155505060408051858152602081018590526001600160a01b0380881692600092918516917fc3d58168c5ae7397731d063d5bbf3d657854427343f4c083240f7aacaa2d0f62910160405180910390a4610b76816000878787876114c7565b60006109d58383611a1b565b60006103f9825490565b6000828152606560205260409020600101546114728133611863565b6107ae83836118c7565b604080516001808252818301909252606091600091906020808301908036833701905050905082816000815181106114b6576114b6612880565b602090810291909101015292915050565b6001600160a01b0384163b156107845760405163f23a6e6160e01b81526001600160a01b0385169063f23a6e619061150b9089908990889088908890600401612405565b602060405180830381600087803b15801561152557600080fd5b505af1925050508015611555575060408051601f3d908101601f19168201909252611552918101906122ae565b60015b611561576110656128ac565b6001600160e01b0319811663f23a6e6160e01b14610c685760405162461bcd60e51b81526004016103cb9061249e565b6001600160a01b0383166115b75760405162461bcd60e51b81526004016103cb90612606565b336115e7818560006115c88761147c565b6115d18761147c565b5050604080516020810190915260009052505050565b600083815260c9602090815260408083206001600160a01b03881684529091529020548281101561162a5760405162461bcd60e51b81526004016103cb906124e6565b6116348382612777565b600085815260c9602090815260408083206001600160a01b038a811680865291845282852095909555815189815292830188905292938616917fc3d58168c5ae7397731d063d5bbf3d657854427343f4c083240f7aacaa2d0f62910160405180910390a45050505050565b600054610100900460ff16806116b8575060005460ff16155b6116d45760405162461bcd60e51b81526004016103cb906125b8565b600054610100900460ff16158015610d2b576000805461ffff19166101011790558015610d3d576000805461ff001916905550565b600054610100900460ff1680611722575060005460ff16155b61173e5760405162461bcd60e51b81526004016103cb906125b8565b600054610100900460ff16158015611760576000805461ffff19166101011790555b610db082611aa1565b61177382826109dc565b610dc25760008281526065602090815260408083206001600160a01b03851684529091529020805460ff191660011790556117ab3390565b6001600160a01b0316816001600160a01b0316837f2f8788117e7eff1d82e926ec794901d17c78024a50270940304540a733656f0d60405160405180910390a45050565b6000818152600183016020526040812054611836575081546001818101845560008481526020808220909301849055845484825282860190935260409020919091556103f9565b5060006103f9565b60006001600160e01b03198216635a05180f60e01b14806103f957506103f982611ab4565b61186d82826109dc565b610dc257611885816001600160a01b03166014611ae9565b611890836020611ae9565b6040516020016118a1929190612332565b60408051601f198184030181529082905262461bcd60e51b82526103cb9160040161248b565b6118d182826109dc565b15610dc25760008281526065602090815260408083206001600160a01b0385168085529252808320805460ff1916905551339285917ff6391f5c32d9c69d2a47ea670b442974b53935d1edc7fd64eb21e047a839171b9190a45050565b60008181526001830160205260408120548015611a11576000611952600183612777565b855490915060009061196690600190612777565b9050600086600001828154811061197f5761197f612880565b90600052602060002001549050808760000184815481106119a2576119a2612880565b6000918252602080832090910192909255828152600189019091526040902084905586548790806119d5576119d561286a565b600190038181906000526020600020016000905590558660010160008781526020019081526020016000206000905560019450505050506103f9565b60009150506103f9565b81546000908210611a795760405162461bcd60e51b815260206004820152602260248201527f456e756d657261626c655365743a20696e646578206f7574206f6620626f756e604482015261647360f01b60648201526084016103cb565b826000018281548110611a8e57611a8e612880565b9060005260206000200154905092915050565b8051610dc29060cb906020840190611c85565b60006001600160e01b03198216637965db0b60e01b14806103f957506301ffc9a760e01b6001600160e01b03198316146103f9565b60606000611af8836002612758565b611b03906002612740565b67ffffffffffffffff811115611b1b57611b1b612896565b6040519080825280601f01601f191660200182016040528015611b45576020820181803683370190505b509050600360fc1b81600081518110611b6057611b60612880565b60200101906001600160f81b031916908160001a905350600f60fb1b81600181518110611b8f57611b8f612880565b60200101906001600160f81b031916908160001a9053506000611bb3846002612758565b611bbe906001612740565b90505b6001811115611c36576f181899199a1a9b1b9c1cb0b131b232b360811b85600f1660108110611bf257611bf2612880565b1a60f81b828281518110611c0857611c08612880565b60200101906001600160f81b031916908160001a90535060049490941c93611c2f816127ba565b9050611bc1565b5083156109d55760405162461bcd60e51b815260206004820181905260248201527f537472696e67733a20686578206c656e67746820696e73756666696369656e7460448201526064016103cb565b828054611c91906127d1565b90600052602060002090601f016020900481019282611cb35760008555611cf9565b82601f10611ccc57805160ff1916838001178555611cf9565b82800160010185558215611cf9579182015b82811115611cf9578251825591602001919060010190611cde565b50611d05929150611d09565b5090565b5b80821115611d055760008155600101611d0a565b80356001600160a01b0381168114611d3557600080fd5b919050565b600082601f830112611d4b57600080fd5b81356020611d588261271c565b604051611d65828261280c565b8381528281019150858301600585901b87018401881015611d8557600080fd5b60005b85811015611da457813584529284019290840190600101611d88565b5090979650505050505050565b600082601f830112611dc257600080fd5b813567ffffffffffffffff811115611ddc57611ddc612896565b604051611df3601f8301601f19166020018261280c565b818152846020838601011115611e0857600080fd5b816020850160208301376000918101602001919091529392505050565b60008060408385031215611e3857600080fd5b611e4183611d1e565b9150611e4f60208401611d1e565b90509250929050565b600080600080600060a08688031215611e7057600080fd5b611e7986611d1e565b9450611e8760208701611d1e565b9350604086013567ffffffffffffffff80821115611ea457600080fd5b611eb089838a01611d3a565b94506060880135915080821115611ec657600080fd5b611ed289838a01611d3a565b93506080880135915080821115611ee857600080fd5b50611ef588828901611db1565b9150509295509295909350565b600080600080600060a08688031215611f1a57600080fd5b611f2386611d1e565b9450611f3160208701611d1e565b93506040860135925060608601359150608086013567ffffffffffffffff811115611f5b57600080fd5b611ef588828901611db1565b600080600060608486031215611f7c57600080fd5b611f8584611d1e565b9250602084013567ffffffffffffffff80821115611fa257600080fd5b611fae87838801611d3a565b93506040860135915080821115611fc457600080fd5b50611fd186828701611d3a565b9150509250925092565b60008060008060808587031215611ff157600080fd5b611ffa85611d1e565b9350602085013567ffffffffffffffff8082111561201757600080fd5b61202388838901611d3a565b9450604087013591508082111561203957600080fd5b61204588838901611d3a565b9350606087013591508082111561205b57600080fd5b5061206887828801611db1565b91505092959194509250565b6000806040838503121561208757600080fd5b61209083611d1e565b9150602083013580151581146120a557600080fd5b809150509250929050565b600080604083850312156120c357600080fd5b6120cc83611d1e565b946020939093013593505050565b6000806000606084860312156120ef57600080fd5b6120f884611d1e565b95602085013595506040909401359392505050565b6000806000806080858703121561212357600080fd5b61212c85611d1e565b93506020850135925060408501359150606085013567ffffffffffffffff81111561215657600080fd5b61206887828801611db1565b6000806040838503121561217557600080fd5b823567ffffffffffffffff8082111561218d57600080fd5b818501915085601f8301126121a157600080fd5b813560206121ae8261271c565b6040516121bb828261280c565b8381528281019150858301600585901b870184018b10156121db57600080fd5b600096505b84871015612205576121f181611d1e565b8352600196909601959183019183016121e0565b509650508601359250508082111561221c57600080fd5b5061222985828601611d3a565b9150509250929050565b60006020828403121561224557600080fd5b5035919050565b6000806040838503121561225f57600080fd5b82359150611e4f60208401611d1e565b6000806040838503121561228257600080fd5b50508035926020909101359150565b6000602082840312156122a357600080fd5b81356109d581612952565b6000602082840312156122c057600080fd5b81516109d581612952565b600081518084526020808501945080840160005b838110156122fb578151875295820195908201906001016122df565b509495945050505050565b6000815180845261231e81602086016020860161278e565b601f01601f19169290920160200192915050565b7f416363657373436f6e74726f6c3a206163636f756e742000000000000000000081526000835161236a81601785016020880161278e565b7001034b99036b4b9b9b4b733903937b6329607d1b601791840191820152835161239b81602884016020880161278e565b01602801949350505050565b6001600160a01b0386811682528516602082015260a0604082018190526000906123d3908301866122cb565b82810360608401526123e581866122cb565b905082810360808401526123f98185612306565b98975050505050505050565b6001600160a01b03868116825285166020820152604081018490526060810183905260a06080820181905260009061243f90830184612306565b979650505050505050565b6020815260006109d560208301846122cb565b60408152600061247060408301856122cb565b828103602084015261248281856122cb565b95945050505050565b6020815260006109d56020830184612306565b60208082526028908201527f455243313135353a204552433131353552656365697665722072656a656374656040820152676420746f6b656e7360c01b606082015260800190565b60208082526024908201527f455243313135353a206275726e20616d6f756e7420657863656564732062616c604082015263616e636560e01b606082015260800190565b60208082526029908201527f455243313135353a2063616c6c6572206973206e6f74206f776e6572206e6f7260408201526808185c1c1c9bdd995960ba1b606082015260800190565b60208082526025908201527f455243313135353a207472616e7366657220746f20746865207a65726f206164604082015264647265737360d81b606082015260800190565b6020808252602e908201527f496e697469616c697a61626c653a20636f6e747261637420697320616c72656160408201526d191e481a5b9a5d1a585b1a5e995960921b606082015260800190565b60208082526023908201527f455243313135353a206275726e2066726f6d20746865207a65726f206164647260408201526265737360e81b606082015260800190565b6020808252602a908201527f455243313135353a20696e73756666696369656e742062616c616e636520666f60408201526939103a3930b739b332b960b11b606082015260800190565b60208082526028908201527f455243313135353a2069647320616e6420616d6f756e7473206c656e677468206040820152670dad2e6dac2e8c6d60c31b606082015260800190565b60208082526021908201527f455243313135353a206d696e7420746f20746865207a65726f206164647265736040820152607360f81b606082015260800190565b600067ffffffffffffffff82111561273657612736612896565b5060051b60200190565b6000821982111561275357612753612854565b500190565b600081600019048311821515161561277257612772612854565b500290565b60008282101561278957612789612854565b500390565b60005b838110156127a9578181015183820152602001612791565b838111156105195750506000910152565b6000816127c9576127c9612854565b506000190190565b600181811c908216806127e557607f821691505b6020821081141561280657634e487b7160e01b600052602260045260246000fd5b50919050565b601f8201601f1916810167ffffffffffffffff8111828210171561283257612832612896565b6040525050565b600060001982141561284d5761284d612854565b5060010190565b634e487b7160e01b600052601160045260246000fd5b634e487b7160e01b600052603160045260246000fd5b634e487b7160e01b600052603260045260246000fd5b634e487b7160e01b600052604160045260246000fd5b600060033d11156128c55760046000803e5060005160e01c5b90565b600060443d10156128d65790565b6040516003193d81016004833e81513d67ffffffffffffffff816024840111818411171561290657505050505090565b828501915081518181111561291e5750505050505090565b843d87010160208285010111156129385750505050505090565b6129476020828601018761280c565b509095945050505050565b6001600160e01b031981168114610d3d57600080fdfea2646970667358221220b03a271abe35afe356d15d9936f8da7e17f0759383aa1145fbb9df733f76b51064736f6c63430008060033496e697469616c697a61626c653a20636f6e747261637420697320616c7265619f2df0fed2c77648de5860a4cc508cd0818c85b8b8a1ab4ceeef8d981c8956a6",
  "linkReferences": {},
  "deployedLinkReferences": {}
}