{
  "_format": "hh-sol-artifact-1",
  "contractName": "ERC20OnChain",
  "sourceName": "contracts/schain/tokens/ERC20OnChain.sol",
  "abi": [
    {
      "inputs": [
        {
          "internalType": "string",
          "name": "contractName",
          "type": "string"
        },
        {
          "internalType": "string",
          "name": "contractSymbol",
          "type": "string"
        }
      ],
      "stateMutability": "nonpayable",
      "type": "constructor"
    },
    {
      "anonymous": false,
      "inputs": [
        {
          "indexed": true,
          "internalType": "address",
          "name": "owner",
          "type": "address"
        },
        {
          "indexed": true,
          "internalType": "address",
          "name": "spender",
          "type": "address"
        },
        {
          "indexed": false,
          "internalType": "uint256",
          "name": "value",
          "type": "uint256"
        }
      ],
      "name": "Approval",
      "type": "event"
    },
    {
      "anonymous": false,
      "inputs": [
        {
          "indexed": true,
          "internalType": "bytes32",
          "name": "role",
          "type": "bytes32"
        },
        {
          "indexed": true,
          "internalType": "bytes32",
          "name": "previousAdminRole",
          "type": "bytes32"
        },
        {
          "indexed": true,
          "internalType": "bytes32",
          "name": "newAdminRole",
          "type": "bytes32"
        }
      ],
      "name": "RoleAdminChanged",
      "type": "event"
    },
    {
      "anonymous": false,
      "inputs": [
        {
          "indexed": true,
          "internalType": "bytes32",
          "name": "role",
          "type": "bytes32"
        },
        {
          "indexed": true,
          "internalType": "address",
          "name": "account",
          "type": "address"
        },
        {
          "indexed": true,
          "internalType": "address",
          "name": "sender",
          "type": "address"
        }
      ],
      "name": "RoleGranted",
      "type": "event"
    },
    {
      "anonymous": false,
      "inputs": [
        {
          "indexed": true,
          "internalType": "bytes32",
          "name": "role",
          "type": "bytes32"
        },
        {
          "indexed": true,
          "internalType": "address",
          "name": "account",
          "type": "address"
        },
        {
          "indexed": true,
          "internalType": "address",
          "name": "sender",
          "type": "address"
        }
      ],
      "name": "RoleRevoked",
      "type": "event"
    },
    {
      "anonymous": false,
      "inputs": [
        {
          "indexed": true,
          "internalType": "address",
          "name": "from",
          "type": "address"
        },
        {
          "indexed": true,
          "internalType": "address",
          "name": "to",
          "type": "address"
        },
        {
          "indexed": false,
          "internalType": "uint256",
          "name": "value",
          "type": "uint256"
        }
      ],
      "name": "Transfer",
      "type": "event"
    },
    {
      "inputs": [],
      "name": "DEFAULT_ADMIN_ROLE",
      "outputs": [
        {
          "internalType": "bytes32",
          "name": "",
          "type": "bytes32"
        }
      ],
      "stateMutability": "view",
      "type": "function"
    },
    {
      "inputs": [],
      "name": "MINTER_ROLE",
      "outputs": [
        {
          "internalType": "bytes32",
          "name": "",
          "type": "bytes32"
        }
      ],
      "stateMutability": "view",
      "type": "function"
    },
    {
      "inputs": [
        {
          "internalType": "address",
          "name": "owner",
          "type": "address"
        },
        {
          "internalType": "address",
          "name": "spender",
          "type": "address"
        }
      ],
      "name": "allowance",
      "outputs": [
        {
          "internalType": "uint256",
          "name": "",
          "type": "uint256"
        }
      ],
      "stateMutability": "view",
      "type": "function"
    },
    {
      "inputs": [
        {
          "internalType": "address",
          "name": "spender",
          "type": "address"
        },
        {
          "internalType": "uint256",
          "name": "amount",
          "type": "uint256"
        }
      ],
      "name": "approve",
      "outputs": [
        {
          "internalType": "bool",
          "name": "",
          "type": "bool"
        }
      ],
      "stateMutability": "nonpayable",
      "type": "function"
    },
    {
      "inputs": [
        {
          "internalType": "address",
          "name": "account",
          "type": "address"
        }
      ],
      "name": "balanceOf",
      "outputs": [
        {
          "internalType": "uint256",
          "name": "",
          "type": "uint256"
        }
      ],
      "stateMutability": "view",
      "type": "function"
    },
    {
      "inputs": [
        {
          "internalType": "uint256",
          "name": "amount",
          "type": "uint256"
        }
      ],
      "name": "burn",
      "outputs": [],
      "stateMutability": "nonpayable",
      "type": "function"
    },
    {
      "inputs": [
        {
          "internalType": "address",
          "name": "account",
          "type": "address"
        },
        {
          "internalType": "uint256",
          "name": "amount",
          "type": "uint256"
        }
      ],
      "name": "burnFrom",
      "outputs": [],
      "stateMutability": "nonpayable",
      "type": "function"
    },
    {
      "inputs": [],
      "name": "decimals",
      "outputs": [
        {
          "internalType": "uint8",
          "name": "",
          "type": "uint8"
        }
      ],
      "stateMutability": "view",
      "type": "function"
    },
    {
      "inputs": [
        {
          "internalType": "address",
          "name": "spender",
          "type": "address"
        },
        {
          "internalType": "uint256",
          "name": "subtractedValue",
          "type": "uint256"
        }
      ],
      "name": "decreaseAllowance",
      "outputs": [
        {
          "internalType": "bool",
          "name": "",
          "type": "bool"
        }
      ],
      "stateMutability": "nonpayable",
      "type": "function"
    },
    {
      "inputs": [
        {
          "internalType": "bytes32",
          "name": "role",
          "type": "bytes32"
        }
      ],
      "name": "getRoleAdmin",
      "outputs": [
        {
          "internalType": "bytes32",
          "name": "",
          "type": "bytes32"
        }
      ],
      "stateMutability": "view",
      "type": "function"
    },
    {
      "inputs": [
        {
          "internalType": "bytes32",
          "name": "role",
          "type": "bytes32"
        },
        {
          "internalType": "uint256",
          "name": "index",
          "type": "uint256"
        }
      ],
      "name": "getRoleMember",
      "outputs": [
        {
          "internalType": "address",
          "name": "",
          "type": "address"
        }
      ],
      "stateMutability": "view",
      "type": "function"
    },
    {
      "inputs": [
        {
          "internalType": "bytes32",
          "name": "role",
          "type": "bytes32"
        }
      ],
      "name": "getRoleMemberCount",
      "outputs": [
        {
          "internalType": "uint256",
          "name": "",
          "type": "uint256"
        }
      ],
      "stateMutability": "view",
      "type": "function"
    },
    {
      "inputs": [
        {
          "internalType": "bytes32",
          "name": "role",
          "type": "bytes32"
        },
        {
          "internalType": "address",
          "name": "account",
          "type": "address"
        }
      ],
      "name": "grantRole",
      "outputs": [],
      "stateMutability": "nonpayable",
      "type": "function"
    },
    {
      "inputs": [
        {
          "internalType": "bytes32",
          "name": "role",
          "type": "bytes32"
        },
        {
          "internalType": "address",
          "name": "account",
          "type": "address"
        }
      ],
      "name": "hasRole",
      "outputs": [
        {
          "internalType": "bool",
          "name": "",
          "type": "bool"
        }
      ],
      "stateMutability": "view",
      "type": "function"
    },
    {
      "inputs": [
        {
          "internalType": "address",
          "name": "spender",
          "type": "address"
        },
        {
          "internalType": "uint256",
          "name": "addedValue",
          "type": "uint256"
        }
      ],
      "name": "increaseAllowance",
      "outputs": [
        {
          "internalType": "bool",
          "name": "",
          "type": "bool"
        }
      ],
      "stateMutability": "nonpayable",
      "type": "function"
    },
    {
      "inputs": [
        {
          "internalType": "address",
          "name": "account",
          "type": "address"
        },
        {
          "internalType": "uint256",
          "name": "value",
          "type": "uint256"
        }
      ],
      "name": "mint",
      "outputs": [],
      "stateMutability": "nonpayable",
      "type": "function"
    },
    {
      "inputs": [],
      "name": "name",
      "outputs": [
        {
          "internalType": "string",
          "name": "",
          "type": "string"
        }
      ],
      "stateMutability": "view",
      "type": "function"
    },
    {
      "inputs": [
        {
          "internalType": "bytes32",
          "name": "role",
          "type": "bytes32"
        },
        {
          "internalType": "address",
          "name": "account",
          "type": "address"
        }
      ],
      "name": "renounceRole",
      "outputs": [],
      "stateMutability": "nonpayable",
      "type": "function"
    },
    {
      "inputs": [
        {
          "internalType": "bytes32",
          "name": "role",
          "type": "bytes32"
        },
        {
          "internalType": "address",
          "name": "account",
          "type": "address"
        }
      ],
      "name": "revokeRole",
      "outputs": [],
      "stateMutability": "nonpayable",
      "type": "function"
    },
    {
      "inputs": [
        {
          "internalType": "bytes4",
          "name": "interfaceId",
          "type": "bytes4"
        }
      ],
      "name": "supportsInterface",
      "outputs": [
        {
          "internalType": "bool",
          "name": "",
          "type": "bool"
        }
      ],
      "stateMutability": "view",
      "type": "function"
    },
    {
      "inputs": [],
      "name": "symbol",
      "outputs": [
        {
          "internalType": "string",
          "name": "",
          "type": "string"
        }
      ],
      "stateMutability": "view",
      "type": "function"
    },
    {
      "inputs": [],
      "name": "totalSupply",
      "outputs": [
        {
          "internalType": "uint256",
          "name": "",
          "type": "uint256"
        }
      ],
      "stateMutability": "view",
      "type": "function"
    },
    {
      "inputs": [
        {
          "internalType": "address",
          "name": "recipient",
          "type": "address"
        },
        {
          "internalType": "uint256",
          "name": "amount",
          "type": "uint256"
        }
      ],
      "name": "transfer",
      "outputs": [
        {
          "internalType": "bool",
          "name": "",
          "type": "bool"
        }
      ],
      "stateMutability": "nonpayable",
      "type": "function"
    },
    {
      "inputs": [
        {
          "internalType": "address",
          "name": "sender",
          "type": "address"
        },
        {
          "internalType": "address",
          "name": "recipient",
          "type": "address"
        },
        {
          "internalType": "uint256",
          "name": "amount",
          "type": "uint256"
        }
      ],
      "name": "transferFrom",
      "outputs": [
        {
          "internalType": "bool",
          "name": "",
          "type": "bool"
        }
      ],
      "stateMutability": "nonpayable",
      "type": "function"
    }
  ],
  "bytecode": "0x60806040523480156200001157600080fd5b50604051620022bd380380620022bd833981016040819052620000349162000812565b600054610100900460ff16806200004e575060005460ff16155b620000a65760405162461bcd60e51b815260206004820152602e60248201526000805160206200227d83398151915260448201526d191e481a5b9a5d1a585b1a5e995960921b60648201526084015b60405180910390fd5b600054610100900460ff16158015620000c9576000805461ffff19166101011790555b620000de6200015c60201b620007d31760201c565b620000f583836200022b60201b6200085e1760201c565b6200010a620002ea60201b620008dd1760201c565b620001256000805160206200229d8339815191528062000384565b620001406000805160206200229d83398151915233620003d8565b801562000153576000805461ff00191690555b505050620008cf565b600054610100900460ff168062000176575060005460ff16155b620001ca5760405162461bcd60e51b815260206004820152602e60248201526000805160206200227d83398151915260448201526d191e481a5b9a5d1a585b1a5e995960921b60648201526084016200009d565b600054610100900460ff16158015620001ed576000805461ffff19166101011790555b620001f762000416565b6200020162000416565b6200020b62000416565b6200021562000416565b801562000228576000805461ff00191690555b50565b600054610100900460ff168062000245575060005460ff16155b620002995760405162461bcd60e51b815260206004820152602e60248201526000805160206200227d83398151915260448201526d191e481a5b9a5d1a585b1a5e995960921b60648201526084016200009d565b600054610100900460ff16158015620002bc576000805461ffff19166101011790555b620002c662000416565b620002d28383620004bb565b8015620002e5576000805461ff00191690555b505050565b600054610100900460ff168062000304575060005460ff16155b620003585760405162461bcd60e51b815260206004820152602e60248201526000805160206200227d83398151915260448201526d191e481a5b9a5d1a585b1a5e995960921b60648201526084016200009d565b600054610100900460ff1615801562000201576000805461ffff19166101011790556200020b62000416565b600082815260656020526040902060010154819060405184907fbd79b86ffe0ab8e8776151514217cd7cacd52c909f66475c3af44e129f0b00ff90600090a460009182526065602052604090912060010155565b620003ef82826200058f60201b6200093b1760201c565b6000828152609760209081526040909120620002e5918390620009456200059f821b17901c565b600054610100900460ff168062000430575060005460ff16155b620004845760405162461bcd60e51b815260206004820152602e60248201526000805160206200227d83398151915260448201526d191e481a5b9a5d1a585b1a5e995960921b60648201526084016200009d565b600054610100900460ff1615801562000215576000805461ffff1916610101179055801562000228576000805461ff001916905550565b600054610100900460ff1680620004d5575060005460ff16155b620005295760405162461bcd60e51b815260206004820152602e60248201526000805160206200227d83398151915260448201526d191e481a5b9a5d1a585b1a5e995960921b60648201526084016200009d565b600054610100900460ff161580156200054c576000805461ffff19166101011790555b8251620005619060cc906020860190620006b5565b508151620005779060cd906020850190620006b5565b508015620002e5576000805461ff0019169055505050565b6200059b8282620005bf565b5050565b6000620005b6836001600160a01b03841662000663565b90505b92915050565b60008281526065602090815260408083206001600160a01b038516845290915290205460ff166200059b5760008281526065602090815260408083206001600160a01b03851684529091529020805460ff191660011790556200061f3390565b6001600160a01b0316816001600160a01b0316837f2f8788117e7eff1d82e926ec794901d17c78024a50270940304540a733656f0d60405160405180910390a45050565b6000818152600183016020526040812054620006ac57508154600181810184556000848152602080822090930184905584548482528286019093526040902091909155620005b9565b506000620005b9565b828054620006c3906200087c565b90600052602060002090601f016020900481019282620006e7576000855562000732565b82601f106200070257805160ff191683800117855562000732565b8280016001018555821562000732579182015b828111156200073257825182559160200191906001019062000715565b506200074092915062000744565b5090565b5b8082111562000740576000815560010162000745565b600082601f8301126200076d57600080fd5b81516001600160401b03808211156200078a576200078a620008b9565b604051601f8301601f19908116603f01168101908282118183101715620007b557620007b5620008b9565b81604052838152602092508683858801011115620007d257600080fd5b600091505b83821015620007f65785820183015181830184015290820190620007d7565b83821115620008085760008385830101525b9695505050505050565b600080604083850312156200082657600080fd5b82516001600160401b03808211156200083e57600080fd5b6200084c868387016200075b565b935060208501519150808211156200086357600080fd5b5062000872858286016200075b565b9150509250929050565b600181811c908216806200089157607f821691505b60208210811415620008b357634e487b7160e01b600052602260045260246000fd5b50919050565b634e487b7160e01b600052604160045260246000fd5b61199e80620008df6000396000f3fe608060405234801561001057600080fd5b50600436106101585760003560e01c806370a08231116100c3578063a457c2d71161007c578063a457c2d7146102ef578063a9059cbb14610302578063ca15c87314610315578063d539139314610328578063d547741f1461034f578063dd62ed3e1461036257600080fd5b806370a082311461026557806379cc67901461028e5780639010d07c146102a157806391d14854146102cc57806395d89b41146102df578063a217fddf146102e757600080fd5b80632f2ff15d116101155780632f2ff15d146101f5578063313ce5671461020a57806336568abe14610219578063395093511461022c57806340c10f191461023f57806342966c681461025257600080fd5b806301ffc9a71461015d57806306fdde0314610185578063095ea7b31461019a57806318160ddd146101ad57806323b872dd146101bf578063248a9ca3146101d2575b600080fd5b61017061016b366004611720565b61039b565b60405190151581526020015b60405180910390f35b61018d6103c6565b60405161017c91906117bf565b6101706101a8366004611698565b610458565b60cb545b60405190815260200161017c565b6101706101cd36600461165c565b61046e565b6101b16101e03660046116c2565b60009081526065602052604090206001015490565b6102086102033660046116db565b610524565b005b6040516012815260200161017c565b6102086102273660046116db565b61054b565b61017061023a366004611698565b61056d565b61020861024d366004611698565b6105a4565b6102086102603660046116c2565b610621565b6101b161027336600461160e565b6001600160a01b0316600090815260c9602052604090205490565b61020861029c366004611698565b61062e565b6102b46102af3660046116fe565b6106b1565b6040516001600160a01b03909116815260200161017c565b6101706102da3660046116db565b6106d0565b61018d6106fb565b6101b1600081565b6101706102fd366004611698565b61070a565b610170610310366004611698565b6107a5565b6101b16103233660046116c2565b6107b2565b6101b17f9f2df0fed2c77648de5860a4cc508cd0818c85b8b8a1ab4ceeef8d981c8956a681565b61020861035d3660046116db565b6107c9565b6101b1610370366004611629565b6001600160a01b03918216600090815260ca6020908152604080832093909416825291909152205490565b60006001600160e01b03198216635a05180f60e01b14806103c057506103c08261095a565b92915050565b606060cc80546103d5906118d5565b80601f0160208091040260200160405190810160405280929190818152602001828054610401906118d5565b801561044e5780601f106104235761010080835404028352916020019161044e565b820191906000526020600020905b81548152906001019060200180831161043157829003601f168201915b5050505050905090565b600061046533848461098f565b50600192915050565b600061047b848484610ab4565b6001600160a01b038416600090815260ca60209081526040808320338452909152902054828110156105055760405162461bcd60e51b815260206004820152602860248201527f45524332303a207472616e7366657220616d6f756e74206578636565647320616044820152676c6c6f77616e636560c01b60648201526084015b60405180910390fd5b61051985336105148685611877565b61098f565b506001949350505050565b61052e8282610c8c565b60008281526097602052604090206105469082610945565b505050565b6105558282610cb2565b60008281526097602052604090206105469082610d2c565b33600081815260ca602090815260408083206001600160a01b03871684529091528120549091610465918590610514908690611840565b6105ce7f9f2df0fed2c77648de5860a4cc508cd0818c85b8b8a1ab4ceeef8d981c8956a6336106d0565b6106135760405162461bcd60e51b815260206004820152601660248201527529b2b73232b91034b9903737ba10309026b4b73a32b960511b60448201526064016104fc565b61061d8282610d41565b5050565b61062b3382610e20565b50565b600061063a8333610370565b9050818110156106985760405162461bcd60e51b8152602060048201526024808201527f45524332303a206275726e20616d6f756e74206578636565647320616c6c6f77604482015263616e636560e01b60648201526084016104fc565b6106a783336105148585611877565b6105468383610e20565b60008281526097602052604081206106c99083610f6f565b9392505050565b60009182526065602090815260408084206001600160a01b0393909316845291905290205460ff1690565b606060cd80546103d5906118d5565b33600090815260ca602090815260408083206001600160a01b03861684529091528120548281101561078c5760405162461bcd60e51b815260206004820152602560248201527f45524332303a2064656372656173656420616c6c6f77616e63652062656c6f77604482015264207a65726f60d81b60648201526084016104fc565b61079b33856105148685611877565b5060019392505050565b6000610465338484610ab4565b60008181526097602052604081206103c090610f7b565b6105558282610f85565b600054610100900460ff16806107ec575060005460ff16155b6108085760405162461bcd60e51b81526004016104fc906117f2565b600054610100900460ff1615801561082a576000805461ffff19166101011790555b610832610fab565b61083a610fab565b610842610fab565b61084a610fab565b801561062b576000805461ff001916905550565b600054610100900460ff1680610877575060005460ff16155b6108935760405162461bcd60e51b81526004016104fc906117f2565b600054610100900460ff161580156108b5576000805461ffff19166101011790555b6108bd610fab565b6108c78383611015565b8015610546576000805461ff0019169055505050565b600054610100900460ff16806108f6575060005460ff16155b6109125760405162461bcd60e51b81526004016104fc906117f2565b600054610100900460ff1615801561083a576000805461ffff1916610101179055610842610fab565b61061d82826110aa565b60006106c9836001600160a01b038416611130565b60006001600160e01b03198216637965db0b60e01b14806103c057506301ffc9a760e01b6001600160e01b03198316146103c0565b6001600160a01b0383166109f15760405162461bcd60e51b8152602060048201526024808201527f45524332303a20617070726f76652066726f6d20746865207a65726f206164646044820152637265737360e01b60648201526084016104fc565b6001600160a01b038216610a525760405162461bcd60e51b815260206004820152602260248201527f45524332303a20617070726f766520746f20746865207a65726f206164647265604482015261737360f01b60648201526084016104fc565b6001600160a01b03838116600081815260ca602090815260408083209487168084529482529182902085905590518481527f8c5be1e5ebec7d5bd14f71427d1e84f3dd0314c0f7b2291e5b200ac8c7c3b92591015b60405180910390a3505050565b6001600160a01b038316610b185760405162461bcd60e51b815260206004820152602560248201527f45524332303a207472616e736665722066726f6d20746865207a65726f206164604482015264647265737360d81b60648201526084016104fc565b6001600160a01b038216610b7a5760405162461bcd60e51b815260206004820152602360248201527f45524332303a207472616e7366657220746f20746865207a65726f206164647260448201526265737360e81b60648201526084016104fc565b6001600160a01b038316600090815260c9602052604090205481811015610bf25760405162461bcd60e51b815260206004820152602660248201527f45524332303a207472616e7366657220616d6f756e7420657863656564732062604482015265616c616e636560d01b60648201526084016104fc565b610bfc8282611877565b6001600160a01b03808616600090815260c960205260408082209390935590851681529081208054849290610c32908490611840565b92505081905550826001600160a01b0316846001600160a01b03167fddf252ad1be2c89b69c2b068fc378daa952ba7f163c4a11628f55a4df523b3ef84604051610c7e91815260200190565b60405180910390a350505050565b600082815260656020526040902060010154610ca8813361117f565b61054683836110aa565b6001600160a01b0381163314610d225760405162461bcd60e51b815260206004820152602f60248201527f416363657373436f6e74726f6c3a2063616e206f6e6c792072656e6f756e636560448201526e103937b632b9903337b91039b2b63360891b60648201526084016104fc565b61061d82826111e3565b60006106c9836001600160a01b03841661124a565b6001600160a01b038216610d975760405162461bcd60e51b815260206004820152601f60248201527f45524332303a206d696e7420746f20746865207a65726f20616464726573730060448201526064016104fc565b8060cb6000828254610da99190611840565b90915550506001600160a01b038216600090815260c9602052604081208054839290610dd6908490611840565b90915550506040518181526001600160a01b038316906000907fddf252ad1be2c89b69c2b068fc378daa952ba7f163c4a11628f55a4df523b3ef9060200160405180910390a35050565b6001600160a01b038216610e805760405162461bcd60e51b815260206004820152602160248201527f45524332303a206275726e2066726f6d20746865207a65726f206164647265736044820152607360f81b60648201526084016104fc565b6001600160a01b038216600090815260c9602052604090205481811015610ef45760405162461bcd60e51b815260206004820152602260248201527f45524332303a206275726e20616d6f756e7420657863656564732062616c616e604482015261636560f01b60648201526084016104fc565b610efe8282611877565b6001600160a01b038416600090815260c9602052604081209190915560cb8054849290610f2c908490611877565b90915550506040518281526000906001600160a01b038516907fddf252ad1be2c89b69c2b068fc378daa952ba7f163c4a11628f55a4df523b3ef90602001610aa7565b60006106c98383611337565b60006103c0825490565b600082815260656020526040902060010154610fa1813361117f565b61054683836111e3565b600054610100900460ff1680610fc4575060005460ff16155b610fe05760405162461bcd60e51b81526004016104fc906117f2565b600054610100900460ff1615801561084a576000805461ffff1916610101179055801561062b576000805461ff001916905550565b600054610100900460ff168061102e575060005460ff16155b61104a5760405162461bcd60e51b81526004016104fc906117f2565b600054610100900460ff1615801561106c576000805461ffff19166101011790555b825161107f9060cc906020860190611559565b5081516110939060cd906020850190611559565b508015610546576000805461ff0019169055505050565b6110b482826106d0565b61061d5760008281526065602090815260408083206001600160a01b03851684529091529020805460ff191660011790556110ec3390565b6001600160a01b0316816001600160a01b0316837f2f8788117e7eff1d82e926ec794901d17c78024a50270940304540a733656f0d60405160405180910390a45050565b6000818152600183016020526040812054611177575081546001818101845560008481526020808220909301849055845484825282860190935260409020919091556103c0565b5060006103c0565b61118982826106d0565b61061d576111a1816001600160a01b031660146113bd565b6111ac8360206113bd565b6040516020016111bd92919061174a565b60408051601f198184030181529082905262461bcd60e51b82526104fc916004016117bf565b6111ed82826106d0565b1561061d5760008281526065602090815260408083206001600160a01b0385168085529252808320805460ff1916905551339285917ff6391f5c32d9c69d2a47ea670b442974b53935d1edc7fd64eb21e047a839171b9190a45050565b6000818152600183016020526040812054801561132d57600061126e600183611877565b855490915060009061128290600190611877565b9050600086600001828154811061129b5761129b61193c565b90600052602060002001549050808760000184815481106112be576112be61193c565b6000918252602080832090910192909255828152600189019091526040902084905586548790806112f1576112f1611926565b600190038181906000526020600020016000905590558660010160008781526020019081526020016000206000905560019450505050506103c0565b60009150506103c0565b815460009082106113955760405162461bcd60e51b815260206004820152602260248201527f456e756d657261626c655365743a20696e646578206f7574206f6620626f756e604482015261647360f01b60648201526084016104fc565b8260000182815481106113aa576113aa61193c565b9060005260206000200154905092915050565b606060006113cc836002611858565b6113d7906002611840565b67ffffffffffffffff8111156113ef576113ef611952565b6040519080825280601f01601f191660200182016040528015611419576020820181803683370190505b509050600360fc1b816000815181106114345761143461193c565b60200101906001600160f81b031916908160001a905350600f60fb1b816001815181106114635761146361193c565b60200101906001600160f81b031916908160001a9053506000611487846002611858565b611492906001611840565b90505b600181111561150a576f181899199a1a9b1b9c1cb0b131b232b360811b85600f16601081106114c6576114c661193c565b1a60f81b8282815181106114dc576114dc61193c565b60200101906001600160f81b031916908160001a90535060049490941c93611503816118be565b9050611495565b5083156106c95760405162461bcd60e51b815260206004820181905260248201527f537472696e67733a20686578206c656e67746820696e73756666696369656e7460448201526064016104fc565b828054611565906118d5565b90600052602060002090601f01602090048101928261158757600085556115cd565b82601f106115a057805160ff19168380011785556115cd565b828001600101855582156115cd579182015b828111156115cd5782518255916020019190600101906115b2565b506115d99291506115dd565b5090565b5b808211156115d957600081556001016115de565b80356001600160a01b038116811461160957600080fd5b919050565b60006020828403121561162057600080fd5b6106c9826115f2565b6000806040838503121561163c57600080fd5b611645836115f2565b9150611653602084016115f2565b90509250929050565b60008060006060848603121561167157600080fd5b61167a846115f2565b9250611688602085016115f2565b9150604084013590509250925092565b600080604083850312156116ab57600080fd5b6116b4836115f2565b946020939093013593505050565b6000602082840312156116d457600080fd5b5035919050565b600080604083850312156116ee57600080fd5b82359150611653602084016115f2565b6000806040838503121561171157600080fd5b50508035926020909101359150565b60006020828403121561173257600080fd5b81356001600160e01b0319811681146106c957600080fd5b7f416363657373436f6e74726f6c3a206163636f756e742000000000000000000081526000835161178281601785016020880161188e565b7001034b99036b4b9b9b4b733903937b6329607d1b60179184019182015283516117b381602884016020880161188e565b01602801949350505050565b60208152600082518060208401526117de81604085016020870161188e565b601f01601f19169190910160400192915050565b6020808252602e908201527f496e697469616c697a61626c653a20636f6e747261637420697320616c72656160408201526d191e481a5b9a5d1a585b1a5e995960921b606082015260800190565b6000821982111561185357611853611910565b500190565b600081600019048311821515161561187257611872611910565b500290565b60008282101561188957611889611910565b500390565b60005b838110156118a9578181015183820152602001611891565b838111156118b8576000848401525b50505050565b6000816118cd576118cd611910565b506000190190565b600181811c908216806118e957607f821691505b6020821081141561190a57634e487b7160e01b600052602260045260246000fd5b50919050565b634e487b7160e01b600052601160045260246000fd5b634e487b7160e01b600052603160045260246000fd5b634e487b7160e01b600052603260045260246000fd5b634e487b7160e01b600052604160045260246000fdfea2646970667358221220ccd9ec13a01469598fa31c45fc7ed1a64f94d8ccb956bb8e3877d066ddfaabb864736f6c63430008060033496e697469616c697a61626c653a20636f6e747261637420697320616c7265619f2df0fed2c77648de5860a4cc508cd0818c85b8b8a1ab4ceeef8d981c8956a6",
  "linkReferences": {},
  "deployedLinkReferences": {}
}