{
  "_format": "hh-sol-artifact-1",
  "contractName": "EthErc20",
  "sourceName": "contracts/schain/tokens/EthErc20.sol",
  "abi": [
    {
      "anonymous": false,
      "inputs": [
        {
          "indexed": true,
          "internalType": "address",
          "name": "owner",
          "type": "address"
        },
        {
          "indexed": true,
          "internalType": "address",
          "name": "spender",
          "type": "address"
        },
        {
          "indexed": false,
          "internalType": "uint256",
          "name": "value",
          "type": "uint256"
        }
      ],
      "name": "Approval",
      "type": "event"
    },
    {
      "anonymous": false,
      "inputs": [
        {
          "indexed": true,
          "internalType": "bytes32",
          "name": "role",
          "type": "bytes32"
        },
        {
          "indexed": true,
          "internalType": "bytes32",
          "name": "previousAdminRole",
          "type": "bytes32"
        },
        {
          "indexed": true,
          "internalType": "bytes32",
          "name": "newAdminRole",
          "type": "bytes32"
        }
      ],
      "name": "RoleAdminChanged",
      "type": "event"
    },
    {
      "anonymous": false,
      "inputs": [
        {
          "indexed": true,
          "internalType": "bytes32",
          "name": "role",
          "type": "bytes32"
        },
        {
          "indexed": true,
          "internalType": "address",
          "name": "account",
          "type": "address"
        },
        {
          "indexed": true,
          "internalType": "address",
          "name": "sender",
          "type": "address"
        }
      ],
      "name": "RoleGranted",
      "type": "event"
    },
    {
      "anonymous": false,
      "inputs": [
        {
          "indexed": true,
          "internalType": "bytes32",
          "name": "role",
          "type": "bytes32"
        },
        {
          "indexed": true,
          "internalType": "address",
          "name": "account",
          "type": "address"
        },
        {
          "indexed": true,
          "internalType": "address",
          "name": "sender",
          "type": "address"
        }
      ],
      "name": "RoleRevoked",
      "type": "event"
    },
    {
      "anonymous": false,
      "inputs": [
        {
          "indexed": true,
          "internalType": "address",
          "name": "from",
          "type": "address"
        },
        {
          "indexed": true,
          "internalType": "address",
          "name": "to",
          "type": "address"
        },
        {
          "indexed": false,
          "internalType": "uint256",
          "name": "value",
          "type": "uint256"
        }
      ],
      "name": "Transfer",
      "type": "event"
    },
    {
      "inputs": [],
      "name": "BURNER_ROLE",
      "outputs": [
        {
          "internalType": "bytes32",
          "name": "",
          "type": "bytes32"
        }
      ],
      "stateMutability": "view",
      "type": "function"
    },
    {
      "inputs": [],
      "name": "DEFAULT_ADMIN_ROLE",
      "outputs": [
        {
          "internalType": "bytes32",
          "name": "",
          "type": "bytes32"
        }
      ],
      "stateMutability": "view",
      "type": "function"
    },
    {
      "inputs": [],
      "name": "MINTER_ROLE",
      "outputs": [
        {
          "internalType": "bytes32",
          "name": "",
          "type": "bytes32"
        }
      ],
      "stateMutability": "view",
      "type": "function"
    },
    {
      "inputs": [
        {
          "internalType": "address",
          "name": "owner",
          "type": "address"
        },
        {
          "internalType": "address",
          "name": "spender",
          "type": "address"
        }
      ],
      "name": "allowance",
      "outputs": [
        {
          "internalType": "uint256",
          "name": "",
          "type": "uint256"
        }
      ],
      "stateMutability": "view",
      "type": "function"
    },
    {
      "inputs": [
        {
          "internalType": "address",
          "name": "spender",
          "type": "address"
        },
        {
          "internalType": "uint256",
          "name": "amount",
          "type": "uint256"
        }
      ],
      "name": "approve",
      "outputs": [
        {
          "internalType": "bool",
          "name": "",
          "type": "bool"
        }
      ],
      "stateMutability": "nonpayable",
      "type": "function"
    },
    {
      "inputs": [
        {
          "internalType": "address",
          "name": "account",
          "type": "address"
        }
      ],
      "name": "balanceOf",
      "outputs": [
        {
          "internalType": "uint256",
          "name": "",
          "type": "uint256"
        }
      ],
      "stateMutability": "view",
      "type": "function"
    },
    {
      "inputs": [
        {
          "internalType": "uint256",
          "name": "amount",
          "type": "uint256"
        }
      ],
      "name": "burn",
      "outputs": [],
      "stateMutability": "nonpayable",
      "type": "function"
    },
    {
      "inputs": [
        {
          "internalType": "address",
          "name": "account",
          "type": "address"
        },
        {
          "internalType": "uint256",
          "name": "amount",
          "type": "uint256"
        }
      ],
      "name": "burnFrom",
      "outputs": [],
      "stateMutability": "nonpayable",
      "type": "function"
    },
    {
      "inputs": [],
      "name": "decimals",
      "outputs": [
        {
          "internalType": "uint8",
          "name": "",
          "type": "uint8"
        }
      ],
      "stateMutability": "view",
      "type": "function"
    },
    {
      "inputs": [
        {
          "internalType": "address",
          "name": "spender",
          "type": "address"
        },
        {
          "internalType": "uint256",
          "name": "subtractedValue",
          "type": "uint256"
        }
      ],
      "name": "decreaseAllowance",
      "outputs": [
        {
          "internalType": "bool",
          "name": "",
          "type": "bool"
        }
      ],
      "stateMutability": "nonpayable",
      "type": "function"
    },
    {
      "inputs": [
        {
          "internalType": "address",
          "name": "account",
          "type": "address"
        },
        {
          "internalType": "uint256",
          "name": "amount",
          "type": "uint256"
        }
      ],
      "name": "forceBurn",
      "outputs": [],
      "stateMutability": "nonpayable",
      "type": "function"
    },
    {
      "inputs": [
        {
          "internalType": "bytes32",
          "name": "role",
          "type": "bytes32"
        }
      ],
      "name": "getRoleAdmin",
      "outputs": [
        {
          "internalType": "bytes32",
          "name": "",
          "type": "bytes32"
        }
      ],
      "stateMutability": "view",
      "type": "function"
    },
    {
      "inputs": [
        {
          "internalType": "bytes32",
          "name": "role",
          "type": "bytes32"
        },
        {
          "internalType": "uint256",
          "name": "index",
          "type": "uint256"
        }
      ],
      "name": "getRoleMember",
      "outputs": [
        {
          "internalType": "address",
          "name": "",
          "type": "address"
        }
      ],
      "stateMutability": "view",
      "type": "function"
    },
    {
      "inputs": [
        {
          "internalType": "bytes32",
          "name": "role",
          "type": "bytes32"
        }
      ],
      "name": "getRoleMemberCount",
      "outputs": [
        {
          "internalType": "uint256",
          "name": "",
          "type": "uint256"
        }
      ],
      "stateMutability": "view",
      "type": "function"
    },
    {
      "inputs": [
        {
          "internalType": "bytes32",
          "name": "role",
          "type": "bytes32"
        },
        {
          "internalType": "address",
          "name": "account",
          "type": "address"
        }
      ],
      "name": "grantRole",
      "outputs": [],
      "stateMutability": "nonpayable",
      "type": "function"
    },
    {
      "inputs": [
        {
          "internalType": "bytes32",
          "name": "role",
          "type": "bytes32"
        },
        {
          "internalType": "address",
          "name": "account",
          "type": "address"
        }
      ],
      "name": "hasRole",
      "outputs": [
        {
          "internalType": "bool",
          "name": "",
          "type": "bool"
        }
      ],
      "stateMutability": "view",
      "type": "function"
    },
    {
      "inputs": [
        {
          "internalType": "address",
          "name": "spender",
          "type": "address"
        },
        {
          "internalType": "uint256",
          "name": "addedValue",
          "type": "uint256"
        }
      ],
      "name": "increaseAllowance",
      "outputs": [
        {
          "internalType": "bool",
          "name": "",
          "type": "bool"
        }
      ],
      "stateMutability": "nonpayable",
      "type": "function"
    },
    {
      "inputs": [
        {
          "internalType": "address",
          "name": "tokenManagerEthAddress",
          "type": "address"
        }
      ],
      "name": "initialize",
      "outputs": [],
      "stateMutability": "nonpayable",
      "type": "function"
    },
    {
      "inputs": [
        {
          "internalType": "address",
          "name": "account",
          "type": "address"
        },
        {
          "internalType": "uint256",
          "name": "amount",
          "type": "uint256"
        }
      ],
      "name": "mint",
      "outputs": [],
      "stateMutability": "nonpayable",
      "type": "function"
    },
    {
      "inputs": [],
      "name": "name",
      "outputs": [
        {
          "internalType": "string",
          "name": "",
          "type": "string"
        }
      ],
      "stateMutability": "view",
      "type": "function"
    },
    {
      "inputs": [
        {
          "internalType": "bytes32",
          "name": "role",
          "type": "bytes32"
        },
        {
          "internalType": "address",
          "name": "account",
          "type": "address"
        }
      ],
      "name": "renounceRole",
      "outputs": [],
      "stateMutability": "nonpayable",
      "type": "function"
    },
    {
      "inputs": [
        {
          "internalType": "bytes32",
          "name": "role",
          "type": "bytes32"
        },
        {
          "internalType": "address",
          "name": "account",
          "type": "address"
        }
      ],
      "name": "revokeRole",
      "outputs": [],
      "stateMutability": "nonpayable",
      "type": "function"
    },
    {
      "inputs": [
        {
          "internalType": "bytes4",
          "name": "interfaceId",
          "type": "bytes4"
        }
      ],
      "name": "supportsInterface",
      "outputs": [
        {
          "internalType": "bool",
          "name": "",
          "type": "bool"
        }
      ],
      "stateMutability": "view",
      "type": "function"
    },
    {
      "inputs": [],
      "name": "symbol",
      "outputs": [
        {
          "internalType": "string",
          "name": "",
          "type": "string"
        }
      ],
      "stateMutability": "view",
      "type": "function"
    },
    {
      "inputs": [],
      "name": "totalSupply",
      "outputs": [
        {
          "internalType": "uint256",
          "name": "",
          "type": "uint256"
        }
      ],
      "stateMutability": "view",
      "type": "function"
    },
    {
      "inputs": [
        {
          "internalType": "address",
          "name": "recipient",
          "type": "address"
        },
        {
          "internalType": "uint256",
          "name": "amount",
          "type": "uint256"
        }
      ],
      "name": "transfer",
      "outputs": [
        {
          "internalType": "bool",
          "name": "",
          "type": "bool"
        }
      ],
      "stateMutability": "nonpayable",
      "type": "function"
    },
    {
      "inputs": [
        {
          "internalType": "address",
          "name": "sender",
          "type": "address"
        },
        {
          "internalType": "address",
          "name": "recipient",
          "type": "address"
        },
        {
          "internalType": "uint256",
          "name": "amount",
          "type": "uint256"
        }
      ],
      "name": "transferFrom",
      "outputs": [
        {
          "internalType": "bool",
          "name": "",
          "type": "bool"
        }
      ],
      "stateMutability": "nonpayable",
      "type": "function"
    }
  ],
  "bytecode": "0x608060405234801561001057600080fd5b50611bf7806100206000396000f3fe608060405234801561001057600080fd5b50600436106101a95760003560e01c806370a08231116100f9578063a9059cbb11610097578063d539139311610071578063d5391393146103b3578063d547741f146103da578063dd62ed3e146103ed578063e2d6f6341461042657600080fd5b8063a9059cbb1461037a578063c4d66de81461038d578063ca15c873146103a057600080fd5b806391d14854116100d357806391d148541461034457806395d89b4114610357578063a217fddf1461035f578063a457c2d71461036757600080fd5b806370a08231146102dd57806379cc6790146103065780639010d07c1461031957600080fd5b8063282c51f31161016657806336568abe1161014057806336568abe1461029157806339509351146102a457806340c10f19146102b757806342966c68146102ca57600080fd5b8063282c51f3146102465780632f2ff15d1461026d578063313ce5671461028257600080fd5b806301ffc9a7146101ae57806306fdde03146101d6578063095ea7b3146101eb57806318160ddd146101fe57806323b872dd14610210578063248a9ca314610223575b600080fd5b6101c16101bc366004611979565b610439565b60405190151581526020015b60405180910390f35b6101de610464565b6040516101cd9190611a18565b6101c16101f93660046118f1565b6104f6565b60cb545b6040519081526020016101cd565b6101c161021e3660046118b5565b61050c565b61020261023136600461191b565b60009081526065602052604090206001015490565b6102027f3c11d16cbaffd01df69ce1c404f6340ee057498f5f00246190ea54220576a84881565b61028061027b366004611934565b6105c2565b005b604051601281526020016101cd565b61028061029f366004611934565b6105e9565b6101c16102b23660046118f1565b61060b565b6102806102c53660046118f1565b610642565b6102806102d836600461191b565b6106c6565b6102026102eb366004611867565b6001600160a01b0316600090815260c9602052604090205490565b6102806103143660046118f1565b6106d3565b61032c610327366004611957565b610756565b6040516001600160a01b0390911681526020016101cd565b6101c1610352366004611934565b610775565b6101de6107a0565b610202600081565b6101c16103753660046118f1565b6107af565b6101c16103883660046118f1565b61084a565b61028061039b366004611867565b610857565b6102026103ae36600461191b565b610981565b6102027f9f2df0fed2c77648de5860a4cc508cd0818c85b8b8a1ab4ceeef8d981c8956a681565b6102806103e8366004611934565b610998565b6102026103fb366004611882565b6001600160a01b03918216600090815260ca6020908152604080832093909416825291909152205490565b6102806104343660046118f1565b6109a2565b60006001600160e01b03198216635a05180f60e01b148061045e575061045e82610a22565b92915050565b606060cc805461047390611b2e565b80601f016020809104026020016040519081016040528092919081815260200182805461049f90611b2e565b80156104ec5780601f106104c1576101008083540402835291602001916104ec565b820191906000526020600020905b8154815290600101906020018083116104cf57829003601f168201915b5050505050905090565b6000610503338484610a57565b50600192915050565b6000610519848484610b7c565b6001600160a01b038416600090815260ca60209081526040808320338452909152902054828110156105a35760405162461bcd60e51b815260206004820152602860248201527f45524332303a207472616e7366657220616d6f756e74206578636565647320616044820152676c6c6f77616e636560c01b60648201526084015b60405180910390fd5b6105b785336105b28685611ad0565b610a57565b506001949350505050565b6105cc8282610d54565b60008281526097602052604090206105e49082610d7a565b505050565b6105f38282610d8f565b60008281526097602052604090206105e49082610e09565b33600081815260ca602090815260408083206001600160a01b038716845290915281205490916105039185906105b2908690611a99565b61066c7f9f2df0fed2c77648de5860a4cc508cd0818c85b8b8a1ab4ceeef8d981c8956a633610775565b6106b85760405162461bcd60e51b815260206004820152601760248201527f4d494e54455220726f6c65206973207265717569726564000000000000000000604482015260640161059a565b6106c28282610e1e565b5050565b6106d03382610efd565b50565b60006106df83336103fb565b90508181101561073d5760405162461bcd60e51b8152602060048201526024808201527f45524332303a206275726e20616d6f756e74206578636565647320616c6c6f77604482015263616e636560e01b606482015260840161059a565b61074c83336105b28585611ad0565b6105e48383610efd565b600082815260976020526040812061076e908361104c565b9392505050565b60009182526065602090815260408084206001600160a01b0393909316845291905290205460ff1690565b606060cd805461047390611b2e565b33600090815260ca602090815260408083206001600160a01b0386168452909152812054828110156108315760405162461bcd60e51b815260206004820152602560248201527f45524332303a2064656372656173656420616c6c6f77616e63652062656c6f77604482015264207a65726f60d81b606482015260840161059a565b61084033856105b28685611ad0565b5060019392505050565b6000610503338484610b7c565b600054610100900460ff1680610870575060005460ff16155b61088c5760405162461bcd60e51b815260040161059a90611a4b565b600054610100900460ff161580156108ae576000805461ffff19166101011790555b6108b6611058565b61090560405180604001604052806011815260200170455243323020457468657220436c6f6e6560781b815250604051806040016040528060048152602001634554484360e01b8152506110e3565b61090d611162565b6109186000336111c0565b6109427f9f2df0fed2c77648de5860a4cc508cd0818c85b8b8a1ab4ceeef8d981c8956a6836111c0565b61096c7f3c11d16cbaffd01df69ce1c404f6340ee057498f5f00246190ea54220576a848836111c0565b80156106c2576000805461ff00191690555050565b600081815260976020526040812061045e906111ca565b6105f382826111d4565b6109cc7f3c11d16cbaffd01df69ce1c404f6340ee057498f5f00246190ea54220576a84833610775565b610a185760405162461bcd60e51b815260206004820152601760248201527f4255524e455220726f6c65206973207265717569726564000000000000000000604482015260640161059a565b6106c28282610efd565b60006001600160e01b03198216637965db0b60e01b148061045e57506301ffc9a760e01b6001600160e01b031983161461045e565b6001600160a01b038316610ab95760405162461bcd60e51b8152602060048201526024808201527f45524332303a20617070726f76652066726f6d20746865207a65726f206164646044820152637265737360e01b606482015260840161059a565b6001600160a01b038216610b1a5760405162461bcd60e51b815260206004820152602260248201527f45524332303a20617070726f766520746f20746865207a65726f206164647265604482015261737360f01b606482015260840161059a565b6001600160a01b03838116600081815260ca602090815260408083209487168084529482529182902085905590518481527f8c5be1e5ebec7d5bd14f71427d1e84f3dd0314c0f7b2291e5b200ac8c7c3b92591015b60405180910390a3505050565b6001600160a01b038316610be05760405162461bcd60e51b815260206004820152602560248201527f45524332303a207472616e736665722066726f6d20746865207a65726f206164604482015264647265737360d81b606482015260840161059a565b6001600160a01b038216610c425760405162461bcd60e51b815260206004820152602360248201527f45524332303a207472616e7366657220746f20746865207a65726f206164647260448201526265737360e81b606482015260840161059a565b6001600160a01b038316600090815260c9602052604090205481811015610cba5760405162461bcd60e51b815260206004820152602660248201527f45524332303a207472616e7366657220616d6f756e7420657863656564732062604482015265616c616e636560d01b606482015260840161059a565b610cc48282611ad0565b6001600160a01b03808616600090815260c960205260408082209390935590851681529081208054849290610cfa908490611a99565b92505081905550826001600160a01b0316846001600160a01b03167fddf252ad1be2c89b69c2b068fc378daa952ba7f163c4a11628f55a4df523b3ef84604051610d4691815260200190565b60405180910390a350505050565b600082815260656020526040902060010154610d7081336111fa565b6105e4838361125e565b600061076e836001600160a01b0384166112e4565b6001600160a01b0381163314610dff5760405162461bcd60e51b815260206004820152602f60248201527f416363657373436f6e74726f6c3a2063616e206f6e6c792072656e6f756e636560448201526e103937b632b9903337b91039b2b63360891b606482015260840161059a565b6106c28282611333565b600061076e836001600160a01b03841661139a565b6001600160a01b038216610e745760405162461bcd60e51b815260206004820152601f60248201527f45524332303a206d696e7420746f20746865207a65726f206164647265737300604482015260640161059a565b8060cb6000828254610e869190611a99565b90915550506001600160a01b038216600090815260c9602052604081208054839290610eb3908490611a99565b90915550506040518181526001600160a01b038316906000907fddf252ad1be2c89b69c2b068fc378daa952ba7f163c4a11628f55a4df523b3ef9060200160405180910390a35050565b6001600160a01b038216610f5d5760405162461bcd60e51b815260206004820152602160248201527f45524332303a206275726e2066726f6d20746865207a65726f206164647265736044820152607360f81b606482015260840161059a565b6001600160a01b038216600090815260c9602052604090205481811015610fd15760405162461bcd60e51b815260206004820152602260248201527f45524332303a206275726e20616d6f756e7420657863656564732062616c616e604482015261636560f01b606482015260840161059a565b610fdb8282611ad0565b6001600160a01b038416600090815260c9602052604081209190915560cb8054849290611009908490611ad0565b90915550506040518281526000906001600160a01b038516907fddf252ad1be2c89b69c2b068fc378daa952ba7f163c4a11628f55a4df523b3ef90602001610b6f565b600061076e8383611487565b600054610100900460ff1680611071575060005460ff16155b61108d5760405162461bcd60e51b815260040161059a90611a4b565b600054610100900460ff161580156110af576000805461ffff19166101011790555b6110b761150d565b6110bf61150d565b6110c761150d565b6110cf61150d565b80156106d0576000805461ff001916905550565b600054610100900460ff16806110fc575060005460ff16155b6111185760405162461bcd60e51b815260040161059a90611a4b565b600054610100900460ff1615801561113a576000805461ffff19166101011790555b61114261150d565b61114c8383611577565b80156105e4576000805461ff0019169055505050565b600054610100900460ff168061117b575060005460ff16155b6111975760405162461bcd60e51b815260040161059a90611a4b565b600054610100900460ff161580156110bf576000805461ffff19166101011790556110c761150d565b6105cc828261160c565b600061045e825490565b6000828152606560205260409020600101546111f081336111fa565b6105e48383611333565b6112048282610775565b6106c25761121c816001600160a01b03166014611616565b611227836020611616565b6040516020016112389291906119a3565b60408051601f198184030181529082905262461bcd60e51b825261059a91600401611a18565b6112688282610775565b6106c25760008281526065602090815260408083206001600160a01b03851684529091529020805460ff191660011790556112a03390565b6001600160a01b0316816001600160a01b0316837f2f8788117e7eff1d82e926ec794901d17c78024a50270940304540a733656f0d60405160405180910390a45050565b600081815260018301602052604081205461132b5750815460018181018455600084815260208082209093018490558454848252828601909352604090209190915561045e565b50600061045e565b61133d8282610775565b156106c25760008281526065602090815260408083206001600160a01b0385168085529252808320805460ff1916905551339285917ff6391f5c32d9c69d2a47ea670b442974b53935d1edc7fd64eb21e047a839171b9190a45050565b6000818152600183016020526040812054801561147d5760006113be600183611ad0565b85549091506000906113d290600190611ad0565b905060008660000182815481106113eb576113eb611b95565b906000526020600020015490508087600001848154811061140e5761140e611b95565b60009182526020808320909101929092558281526001890190915260409020849055865487908061144157611441611b7f565b6001900381819060005260206000200160009055905586600101600087815260200190815260200160002060009055600194505050505061045e565b600091505061045e565b815460009082106114e55760405162461bcd60e51b815260206004820152602260248201527f456e756d657261626c655365743a20696e646578206f7574206f6620626f756e604482015261647360f01b606482015260840161059a565b8260000182815481106114fa576114fa611b95565b9060005260206000200154905092915050565b600054610100900460ff1680611526575060005460ff16155b6115425760405162461bcd60e51b815260040161059a90611a4b565b600054610100900460ff161580156110cf576000805461ffff191661010117905580156106d0576000805461ff001916905550565b600054610100900460ff1680611590575060005460ff16155b6115ac5760405162461bcd60e51b815260040161059a90611a4b565b600054610100900460ff161580156115ce576000805461ffff19166101011790555b82516115e19060cc9060208601906117b2565b5081516115f59060cd9060208501906117b2565b5080156105e4576000805461ff0019169055505050565b6106c2828261125e565b60606000611625836002611ab1565b611630906002611a99565b67ffffffffffffffff81111561164857611648611bab565b6040519080825280601f01601f191660200182016040528015611672576020820181803683370190505b509050600360fc1b8160008151811061168d5761168d611b95565b60200101906001600160f81b031916908160001a905350600f60fb1b816001815181106116bc576116bc611b95565b60200101906001600160f81b031916908160001a90535060006116e0846002611ab1565b6116eb906001611a99565b90505b6001811115611763576f181899199a1a9b1b9c1cb0b131b232b360811b85600f166010811061171f5761171f611b95565b1a60f81b82828151811061173557611735611b95565b60200101906001600160f81b031916908160001a90535060049490941c9361175c81611b17565b90506116ee565b50831561076e5760405162461bcd60e51b815260206004820181905260248201527f537472696e67733a20686578206c656e67746820696e73756666696369656e74604482015260640161059a565b8280546117be90611b2e565b90600052602060002090601f0160209004810192826117e05760008555611826565b82601f106117f957805160ff1916838001178555611826565b82800160010185558215611826579182015b8281111561182657825182559160200191906001019061180b565b50611832929150611836565b5090565b5b808211156118325760008155600101611837565b80356001600160a01b038116811461186257600080fd5b919050565b60006020828403121561187957600080fd5b61076e8261184b565b6000806040838503121561189557600080fd5b61189e8361184b565b91506118ac6020840161184b565b90509250929050565b6000806000606084860312156118ca57600080fd5b6118d38461184b565b92506118e16020850161184b565b9150604084013590509250925092565b6000806040838503121561190457600080fd5b61190d8361184b565b946020939093013593505050565b60006020828403121561192d57600080fd5b5035919050565b6000806040838503121561194757600080fd5b823591506118ac6020840161184b565b6000806040838503121561196a57600080fd5b50508035926020909101359150565b60006020828403121561198b57600080fd5b81356001600160e01b03198116811461076e57600080fd5b7f416363657373436f6e74726f6c3a206163636f756e74200000000000000000008152600083516119db816017850160208801611ae7565b7001034b99036b4b9b9b4b733903937b6329607d1b6017918401918201528351611a0c816028840160208801611ae7565b01602801949350505050565b6020815260008251806020840152611a37816040850160208701611ae7565b601f01601f19169190910160400192915050565b6020808252602e908201527f496e697469616c697a61626c653a20636f6e747261637420697320616c72656160408201526d191e481a5b9a5d1a585b1a5e995960921b606082015260800190565b60008219821115611aac57611aac611b69565b500190565b6000816000190483118215151615611acb57611acb611b69565b500290565b600082821015611ae257611ae2611b69565b500390565b60005b83811015611b02578181015183820152602001611aea565b83811115611b11576000848401525b50505050565b600081611b2657611b26611b69565b506000190190565b600181811c90821680611b4257607f821691505b60208210811415611b6357634e487b7160e01b600052602260045260246000fd5b50919050565b634e487b7160e01b600052601160045260246000fd5b634e487b7160e01b600052603160045260246000fd5b634e487b7160e01b600052603260045260246000fd5b634e487b7160e01b600052604160045260246000fdfea26469706673582212209e8ff18ef76a7a7eaa54921c33a5db1c422eeb940cb9b8b20d306864ebb113b264736f6c63430008060033",
  "linkReferences": {},
  "deployedLinkReferences": {}
}