{
  "_format": "hh-sol-artifact-1",
  "contractName": "TokenManagerERC721",
  "sourceName": "contracts/schain/TokenManagers/TokenManagerERC721.sol",
  "abi": [
    {
      "anonymous": false,
      "inputs": [
        {
          "indexed": false,
          "internalType": "address",
          "name": "oldValue",
          "type": "address"
        },
        {
          "indexed": false,
          "internalType": "address",
          "name": "newValue",
          "type": "address"
        }
      ],
      "name": "DepositBoxWasChanged",
      "type": "event"
    },
    {
      "anonymous": false,
      "inputs": [
        {
          "indexed": true,
          "internalType": "address",
          "name": "erc721OnMainnet",
          "type": "address"
        },
        {
          "indexed": true,
          "internalType": "address",
          "name": "erc721OnSchain",
          "type": "address"
        }
      ],
      "name": "ERC721TokenAdded",
      "type": "event"
    },
    {
      "anonymous": false,
      "inputs": [
        {
          "indexed": true,
          "internalType": "address",
          "name": "erc721OnMainnet",
          "type": "address"
        },
        {
          "indexed": true,
          "internalType": "address",
          "name": "erc721OnSchain",
          "type": "address"
        }
      ],
      "name": "ERC721TokenCreated",
      "type": "event"
    },
    {
      "anonymous": false,
      "inputs": [
        {
          "indexed": true,
          "internalType": "address",
          "name": "erc721OnMainnet",
          "type": "address"
        },
        {
          "indexed": true,
          "internalType": "address",
          "name": "erc721OnSchain",
          "type": "address"
        },
        {
          "indexed": false,
          "internalType": "uint256",
          "name": "tokenId",
          "type": "uint256"
        }
      ],
      "name": "ERC721TokenReceived",
      "type": "event"
    },
    {
      "anonymous": false,
      "inputs": [
        {
          "indexed": true,
          "internalType": "bytes32",
          "name": "role",
          "type": "bytes32"
        },
        {
          "indexed": true,
          "internalType": "bytes32",
          "name": "previousAdminRole",
          "type": "bytes32"
        },
        {
          "indexed": true,
          "internalType": "bytes32",
          "name": "newAdminRole",
          "type": "bytes32"
        }
      ],
      "name": "RoleAdminChanged",
      "type": "event"
    },
    {
      "anonymous": false,
      "inputs": [
        {
          "indexed": true,
          "internalType": "bytes32",
          "name": "role",
          "type": "bytes32"
        },
        {
          "indexed": true,
          "internalType": "address",
          "name": "account",
          "type": "address"
        },
        {
          "indexed": true,
          "internalType": "address",
          "name": "sender",
          "type": "address"
        }
      ],
      "name": "RoleGranted",
      "type": "event"
    },
    {
      "anonymous": false,
      "inputs": [
        {
          "indexed": true,
          "internalType": "bytes32",
          "name": "role",
          "type": "bytes32"
        },
        {
          "indexed": true,
          "internalType": "address",
          "name": "account",
          "type": "address"
        },
        {
          "indexed": true,
          "internalType": "address",
          "name": "sender",
          "type": "address"
        }
      ],
      "name": "RoleRevoked",
      "type": "event"
    },
    {
      "inputs": [],
      "name": "AUTOMATIC_DEPLOY_ROLE",
      "outputs": [
        {
          "internalType": "bytes32",
          "name": "",
          "type": "bytes32"
        }
      ],
      "stateMutability": "view",
      "type": "function"
    },
    {
      "inputs": [],
      "name": "DEFAULT_ADMIN_ROLE",
      "outputs": [
        {
          "internalType": "bytes32",
          "name": "",
          "type": "bytes32"
        }
      ],
      "stateMutability": "view",
      "type": "function"
    },
    {
      "inputs": [],
      "name": "MAINNET_HASH",
      "outputs": [
        {
          "internalType": "bytes32",
          "name": "",
          "type": "bytes32"
        }
      ],
      "stateMutability": "view",
      "type": "function"
    },
    {
      "inputs": [],
      "name": "MAINNET_NAME",
      "outputs": [
        {
          "internalType": "string",
          "name": "",
          "type": "string"
        }
      ],
      "stateMutability": "view",
      "type": "function"
    },
    {
      "inputs": [],
      "name": "TOKEN_REGISTRAR_ROLE",
      "outputs": [
        {
          "internalType": "bytes32",
          "name": "",
          "type": "bytes32"
        }
      ],
      "stateMutability": "view",
      "type": "function"
    },
    {
      "inputs": [
        {
          "internalType": "address",
          "name": "erc721OnMainnet",
          "type": "address"
        },
        {
          "internalType": "contract ERC721OnChain",
          "name": "erc721OnSchain",
          "type": "address"
        }
      ],
      "name": "addERC721TokenByOwner",
      "outputs": [],
      "stateMutability": "nonpayable",
      "type": "function"
    },
    {
      "inputs": [
        {
          "internalType": "string",
          "name": "schainName",
          "type": "string"
        },
        {
          "internalType": "address",
          "name": "newTokenManager",
          "type": "address"
        }
      ],
      "name": "addTokenManager",
      "outputs": [],
      "stateMutability": "nonpayable",
      "type": "function"
    },
    {
      "inputs": [],
      "name": "automaticDeploy",
      "outputs": [
        {
          "internalType": "bool",
          "name": "",
          "type": "bool"
        }
      ],
      "stateMutability": "view",
      "type": "function"
    },
    {
      "inputs": [
        {
          "internalType": "address",
          "name": "newDepositBox",
          "type": "address"
        }
      ],
      "name": "changeDepositBoxAddress",
      "outputs": [],
      "stateMutability": "nonpayable",
      "type": "function"
    },
    {
      "inputs": [
        {
          "internalType": "address",
          "name": "",
          "type": "address"
        }
      ],
      "name": "clonesErc721",
      "outputs": [
        {
          "internalType": "contract ERC721OnChain",
          "name": "",
          "type": "address"
        }
      ],
      "stateMutability": "view",
      "type": "function"
    },
    {
      "inputs": [],
      "name": "communityLocker",
      "outputs": [
        {
          "internalType": "contract CommunityLocker",
          "name": "",
          "type": "address"
        }
      ],
      "stateMutability": "view",
      "type": "function"
    },
    {
      "inputs": [],
      "name": "depositBox",
      "outputs": [
        {
          "internalType": "address",
          "name": "",
          "type": "address"
        }
      ],
      "stateMutability": "view",
      "type": "function"
    },
    {
      "inputs": [],
      "name": "disableAutomaticDeploy",
      "outputs": [],
      "stateMutability": "nonpayable",
      "type": "function"
    },
    {
      "inputs": [],
      "name": "enableAutomaticDeploy",
      "outputs": [],
      "stateMutability": "nonpayable",
      "type": "function"
    },
    {
      "inputs": [
        {
          "internalType": "address",
          "name": "contractOnMainnet",
          "type": "address"
        },
        {
          "internalType": "address",
          "name": "to",
          "type": "address"
        },
        {
          "internalType": "uint256",
          "name": "tokenId",
          "type": "uint256"
        }
      ],
      "name": "exitToMainERC721",
      "outputs": [],
      "stateMutability": "nonpayable",
      "type": "function"
    },
    {
      "inputs": [
        {
          "internalType": "bytes32",
          "name": "role",
          "type": "bytes32"
        }
      ],
      "name": "getRoleAdmin",
      "outputs": [
        {
          "internalType": "bytes32",
          "name": "",
          "type": "bytes32"
        }
      ],
      "stateMutability": "view",
      "type": "function"
    },
    {
      "inputs": [
        {
          "internalType": "bytes32",
          "name": "role",
          "type": "bytes32"
        },
        {
          "internalType": "uint256",
          "name": "index",
          "type": "uint256"
        }
      ],
      "name": "getRoleMember",
      "outputs": [
        {
          "internalType": "address",
          "name": "",
          "type": "address"
        }
      ],
      "stateMutability": "view",
      "type": "function"
    },
    {
      "inputs": [
        {
          "internalType": "bytes32",
          "name": "role",
          "type": "bytes32"
        }
      ],
      "name": "getRoleMemberCount",
      "outputs": [
        {
          "internalType": "uint256",
          "name": "",
          "type": "uint256"
        }
      ],
      "stateMutability": "view",
      "type": "function"
    },
    {
      "inputs": [
        {
          "internalType": "bytes32",
          "name": "role",
          "type": "bytes32"
        },
        {
          "internalType": "address",
          "name": "account",
          "type": "address"
        }
      ],
      "name": "grantRole",
      "outputs": [],
      "stateMutability": "nonpayable",
      "type": "function"
    },
    {
      "inputs": [
        {
          "internalType": "bytes32",
          "name": "role",
          "type": "bytes32"
        },
        {
          "internalType": "address",
          "name": "account",
          "type": "address"
        }
      ],
      "name": "hasRole",
      "outputs": [
        {
          "internalType": "bool",
          "name": "",
          "type": "bool"
        }
      ],
      "stateMutability": "view",
      "type": "function"
    },
    {
      "inputs": [
        {
          "internalType": "string",
          "name": "schainName",
          "type": "string"
        }
      ],
      "name": "hasTokenManager",
      "outputs": [
        {
          "internalType": "bool",
          "name": "",
          "type": "bool"
        }
      ],
      "stateMutability": "view",
      "type": "function"
    },
    {
      "inputs": [
        {
          "internalType": "string",
          "name": "newChainName",
          "type": "string"
        },
        {
          "internalType": "contract MessageProxyForSchain",
          "name": "newMessageProxy",
          "type": "address"
        },
        {
          "internalType": "contract TokenManagerLinker",
          "name": "newIMALinker",
          "type": "address"
        },
        {
          "internalType": "contract CommunityLocker",
          "name": "newCommunityLocker",
          "type": "address"
        },
        {
          "internalType": "address",
          "name": "newDepositBox",
          "type": "address"
        }
      ],
      "name": "initialize",
      "outputs": [],
      "stateMutability": "nonpayable",
      "type": "function"
    },
    {
      "inputs": [
        {
          "internalType": "string",
          "name": "newSchainName",
          "type": "string"
        },
        {
          "internalType": "contract MessageProxyForSchain",
          "name": "newMessageProxy",
          "type": "address"
        },
        {
          "internalType": "contract TokenManagerLinker",
          "name": "newIMALinker",
          "type": "address"
        },
        {
          "internalType": "contract CommunityLocker",
          "name": "newCommunityLocker",
          "type": "address"
        },
        {
          "internalType": "address",
          "name": "newDepositBox",
          "type": "address"
        }
      ],
      "name": "initializeTokenManager",
      "outputs": [],
      "stateMutability": "nonpayable",
      "type": "function"
    },
    {
      "inputs": [],
      "name": "messageProxy",
      "outputs": [
        {
          "internalType": "contract MessageProxyForSchain",
          "name": "",
          "type": "address"
        }
      ],
      "stateMutability": "view",
      "type": "function"
    },
    {
      "inputs": [
        {
          "internalType": "bytes32",
          "name": "fromChainHash",
          "type": "bytes32"
        },
        {
          "internalType": "address",
          "name": "sender",
          "type": "address"
        },
        {
          "internalType": "bytes",
          "name": "data",
          "type": "bytes"
        }
      ],
      "name": "postMessage",
      "outputs": [
        {
          "internalType": "address",
          "name": "",
          "type": "address"
        }
      ],
      "stateMutability": "nonpayable",
      "type": "function"
    },
    {
      "inputs": [
        {
          "internalType": "string",
          "name": "schainName",
          "type": "string"
        }
      ],
      "name": "removeTokenManager",
      "outputs": [],
      "stateMutability": "nonpayable",
      "type": "function"
    },
    {
      "inputs": [
        {
          "internalType": "bytes32",
          "name": "role",
          "type": "bytes32"
        },
        {
          "internalType": "address",
          "name": "account",
          "type": "address"
        }
      ],
      "name": "renounceRole",
      "outputs": [],
      "stateMutability": "nonpayable",
      "type": "function"
    },
    {
      "inputs": [
        {
          "internalType": "bytes32",
          "name": "role",
          "type": "bytes32"
        },
        {
          "internalType": "address",
          "name": "account",
          "type": "address"
        }
      ],
      "name": "revokeRole",
      "outputs": [],
      "stateMutability": "nonpayable",
      "type": "function"
    },
    {
      "inputs": [],
      "name": "schainHash",
      "outputs": [
        {
          "internalType": "bytes32",
          "name": "",
          "type": "bytes32"
        }
      ],
      "stateMutability": "view",
      "type": "function"
    },
    {
      "inputs": [
        {
          "internalType": "bytes4",
          "name": "interfaceId",
          "type": "bytes4"
        }
      ],
      "name": "supportsInterface",
      "outputs": [
        {
          "internalType": "bool",
          "name": "",
          "type": "bool"
        }
      ],
      "stateMutability": "view",
      "type": "function"
    },
    {
      "inputs": [],
      "name": "tokenManagerLinker",
      "outputs": [
        {
          "internalType": "contract TokenManagerLinker",
          "name": "",
          "type": "address"
        }
      ],
      "stateMutability": "view",
      "type": "function"
    },
    {
      "inputs": [
        {
          "internalType": "bytes32",
          "name": "",
          "type": "bytes32"
        }
      ],
      "name": "tokenManagers",
      "outputs": [
        {
          "internalType": "address",
          "name": "",
          "type": "address"
        }
      ],
      "stateMutability": "view",
      "type": "function"
    },
    {
      "inputs": [
        {
          "internalType": "string",
          "name": "targetSchainName",
          "type": "string"
        },
        {
          "internalType": "address",
          "name": "contractOnMainnet",
          "type": "address"
        },
        {
          "internalType": "address",
          "name": "to",
          "type": "address"
        },
        {
          "internalType": "uint256",
          "name": "tokenId",
          "type": "uint256"
        }
      ],
      "name": "transferToSchainERC721",
      "outputs": [],
      "stateMutability": "nonpayable",
      "type": "function"
    }
  ],
  "bytecode": "0x608060405234801561001057600080fd5b50615bb1806100206000396000f3fe60806040523480156200001157600080fd5b5060043610620002255760003560e01c80636ce681d21162000131578063a217fddf11620000bb578063cb703bff1162000086578063cb703bff14620004f7578063cc5b715b146200050e578063d547741f1462000536578063dec2deb6146200054d578063edcc12b5146200056257600080fd5b8063a217fddf14620004b6578063b9581c5014620004bf578063c0e312dc14620004c9578063ca15c87314620004e057600080fd5b8063884cee5a11620000fc578063884cee5a14620004455780638a8fe421146200045c5780639010d07c146200048857806391d14854146200049f57600080fd5b80636ce681d214620003ef5780636d61128614620004065780636d6c68e6146200041a5780637b69620f146200042e57600080fd5b806330d86b2a11620001b35780633b690b6b116200017e5780633b690b6b14620003845780633fa194ce146200038e57806350f4428014620003a55780635573b8b614620003db57600080fd5b806330d86b2a146200032857806336568abe146200033f57806339927cf914620003565780633b4612c1146200036d57600080fd5b8063248a9ca311620001f4578063248a9ca314620002be57806328c5e18214620002f35780632dc151de14620002fd5780632f2ff15d146200031157600080fd5b806301ffc9a7146200022a578063029996b814620002565780630b885ac314620002625780630f1a8f741462000279575b600080fd5b620002416200023b366004620025a8565b62000579565b60405190151581526020015b60405180910390f35b62000260620005a7565b005b62000260620002733660046200270d565b620005ff565b620002a56200028a366004620024e1565b60ce602052600090815260409020546001600160a01b031681565b6040516001600160a01b0390911681526020016200024d565b620002e4620002cf366004620024e1565b60009081526065602052604090206001015490565b6040519081526020016200024d565b620002e462000615565b60ca54620002a5906001600160a01b031681565b6200026062000322366004620024fb565b62000660565b62000260620003393660046200245d565b6200068b565b6200026062000350366004620024fb565b6200074f565b6200024162000367366004620025f2565b62000775565b620002606200037e36600462002695565b620007d2565b620002e460cc5481565b620002e460008051602062005b5c83398151915281565b620003cc6040518060400160405280600781526020016613585a5b9b995d60ca1b81525081565b6040516200024d9190620029b3565b60c954620002a5906001600160a01b031681565b62000260620004003660046200270d565b62000a01565b60cd54620002a5906001600160a01b031681565b60cb54620002a5906001600160a01b031681565b620002606200043f366004620024a3565b62000bd7565b620002a56200045636600462002523565b62000d01565b620002a56200046d3660046200241d565b60cf602052600090815260409020546001600160a01b031681565b620002a56200049936600462002585565b62000ef4565b62000241620004b0366004620024fb565b62000f15565b620002e4600081565b6200026062000f40565b62000260620004da366004620025f2565b62000f89565b620002e4620004f1366004620024e1565b620010a7565b620002606200050836600462002638565b620010c0565b620002e47ffda70c2cc66a36c14884ee85424961f51b1d92b4494751699b6d105b3bcbcba881565b6200026062000547366004620024fb565b62001247565b60cd546200024190600160a01b900460ff1681565b62000260620005733660046200241d565b62001253565b60006001600160e01b03198216635a05180f60e01b1480620005a15750620005a1826200136f565b92915050565b620005c260008051602062005b5c8339815191523362000f15565b620005ea5760405162461bcd60e51b8152600401620005e190620029f1565b60405180910390fd5b60cd805460ff60a01b1916600160a01b179055565b6200060e858585858562000a01565b5050505050565b6040518060400160405280600781526020016613585a5b9b995d60ca1b815250604051602001620006479190620028e7565b6040516020818303038152906040528051906020012081565b6200066c8282620013a6565b6000828152609760205260409020620006869082620013d0565b505050565b60cb546040516311be333d60e11b81526001600160a01b0384811660048301529091169063237c667a90602401600060405180830381600087803b158015620006d357600080fd5b505af1158015620006e8573d6000803e3d6000fd5b50505050620006866040518060400160405280600781526020016613585a5b9b995d60ca1b815250604051602001620007229190620028e7565b60408051601f19818403018152919052805160209091012060cd546001600160a01b0316858585620013e7565b6200075b82826200166f565b6000828152609760205260409020620006869082620016f1565b6000806001600160a01b031660ce600085856040516020016200079a929190620028d7565b60408051808303601f19018152918152815160209283012083529082019290925201600020546001600160a01b031614159392505050565b84848080601f01602080910402602001604051908101604052809392919081815260200183838082843760009201829052506040518794509092506200081e91508490602001620028e7565b60408051601f1981840301815282825280516020918201208383018352600784526613585a5b9b995d60ca1b84830152915191935062000860929101620028e7565b60405160208183030381529060405280519060200120811415620008e05760405162461bcd60e51b815260206004820152603060248201527f546869732066756e6374696f6e206973206e6f7420666f72207472616e73666560448201526f1c9c9a5b99c81d1bc813585a5b9b995d60821b6064820152608401620005e1565b6001600160a01b038216620009385760405162461bcd60e51b815260206004820152601a60248201527f496e636f727265637420726563656976657220616464726573730000000000006044820152606401620005e1565b600081815260ce60205260409020546001600160a01b03166200099e5760405162461bcd60e51b815260206004820152601f60248201527f496e636f727265637420546f6b656e204d616e616765722061646472657373006044820152606401620005e1565b60008888604051602001620009b5929190620028d7565b60408051601f198184030181529181528151602092830120600081815260ce909352912054909150620009f69082906001600160a01b0316898989620013e7565b505050505050505050565b600054610100900460ff168062000a1b575060005460ff16155b62000a3a5760405162461bcd60e51b8152600401620005e19062002a32565b600054610100900460ff1615801562000a5d576000805461ffff19166101011790555b6001600160a01b03821662000ab55760405162461bcd60e51b815260206004820181905260248201527f4465706f736974426f7820616464726573732068617320746f206265207365746044820152606401620005e1565b62000abf62001708565b62000acc600033620017a2565b62000ae760008051602062005b5c83398151915233620017a2565b62000b137ffda70c2cc66a36c14884ee85424961f51b1d92b4494751699b6d105b3bcbcba833620017a2565b8560405160200162000b269190620028e7565b60408051601f19818403018152828252805160209182012060cc5560c980546001600160a01b038a81166001600160a01b03199283161790925560ca80548a841690831617905560cb805489841690831617905560cd8054928816929091168217905560008452908301527fc968af77923193016f61d74ba6827296db5e1f37ec4fab3ad1ef20e193395e59910160405180910390a1801562000bcf576000805461ff00191690555b505050505050565b62000c037ffda70c2cc66a36c14884ee85424961f51b1d92b4494751699b6d105b3bcbcba83362000f15565b62000c515760405162461bcd60e51b815260206004820181905260248201527f544f4b454e5f5245474953545241525f524f4c452069732072657175697265646044820152606401620005e1565b6001600160a01b0381163b62000caa5760405162461bcd60e51b815260206004820152601f60248201527f476976656e2061646472657373206973206e6f74206120636f6e7472616374006044820152606401620005e1565b6001600160a01b03828116600081815260cf602052604080822080546001600160a01b0319169486169485179055517f8d7013baea57225dad80fd4e01f9abc0a832b852212426af1dee770b843472029190a35050565b60c9546000906001600160a01b0316331462000d605760405162461bcd60e51b815260206004820152601c60248201527f53656e646572206973206e6f742061204d65737361676550726f7879000000006044820152606401620005e1565b848460cc54821415801562000df457506040518060400160405280600781526020016613585a5b9b995d60ca1b81525060405160200162000da29190620028e7565b60405160208183030381529060405280519060200120821462000de257600082815260ce60205260409020546001600160a01b0382811691161462000df4565b60cd546001600160a01b038281169116145b62000e425760405162461bcd60e51b815260206004820152601b60248201527f526563656976657220636861696e20697320696e636f727265637400000000006044820152606401620005e1565b600062000e508686620017ae565b90506000600682600c81111562000e6b5762000e6b62002c12565b148062000e8c5750600582600c81111562000e8a5762000e8a62002c12565b145b1562000ea65762000e9e878762001802565b905062000ee8565b60405162461bcd60e51b815260206004820152601660248201527526b2b9b9b0b3b2aa3cb8329034b9903ab735b737bbb760511b6044820152606401620005e1565b98975050505050505050565b600082815260976020526040812062000f0e908362001a8d565b9392505050565b60009182526065602090815260408084206001600160a01b0393909316845291905290205460ff1690565b62000f5b60008051602062005b5c8339815191523362000f15565b62000f7a5760405162461bcd60e51b8152600401620005e190620029f1565b60cd805460ff60a01b19169055565b60ca546001600160a01b031633148062000fab575062000fab60003362000f15565b62000ff15760405162461bcd60e51b81526020600482015260156024820152742737ba1030baba3437b934bd32b21031b0b63632b960591b6044820152606401620005e1565b6000828260405160200162001008929190620028d7565b60408051601f198184030181529181528151602092830120600081815260ce9093529120549091506001600160a01b0316620010875760405162461bcd60e51b815260206004820152601860248201527f546f6b656e204d616e61676572206973206e6f742073657400000000000000006044820152606401620005e1565b600090815260ce6020526040902080546001600160a01b03191690555050565b6000818152609760205260408120620005a19062001a9b565b60ca546001600160a01b0316331480620010e25750620010e260003362000f15565b620011285760405162461bcd60e51b81526020600482015260156024820152742737ba1030baba3437b934bd32b21031b0b63632b960591b6044820152606401620005e1565b600083836040516020016200113f929190620028d7565b60408051601f198184030181529181528151602092830120600081815260ce9093529120549091506001600160a01b031615620011bf5760405162461bcd60e51b815260206004820152601c60248201527f546f6b656e204d616e6167657220697320616c726561647920736574000000006044820152606401620005e1565b6001600160a01b038216620012175760405162461bcd60e51b815260206004820152601f60248201527f496e636f727265637420546f6b656e204d616e616765722061646472657373006044820152606401620005e1565b600090815260ce6020526040902080546001600160a01b0319166001600160a01b03929092169190911790555050565b6200075b828262001aa6565b6200126060003362000f15565b620012ae5760405162461bcd60e51b815260206004820152601e60248201527f44454641554c545f41444d494e5f524f4c4520697320726571756972656400006044820152606401620005e1565b6001600160a01b038116620013065760405162461bcd60e51b815260206004820181905260248201527f4465706f736974426f7820616464726573732068617320746f206265207365746044820152606401620005e1565b60cd54604080516001600160a01b03928316815291831660208301527fc968af77923193016f61d74ba6827296db5e1f37ec4fab3ad1ef20e193395e59910160405180910390a160cd80546001600160a01b0319166001600160a01b0392909216919091179055565b60006001600160e01b03198216637965db0b60e01b1480620005a157506301ffc9a760e01b6001600160e01b0319831614620005a1565b600082815260656020526040902060010154620013c4813362001ad0565b62000686838362001b3f565b600062000f0e836001600160a01b03841662001bc9565b6001600160a01b03838116600090815260cf602052604090205416803b620014525760405162461bcd60e51b815260206004820152601860248201527f4e6f20746f6b656e20636c6f6e65206f6e2073636861696e00000000000000006044820152606401620005e1565b60405163020604bf60e21b81526004810183905230906001600160a01b0383169063081812fc9060240160206040518083038186803b1580156200149557600080fd5b505afa158015620014aa573d6000803e3d6000fd5b505050506040513d601f19601f82011682018060405250810190620014d091906200243d565b6001600160a01b031614620015285760405162461bcd60e51b815260206004820152601860248201527f4e6f7420616c6c6f7765642045524337323120546f6b656e00000000000000006044820152606401620005e1565b6040516323b872dd60e01b8152336004820152306024820152604481018390526001600160a01b038216906323b872dd90606401600060405180830381600087803b1580156200157757600080fd5b505af11580156200158c573d6000803e3d6000fd5b5050604051630852cd8d60e31b8152600481018590526001600160a01b03841692506342966c689150602401600060405180830381600087803b158015620015d357600080fd5b505af1158015620015e8573d6000803e3d6000fd5b505050506000620015fb85858562001c1b565b60c954604051634a24490160e11b81529192506001600160a01b03169063944892029062001632908a908a9086906004016200297e565b600060405180830381600087803b1580156200164d57600080fd5b505af115801562001662573d6000803e3d6000fd5b5050505050505050505050565b6001600160a01b0381163314620016e15760405162461bcd60e51b815260206004820152602f60248201527f416363657373436f6e74726f6c3a2063616e206f6e6c792072656e6f756e636560448201526e103937b632b9903337b91039b2b63360891b6064820152608401620005e1565b620016ed828262001c7c565b5050565b600062000f0e836001600160a01b03841662001ce6565b600054610100900460ff168062001722575060005460ff16155b620017415760405162461bcd60e51b8152600401620005e19062002a32565b600054610100900460ff1615801562001764576000805461ffff19166101011790555b6200176e62001de3565b6200177862001de3565b6200178262001de3565b6200178c62001de3565b80156200179f576000805461ff00191690555b50565b6200066c828262001e53565b600080620017bf83850185620024e1565b9050620017ce60208262002bd9565b620017f457620017eb620017e58483818862002b09565b620017ae565b915050620005a1565b620017eb83850185620025d4565b600080620018118484620017ae565b90506000808080600585600c8111156200182f576200182f62002c12565b14156200188457600062001844898962001e5f565b6040808201516020808401516060909401516001600160a01b03808616600090815260cf9093529390912054919850929650919450169150620019cf9050565b600062001892898962001f14565b80516040808201516020808401516060909401516001600160a01b03808616600090815260cf9093529390912054919950929750919550169250905081620019cd5760cd54600160a01b900460ff166200192f5760405162461bcd60e51b815260206004820152601c60248201527f4175746f6d61746963206465706c6f792069732064697361626c6564000000006044820152606401620005e1565b60208082015180519101516040516200194890620021fe565b62001955929190620029c8565b604051809103906000f08015801562001972573d6000803e3d6000fd5b506001600160a01b03858116600081815260cf602052604080822080546001600160a01b031916948616948517905551939550919290917faa19c94b56abf04a93a1f32d59067d3918d378afd32b2d1bea847773b7d08f3991a35b505b6040516340c10f1960e01b81526001600160a01b038581166004830152602482018490528216906340c10f1990604401600060405180830381600087803b15801562001a1a57600080fd5b505af115801562001a2f573d6000803e3d6000fd5b50505050806001600160a01b0316836001600160a01b03167fb1196fae12e56db8b0fc57623312e966cbf6b4a45adc9b3002df48577de9f3b18460405162001a7991815260200190565b60405180910390a350919695505050505050565b600062000f0e838362001fb9565b6000620005a1825490565b60008281526065602052604090206001015462001ac4813362001ad0565b62000686838362001c7c565b62001adc828262000f15565b620016ed5762001af7816001600160a01b0316601462002044565b62001b0483602062002044565b60405160200162001b1792919062002905565b60408051601f198184030181529082905262461bcd60e51b8252620005e191600401620029b3565b62001b4b828262000f15565b620016ed5760008281526065602090815260408083206001600160a01b03851684529091529020805460ff1916600117905562001b853390565b6001600160a01b0316816001600160a01b0316837f2f8788117e7eff1d82e926ec794901d17c78024a50270940304540a733656f0d60405160405180910390a45050565b600081815260018301602052604081205462001c1257508154600181810184556000848152602080822090930184905584548482528286019093526040902091909155620005a1565b506000620005a1565b6040805160a08101825260056080820190815281526001600160a01b03808616602080840191909152908516828401526060808301859052925162001c639183910162002a80565b6040516020818303038152906040529150509392505050565b62001c88828262000f15565b15620016ed5760008281526065602090815260408083206001600160a01b0385168085529252808320805460ff1916905551339285917ff6391f5c32d9c69d2a47ea670b442974b53935d1edc7fd64eb21e047a839171b9190a45050565b6000818152600183016020526040812054801562001dd857600062001d0d60018362002b72565b855490915060009062001d239060019062002b72565b9050600086600001828154811062001d3f5762001d3f62002c3e565b906000526020600020015490508087600001848154811062001d655762001d6562002c3e565b60009182526020808320909101929092558281526001890190915260409020849055865487908062001d9b5762001d9b62002c28565b60019003818190600052602060002001600090559055866001016000878152602001908152602001600020600090556001945050505050620005a1565b6000915050620005a1565b600054610100900460ff168062001dfd575060005460ff16155b62001e1c5760405162461bcd60e51b8152600401620005e19062002a32565b600054610100900460ff161580156200178c576000805461ffff191661010117905580156200179f576000805461ff001916905550565b620016ed828262001b3f565b6040805160a0810182526000608082018181528252602082018190529181018290526060810191909152600562001e978484620017ae565b600c81111562001eab5762001eab62002c12565b1462001f065760405162461bcd60e51b815260206004820152602360248201527f4d6573736167652074797065206973206e6f7420455243373231207472616e736044820152623332b960e91b6064820152608401620005e1565b62000f0e828401846200288a565b62001f1e6200220c565b600662001f2c8484620017ae565b600c81111562001f405762001f4062002c12565b1462001fab5760405162461bcd60e51b815260206004820152603360248201527f4d6573736167652074797065206973206e6f7420455243373231207472616e73604482015272666572207769746820746f6b656e20696e666f60681b6064820152608401620005e1565b62000f0e82840184620027a3565b81546000908210620020195760405162461bcd60e51b815260206004820152602260248201527f456e756d657261626c655365743a20696e646578206f7574206f6620626f756e604482015261647360f01b6064820152608401620005e1565b82600001828154811062002031576200203162002c3e565b9060005260206000200154905092915050565b606060006200205583600262002b50565b6200206290600262002b35565b67ffffffffffffffff8111156200207d576200207d62002c54565b6040519080825280601f01601f191660200182016040528015620020a8576020820181803683370190505b509050600360fc1b81600081518110620020c657620020c662002c3e565b60200101906001600160f81b031916908160001a905350600f60fb1b81600181518110620020f857620020f862002c3e565b60200101906001600160f81b031916908160001a90535060006200211e84600262002b50565b6200212b90600162002b35565b90505b6001811115620021ad576f181899199a1a9b1b9c1cb0b131b232b360811b85600f166010811062002163576200216362002c3e565b1a60f81b8282815181106200217c576200217c62002c3e565b60200101906001600160f81b031916908160001a90535060049490941c93620021a58162002bbf565b90506200212e565b50831562000f0e5760405162461bcd60e51b815260206004820181905260248201527f537472696e67733a20686578206c656e67746820696e73756666696369656e746044820152606401620005e1565b612edb8062002c8183390190565b6040805160e081018252600060c08201818152928201928352606082018190526080820181905260a082015290819081526020016200225e604051806040016040528060608152602001606081525090565b905290565b60008083601f8401126200227657600080fd5b50813567ffffffffffffffff8111156200228f57600080fd5b602083019150836020828501011115620022a857600080fd5b9250929050565b8035600d8110620022bf57600080fd5b919050565b600082601f830112620022d657600080fd5b813567ffffffffffffffff80821115620022f457620022f462002c54565b604051601f8301601f19908116603f011681019082821181831017156200231f576200231f62002c54565b816040528381528660208588010111156200233957600080fd5b836020870160208301376000602085830101528094505050505092915050565b600081830360808112156200236d57600080fd5b6040516080810167ffffffffffffffff828210818311171562002394576200239462002c54565b816040528294506020841215620023aa57600080fd5b60a0830193508184108185111715620023c757620023c762002c54565b5082604052620023d785620022af565b8152815260208401359150620023ed8262002c6a565b81602082015260408401359150620024058262002c6a565b81604082015260608401356060820152505092915050565b6000602082840312156200243057600080fd5b813562000f0e8162002c6a565b6000602082840312156200245057600080fd5b815162000f0e8162002c6a565b6000806000606084860312156200247357600080fd5b8335620024808162002c6a565b92506020840135620024928162002c6a565b929592945050506040919091013590565b60008060408385031215620024b757600080fd5b8235620024c48162002c6a565b91506020830135620024d68162002c6a565b809150509250929050565b600060208284031215620024f457600080fd5b5035919050565b600080604083850312156200250f57600080fd5b823591506020830135620024d68162002c6a565b600080600080606085870312156200253a57600080fd5b8435935060208501356200254e8162002c6a565b9250604085013567ffffffffffffffff8111156200256b57600080fd5b620025798782880162002263565b95989497509550505050565b600080604083850312156200259957600080fd5b50508035926020909101359150565b600060208284031215620025bb57600080fd5b81356001600160e01b03198116811462000f0e57600080fd5b600060208284031215620025e757600080fd5b62000f0e82620022af565b600080602083850312156200260657600080fd5b823567ffffffffffffffff8111156200261e57600080fd5b6200262c8582860162002263565b90969095509350505050565b6000806000604084860312156200264e57600080fd5b833567ffffffffffffffff8111156200266657600080fd5b620026748682870162002263565b90945092505060208401356200268a8162002c6a565b809150509250925092565b600080600080600060808688031215620026ae57600080fd5b853567ffffffffffffffff811115620026c657600080fd5b620026d48882890162002263565b9096509450506020860135620026ea8162002c6a565b92506040860135620026fc8162002c6a565b949793965091946060013592915050565b600080600080600060a086880312156200272657600080fd5b853567ffffffffffffffff8111156200273e57600080fd5b6200274c88828901620022c4565b95505060208601356200275f8162002c6a565b93506040860135620027718162002c6a565b92506060860135620027838162002c6a565b91506080860135620027958162002c6a565b809150509295509295909350565b600060208284031215620027b657600080fd5b813567ffffffffffffffff80821115620027cf57600080fd5b9083019060a08286031215620027e457600080fd5b620027ee62002add565b620027fa868462002359565b81526080830135828111156200280f57600080fd5b9290920191604083870312156200282557600080fd5b6200282f62002add565b8335838111156200283f57600080fd5b6200284d88828701620022c4565b8252506020840135838111156200286357600080fd5b6200287188828701620022c4565b6020830152508060208301525080935050505092915050565b6000608082840312156200289d57600080fd5b62000f0e838362002359565b60008151808452620028c381602086016020860162002b8c565b601f01601f19169290920160200192915050565b8183823760009101908152919050565b60008251620028fb81846020870162002b8c565b9190910192915050565b7f416363657373436f6e74726f6c3a206163636f756e74200000000000000000008152600083516200293f81601785016020880162002b8c565b7001034b99036b4b9b9b4b733903937b6329607d1b60179184019182015283516200297281602884016020880162002b8c565b01602801949350505050565b8381526001600160a01b0383166020820152606060408201819052600090620029aa90830184620028a9565b95945050505050565b60208152600062000f0e6020830184620028a9565b604081526000620029dd6040830185620028a9565b8281036020840152620029aa8185620028a9565b60208082526021908201527f4155544f4d415449435f4445504c4f595f524f4c4520697320726571756972656040820152601960fa1b606082015260800190565b6020808252602e908201527f496e697469616c697a61626c653a20636f6e747261637420697320616c72656160408201526d191e481a5b9a5d1a585b1a5e995960921b606082015260800190565b8151516080820190600d811062002aa757634e487b7160e01b600052602160045260246000fd5b80835250602083015160018060a01b03808216602085015280604086015116604085015250506060830151606083015292915050565b6040805190810167ffffffffffffffff8111828210171562002b035762002b0362002c54565b60405290565b6000808585111562002b1a57600080fd5b8386111562002b2857600080fd5b5050820193919092039150565b6000821982111562002b4b5762002b4b62002bfc565b500190565b600081600019048311821515161562002b6d5762002b6d62002bfc565b500290565b60008282101562002b875762002b8762002bfc565b500390565b60005b8381101562002ba957818101518382015260200162002b8f565b8381111562002bb9576000848401525b50505050565b60008162002bd15762002bd162002bfc565b506000190190565b60008262002bf757634e487b7160e01b600052601260045260246000fd5b500690565b634e487b7160e01b600052601160045260246000fd5b634e487b7160e01b600052602160045260246000fd5b634e487b7160e01b600052603160045260246000fd5b634e487b7160e01b600052603260045260246000fd5b634e487b7160e01b600052604160045260246000fd5b6001600160a01b03811681146200179f57600080fdfe60806040523480156200001157600080fd5b5060405162002edb38038062002edb83398101604081905262000034916200081c565b600054610100900460ff16806200004e575060005460ff16155b620000a65760405162461bcd60e51b815260206004820152602e602482015260008051602062002e9b83398151915260448201526d191e481a5b9a5d1a585b1a5e995960921b60648201526084015b60405180910390fd5b600054610100900460ff16158015620000c9576000805461ffff19166101011790555b620000de6200015c60201b62000b061760201c565b620000f583836200022b60201b62000b911760201c565b6200010a620002f460201b62000c181760201c565b6200012560008051602062002ebb833981519152806200038e565b6200014060008051602062002ebb83398151915233620003e2565b801562000153576000805461ff00191690555b505050620008d9565b600054610100900460ff168062000176575060005460ff16155b620001ca5760405162461bcd60e51b815260206004820152602e602482015260008051602062002e9b83398151915260448201526d191e481a5b9a5d1a585b1a5e995960921b60648201526084016200009d565b600054610100900460ff16158015620001ed576000805461ffff19166101011790555b620001f762000420565b6200020162000420565b6200020b62000420565b6200021562000420565b801562000228576000805461ff00191690555b50565b600054610100900460ff168062000245575060005460ff16155b620002995760405162461bcd60e51b815260206004820152602e602482015260008051602062002e9b83398151915260448201526d191e481a5b9a5d1a585b1a5e995960921b60648201526084016200009d565b600054610100900460ff16158015620002bc576000805461ffff19166101011790555b620002c662000420565b620002d062000420565b620002dc8383620004c5565b8015620002ef576000805461ff00191690555b505050565b600054610100900460ff16806200030e575060005460ff16155b620003625760405162461bcd60e51b815260206004820152602e602482015260008051602062002e9b83398151915260448201526d191e481a5b9a5d1a585b1a5e995960921b60648201526084016200009d565b600054610100900460ff16158015620001f7576000805461ffff19166101011790556200020162000420565b600082815260656020526040902060010154819060405184907fbd79b86ffe0ab8e8776151514217cd7cacd52c909f66475c3af44e129f0b00ff90600090a460009182526065602052604090912060010155565b620003f982826200059960201b62000c761760201c565b6000828152609760209081526040909120620002ef91839062000c80620005a9821b17901c565b600054610100900460ff16806200043a575060005460ff16155b6200048e5760405162461bcd60e51b815260206004820152602e602482015260008051602062002e9b83398151915260448201526d191e481a5b9a5d1a585b1a5e995960921b60648201526084016200009d565b600054610100900460ff1615801562000215576000805461ffff1916610101179055801562000228576000805461ff001916905550565b600054610100900460ff1680620004df575060005460ff16155b620005335760405162461bcd60e51b815260206004820152602e602482015260008051602062002e9b83398151915260448201526d191e481a5b9a5d1a585b1a5e995960921b60648201526084016200009d565b600054610100900460ff1615801562000556576000805461ffff19166101011790555b82516200056b9060c9906020860190620006bf565b508151620005819060ca906020850190620006bf565b508015620002ef576000805461ff0019169055505050565b620005a58282620005c9565b5050565b6000620005c0836001600160a01b0384166200066d565b90505b92915050565b60008281526065602090815260408083206001600160a01b038516845290915290205460ff16620005a55760008281526065602090815260408083206001600160a01b03851684529091529020805460ff19166001179055620006293390565b6001600160a01b0316816001600160a01b0316837f2f8788117e7eff1d82e926ec794901d17c78024a50270940304540a733656f0d60405160405180910390a45050565b6000818152600183016020526040812054620006b657508154600181810184556000848152602080822090930184905584548482528286019093526040902091909155620005c3565b506000620005c3565b828054620006cd9062000886565b90600052602060002090601f016020900481019282620006f157600085556200073c565b82601f106200070c57805160ff19168380011785556200073c565b828001600101855582156200073c579182015b828111156200073c5782518255916020019190600101906200071f565b506200074a9291506200074e565b5090565b5b808211156200074a57600081556001016200074f565b600082601f8301126200077757600080fd5b81516001600160401b0380821115620007945762000794620008c3565b604051601f8301601f19908116603f01168101908282118183101715620007bf57620007bf620008c3565b81604052838152602092508683858801011115620007dc57600080fd5b600091505b83821015620008005785820183015181830184015290820190620007e1565b83821115620008125760008385830101525b9695505050505050565b600080604083850312156200083057600080fd5b82516001600160401b03808211156200084857600080fd5b620008568683870162000765565b935060208501519150808211156200086d57600080fd5b506200087c8582860162000765565b9150509250929050565b600181811c908216806200089b57607f821691505b60208210811415620008bd57634e487b7160e01b600052602260045260246000fd5b50919050565b634e487b7160e01b600052604160045260246000fd5b6125b280620008e96000396000f3fe608060405234801561001057600080fd5b50600436106101735760003560e01c80636352211e116100de578063a22cb46511610097578063ca15c87311610071578063ca15c87314610340578063d539139314610353578063d547741f1461037a578063e985e9c51461038d57600080fd5b8063a22cb46514610307578063b88d4fde1461031a578063c87b56dd1461032d57600080fd5b80636352211e146102ab57806370a08231146102be5780639010d07c146102d157806391d14854146102e457806395d89b41146102f7578063a217fddf146102ff57600080fd5b8063248a9ca311610130578063248a9ca31461021b5780632f2ff15d1461024c57806336568abe1461025f57806340c10f191461027257806342842e0e1461028557806342966c681461029857600080fd5b806301ffc9a71461017857806306fdde03146101a0578063081812fc146101b5578063095ea7b3146101e0578063162094c4146101f557806323b872dd14610208575b600080fd5b61018b610186366004612122565b6103c9565b60405190151581526020015b60405180910390f35b6101a86103da565b60405161019791906122e5565b6101c86101c33660046120c4565b61046c565b6040516001600160a01b039091168152602001610197565b6101f36101ee36600461209a565b6104f9565b005b61018b61020336600461215c565b61060f565b6101f3610216366004611f46565b6106fe565b61023e6102293660046120c4565b60009081526065602052604090206001015490565b604051908152602001610197565b6101f361025a3660046120dd565b610730565b6101f361026d3660046120dd565b610752565b6101f361028036600461209a565b610774565b6101f3610293366004611f46565b6107f1565b6101f36102a63660046120c4565b61080c565b6101c86102b93660046120c4565b610886565b61023e6102cc366004611ef8565b6108fd565b6101c86102df366004612100565b610984565b61018b6102f23660046120dd565b6109a3565b6101a86109ce565b61023e600081565b6101f361031536600461205e565b6109dd565b6101f3610328366004611f82565b610aa2565b6101a861033b3660046120c4565b610ada565b61023e61034e3660046120c4565b610ae5565b61023e7f9f2df0fed2c77648de5860a4cc508cd0818c85b8b8a1ab4ceeef8d981c8956a681565b6101f36103883660046120dd565b610afc565b61018b61039b366004611f13565b6001600160a01b03918216600090815260ce6020908152604080832093909416825291909152205460ff1690565b60006103d482610c95565b92915050565b606060c980546103e99061248e565b80601f01602080910402602001604051908101604052809291908181526020018280546104159061248e565b80156104625780601f1061043757610100808354040283529160200191610462565b820191906000526020600020905b81548152906001019060200180831161044557829003601f168201915b5050505050905090565b600061047782610cd5565b6104dd5760405162461bcd60e51b815260206004820152602c60248201527f4552433732313a20617070726f76656420717565727920666f72206e6f6e657860448201526b34b9ba32b73a103a37b5b2b760a11b60648201526084015b60405180910390fd5b50600090815260cd60205260409020546001600160a01b031690565b600061050482610886565b9050806001600160a01b0316836001600160a01b031614156105725760405162461bcd60e51b815260206004820152602160248201527f4552433732313a20617070726f76616c20746f2063757272656e74206f776e656044820152603960f91b60648201526084016104d4565b336001600160a01b038216148061058e575061058e813361039b565b6106005760405162461bcd60e51b815260206004820152603860248201527f4552433732313a20617070726f76652063616c6c6572206973206e6f74206f7760448201527f6e6572206e6f7220617070726f76656420666f7220616c6c000000000000000060648201526084016104d4565b61060a8383610cf2565b505050565b600061061a84610cd5565b61065e5760405162461bcd60e51b8152602060048201526015602482015274546f6b656e20646f6573206e6f742065786973747360581b60448201526064016104d4565b6106683385610d60565b6106b45760405162461bcd60e51b815260206004820152601c60248201527f53656e6465722063616e206e6f742073657420746f6b656e205552490000000060448201526064016104d4565b6106f48484848080601f016020809104026020016040519081016040528093929190818152602001838380828437600092019190915250610e4a92505050565b5060019392505050565b610709335b82610d60565b6107255760405162461bcd60e51b81526004016104d490612398565b61060a838383610ed6565b61073a8282611076565b600082815260976020526040902061060a9082610c80565b61075c828261109c565b600082815260976020526040902061060a9082611116565b61079e7f9f2df0fed2c77648de5860a4cc508cd0818c85b8b8a1ab4ceeef8d981c8956a6336109a3565b6107e35760405162461bcd60e51b815260206004820152601660248201527529b2b73232b91034b9903737ba10309026b4b73a32b960511b60448201526064016104d4565b6107ed828261112b565b5050565b61060a83838360405180602001604052806000815250610aa2565b61081533610703565b61087a5760405162461bcd60e51b815260206004820152603060248201527f4552433732314275726e61626c653a2063616c6c6572206973206e6f74206f7760448201526f1b995c881b9bdc88185c1c1c9bdd995960821b60648201526084016104d4565b6108838161125e565b50565b600081815260cb60205260408120546001600160a01b0316806103d45760405162461bcd60e51b815260206004820152602960248201527f4552433732313a206f776e657220717565727920666f72206e6f6e657869737460448201526832b73a103a37b5b2b760b91b60648201526084016104d4565b60006001600160a01b0382166109685760405162461bcd60e51b815260206004820152602a60248201527f4552433732313a2062616c616e636520717565727920666f7220746865207a65604482015269726f206164647265737360b01b60648201526084016104d4565b506001600160a01b0316600090815260cc602052604090205490565b600082815260976020526040812061099c9083611267565b9392505050565b60009182526065602090815260408084206001600160a01b0393909316845291905290205460ff1690565b606060ca80546103e99061248e565b6001600160a01b038216331415610a365760405162461bcd60e51b815260206004820152601960248201527f4552433732313a20617070726f766520746f2063616c6c65720000000000000060448201526064016104d4565b33600081815260ce602090815260408083206001600160a01b03871680855290835292819020805460ff191686151590811790915590519081529192917f17307eab39ab6107e8899845ad3d59bd9653f200f220920489ca2b5937696c31910160405180910390a35050565b610aac3383610d60565b610ac85760405162461bcd60e51b81526004016104d490612398565b610ad484848484611273565b50505050565b60606103d4826112a6565b60008181526097602052604081206103d490611416565b61075c8282611420565b600054610100900460ff1680610b1f575060005460ff16155b610b3b5760405162461bcd60e51b81526004016104d49061234a565b600054610100900460ff16158015610b5d576000805461ffff19166101011790555b610b65611446565b610b6d611446565b610b75611446565b610b7d611446565b8015610883576000805461ff001916905550565b600054610100900460ff1680610baa575060005460ff16155b610bc65760405162461bcd60e51b81526004016104d49061234a565b600054610100900460ff16158015610be8576000805461ffff19166101011790555b610bf0611446565b610bf8611446565b610c0283836114b0565b801561060a576000805461ff0019169055505050565b600054610100900460ff1680610c31575060005460ff16155b610c4d5760405162461bcd60e51b81526004016104d49061234a565b600054610100900460ff16158015610b65576000805461ffff1916610101179055610b6d611446565b6107ed8282611545565b600061099c836001600160a01b0384166115cb565b60006001600160e01b031982166380ac58cd60e01b1480610cc657506001600160e01b03198216635b5e139f60e01b145b806103d457506103d48261161a565b600090815260cb60205260409020546001600160a01b0316151590565b600081815260cd6020526040902080546001600160a01b0319166001600160a01b0384169081179091558190610d2782610886565b6001600160a01b03167f8c5be1e5ebec7d5bd14f71427d1e84f3dd0314c0f7b2291e5b200ac8c7c3b92560405160405180910390a45050565b6000610d6b82610cd5565b610dcc5760405162461bcd60e51b815260206004820152602c60248201527f4552433732313a206f70657261746f7220717565727920666f72206e6f6e657860448201526b34b9ba32b73a103a37b5b2b760a11b60648201526084016104d4565b6000610dd783610886565b9050806001600160a01b0316846001600160a01b03161480610e125750836001600160a01b0316610e078461046c565b6001600160a01b0316145b80610e4257506001600160a01b03808216600090815260ce602090815260408083209388168352929052205460ff165b949350505050565b610e5382610cd5565b610eb65760405162461bcd60e51b815260206004820152602e60248201527f45524337323155524953746f726167653a2055524920736574206f66206e6f6e60448201526d32bc34b9ba32b73a103a37b5b2b760911b60648201526084016104d4565b600082815261012d60209081526040909120825161060a92840190611e0d565b826001600160a01b0316610ee982610886565b6001600160a01b031614610f515760405162461bcd60e51b815260206004820152602960248201527f4552433732313a207472616e73666572206f6620746f6b656e2074686174206960448201526839903737ba1037bbb760b91b60648201526084016104d4565b6001600160a01b038216610fb35760405162461bcd60e51b8152602060048201526024808201527f4552433732313a207472616e7366657220746f20746865207a65726f206164646044820152637265737360e01b60648201526084016104d4565b610fbe600082610cf2565b6001600160a01b038316600090815260cc60205260408120805460019290610fe7908490612434565b90915550506001600160a01b038216600090815260cc602052604081208054600192906110159084906123e9565b9091555050600081815260cb602052604080822080546001600160a01b0319166001600160a01b0386811691821790925591518493918716917fddf252ad1be2c89b69c2b068fc378daa952ba7f163c4a11628f55a4df523b3ef91a4505050565b600082815260656020526040902060010154611092813361163f565b61060a8383611545565b6001600160a01b038116331461110c5760405162461bcd60e51b815260206004820152602f60248201527f416363657373436f6e74726f6c3a2063616e206f6e6c792072656e6f756e636560448201526e103937b632b9903337b91039b2b63360891b60648201526084016104d4565b6107ed82826116a3565b600061099c836001600160a01b03841661170a565b6001600160a01b0382166111815760405162461bcd60e51b815260206004820181905260248201527f4552433732313a206d696e7420746f20746865207a65726f206164647265737360448201526064016104d4565b61118a81610cd5565b156111d75760405162461bcd60e51b815260206004820152601c60248201527f4552433732313a20746f6b656e20616c7265616479206d696e7465640000000060448201526064016104d4565b6001600160a01b038216600090815260cc602052604081208054600192906112009084906123e9565b9091555050600081815260cb602052604080822080546001600160a01b0319166001600160a01b03861690811790915590518392907fddf252ad1be2c89b69c2b068fc378daa952ba7f163c4a11628f55a4df523b3ef908290a45050565b610883816117f7565b600061099c8383611839565b61127e848484610ed6565b61128a848484846118bf565b610ad45760405162461bcd60e51b81526004016104d4906122f8565b60606112b182610cd5565b6113175760405162461bcd60e51b815260206004820152603160248201527f45524337323155524953746f726167653a2055524920717565727920666f72206044820152703737b732bc34b9ba32b73a103a37b5b2b760791b60648201526084016104d4565b600082815261012d6020526040812080546113319061248e565b80601f016020809104026020016040519081016040528092919081815260200182805461135d9061248e565b80156113aa5780601f1061137f576101008083540402835291602001916113aa565b820191906000526020600020905b81548152906001019060200180831161138d57829003601f168201915b5050505050905060006113c860408051602081019091526000815290565b90508051600014156113db575092915050565b81511561140d5780826040516020016113f5929190612204565b60405160208183030381529060405292505050919050565b610e42846119cc565b60006103d4825490565b60008281526065602052604090206001015461143c813361163f565b61060a83836116a3565b600054610100900460ff168061145f575060005460ff16155b61147b5760405162461bcd60e51b81526004016104d49061234a565b600054610100900460ff16158015610b7d576000805461ffff19166101011790558015610883576000805461ff001916905550565b600054610100900460ff16806114c9575060005460ff16155b6114e55760405162461bcd60e51b81526004016104d49061234a565b600054610100900460ff16158015611507576000805461ffff19166101011790555b825161151a9060c9906020860190611e0d565b50815161152e9060ca906020850190611e0d565b50801561060a576000805461ff0019169055505050565b61154f82826109a3565b6107ed5760008281526065602090815260408083206001600160a01b03851684529091529020805460ff191660011790556115873390565b6001600160a01b0316816001600160a01b0316837f2f8788117e7eff1d82e926ec794901d17c78024a50270940304540a733656f0d60405160405180910390a45050565b6000818152600183016020526040812054611612575081546001818101845560008481526020808220909301849055845484825282860190935260409020919091556103d4565b5060006103d4565b60006001600160e01b03198216635a05180f60e01b14806103d457506103d482611aa3565b61164982826109a3565b6107ed57611661816001600160a01b03166014611ad8565b61166c836020611ad8565b60405160200161167d929190612233565b60408051601f198184030181529082905262461bcd60e51b82526104d4916004016122e5565b6116ad82826109a3565b156107ed5760008281526065602090815260408083206001600160a01b0385168085529252808320805460ff1916905551339285917ff6391f5c32d9c69d2a47ea670b442974b53935d1edc7fd64eb21e047a839171b9190a45050565b600081815260018301602052604081205480156117ed57600061172e600183612434565b855490915060009061174290600190612434565b9050600086600001828154811061175b5761175b61253a565b906000526020600020015490508087600001848154811061177e5761177e61253a565b6000918252602080832090910192909255828152600189019091526040902084905586548790806117b1576117b1612524565b600190038181906000526020600020016000905590558660010160008781526020019081526020016000206000905560019450505050506103d4565b60009150506103d4565b61180081611c74565b600081815261012d60205260409020805461181a9061248e565b15905061088357600081815261012d6020526040812061088391611e91565b815460009082106118975760405162461bcd60e51b815260206004820152602260248201527f456e756d657261626c655365743a20696e646578206f7574206f6620626f756e604482015261647360f01b60648201526084016104d4565b8260000182815481106118ac576118ac61253a565b9060005260206000200154905092915050565b60006001600160a01b0384163b156119c157604051630a85bd0160e11b81526001600160a01b0385169063150b7a02906119039033908990889088906004016122a8565b602060405180830381600087803b15801561191d57600080fd5b505af192505050801561194d575060408051601f3d908101601f1916820190925261194a9181019061213f565b60015b6119a7573d80801561197b576040519150601f19603f3d011682016040523d82523d6000602084013e611980565b606091505b50805161199f5760405162461bcd60e51b81526004016104d4906122f8565b805181602001fd5b6001600160e01b031916630a85bd0160e11b149050610e42565b506001949350505050565b60606119d782610cd5565b611a3b5760405162461bcd60e51b815260206004820152602f60248201527f4552433732314d657461646174613a2055524920717565727920666f72206e6f60448201526e3732bc34b9ba32b73a103a37b5b2b760891b60648201526084016104d4565b6000611a5260408051602081019091526000815290565b90506000815111611a72576040518060200160405280600081525061099c565b80611a7c84611d0f565b604051602001611a8d929190612204565b6040516020818303038152906040529392505050565b60006001600160e01b03198216637965db0b60e01b14806103d457506301ffc9a760e01b6001600160e01b03198316146103d4565b60606000611ae7836002612415565b611af29060026123e9565b67ffffffffffffffff811115611b0a57611b0a612550565b6040519080825280601f01601f191660200182016040528015611b34576020820181803683370190505b509050600360fc1b81600081518110611b4f57611b4f61253a565b60200101906001600160f81b031916908160001a905350600f60fb1b81600181518110611b7e57611b7e61253a565b60200101906001600160f81b031916908160001a9053506000611ba2846002612415565b611bad9060016123e9565b90505b6001811115611c25576f181899199a1a9b1b9c1cb0b131b232b360811b85600f1660108110611be157611be161253a565b1a60f81b828281518110611bf757611bf761253a565b60200101906001600160f81b031916908160001a90535060049490941c93611c1e81612477565b9050611bb0565b50831561099c5760405162461bcd60e51b815260206004820181905260248201527f537472696e67733a20686578206c656e67746820696e73756666696369656e7460448201526064016104d4565b6000611c7f82610886565b9050611c8c600083610cf2565b6001600160a01b038116600090815260cc60205260408120805460019290611cb5908490612434565b9091555050600082815260cb602052604080822080546001600160a01b0319169055518391906001600160a01b038416907fddf252ad1be2c89b69c2b068fc378daa952ba7f163c4a11628f55a4df523b3ef908390a45050565b606081611d335750506040805180820190915260018152600360fc1b602082015290565b8160005b8115611d5d5780611d47816124c9565b9150611d569050600a83612401565b9150611d37565b60008167ffffffffffffffff811115611d7857611d78612550565b6040519080825280601f01601f191660200182016040528015611da2576020820181803683370190505b5090505b8415610e4257611db7600183612434565b9150611dc4600a866124e4565b611dcf9060306123e9565b60f81b818381518110611de457611de461253a565b60200101906001600160f81b031916908160001a905350611e06600a86612401565b9450611da6565b828054611e199061248e565b90600052602060002090601f016020900481019282611e3b5760008555611e81565b82601f10611e5457805160ff1916838001178555611e81565b82800160010185558215611e81579182015b82811115611e81578251825591602001919060010190611e66565b50611e8d929150611ec7565b5090565b508054611e9d9061248e565b6000825580601f10611ead575050565b601f01602090049060005260206000209081019061088391905b5b80821115611e8d5760008155600101611ec8565b80356001600160a01b0381168114611ef357600080fd5b919050565b600060208284031215611f0a57600080fd5b61099c82611edc565b60008060408385031215611f2657600080fd5b611f2f83611edc565b9150611f3d60208401611edc565b90509250929050565b600080600060608486031215611f5b57600080fd5b611f6484611edc565b9250611f7260208501611edc565b9150604084013590509250925092565b60008060008060808587031215611f9857600080fd5b611fa185611edc565b9350611faf60208601611edc565b925060408501359150606085013567ffffffffffffffff80821115611fd357600080fd5b818701915087601f830112611fe757600080fd5b813581811115611ff957611ff9612550565b604051601f8201601f19908116603f0116810190838211818310171561202157612021612550565b816040528281528a602084870101111561203a57600080fd5b82602086016020830137600060208483010152809550505050505092959194509250565b6000806040838503121561207157600080fd5b61207a83611edc565b91506020830135801515811461208f57600080fd5b809150509250929050565b600080604083850312156120ad57600080fd5b6120b683611edc565b946020939093013593505050565b6000602082840312156120d657600080fd5b5035919050565b600080604083850312156120f057600080fd5b82359150611f3d60208401611edc565b6000806040838503121561211357600080fd5b50508035926020909101359150565b60006020828403121561213457600080fd5b813561099c81612566565b60006020828403121561215157600080fd5b815161099c81612566565b60008060006040848603121561217157600080fd5b83359250602084013567ffffffffffffffff8082111561219057600080fd5b818601915086601f8301126121a457600080fd5b8135818111156121b357600080fd5b8760208285010111156121c557600080fd5b6020830194508093505050509250925092565b600081518084526121f081602086016020860161244b565b601f01601f19169290920160200192915050565b6000835161221681846020880161244b565b83519083019061222a81836020880161244b565b01949350505050565b7f416363657373436f6e74726f6c3a206163636f756e742000000000000000000081526000835161226b81601785016020880161244b565b7001034b99036b4b9b9b4b733903937b6329607d1b601791840191820152835161229c81602884016020880161244b565b01602801949350505050565b6001600160a01b03858116825284166020820152604081018390526080606082018190526000906122db908301846121d8565b9695505050505050565b60208152600061099c60208301846121d8565b60208082526032908201527f4552433732313a207472616e7366657220746f206e6f6e20455243373231526560408201527131b2b4bb32b91034b6b83632b6b2b73a32b960711b606082015260800190565b6020808252602e908201527f496e697469616c697a61626c653a20636f6e747261637420697320616c72656160408201526d191e481a5b9a5d1a585b1a5e995960921b606082015260800190565b60208082526031908201527f4552433732313a207472616e736665722063616c6c6572206973206e6f74206f6040820152701ddb995c881b9bdc88185c1c1c9bdd9959607a1b606082015260800190565b600082198211156123fc576123fc6124f8565b500190565b6000826124105761241061250e565b500490565b600081600019048311821515161561242f5761242f6124f8565b500290565b600082821015612446576124466124f8565b500390565b60005b8381101561246657818101518382015260200161244e565b83811115610ad45750506000910152565b600081612486576124866124f8565b506000190190565b600181811c908216806124a257607f821691505b602082108114156124c357634e487b7160e01b600052602260045260246000fd5b50919050565b60006000198214156124dd576124dd6124f8565b5060010190565b6000826124f3576124f361250e565b500690565b634e487b7160e01b600052601160045260246000fd5b634e487b7160e01b600052601260045260246000fd5b634e487b7160e01b600052603160045260246000fd5b634e487b7160e01b600052603260045260246000fd5b634e487b7160e01b600052604160045260246000fd5b6001600160e01b03198116811461088357600080fdfea26469706673582212204c6b91059d90c91e4f16ce03ed2a2a17255561f3499da7894239aa7c259cd79a64736f6c63430008060033496e697469616c697a61626c653a20636f6e747261637420697320616c7265619f2df0fed2c77648de5860a4cc508cd0818c85b8b8a1ab4ceeef8d981c8956a67164765a3c8bd2513bdfa0c90f1bee9606e920fbf2c9071f310263fbd818684ba264697066735822122029c167a68a554b61392934babe9bba210a9d89f0b3bb6f62197757c12bf94e4064736f6c63430008060033",
  "linkReferences": {},
  "deployedLinkReferences": {}
}