{
  "_format": "hh-sol-artifact-1",
  "contractName": "TokenManagerERC1155",
  "sourceName": "contracts/schain/TokenManagers/TokenManagerERC1155.sol",
  "abi": [
    {
      "anonymous": false,
      "inputs": [
        {
          "indexed": false,
          "internalType": "address",
          "name": "oldValue",
          "type": "address"
        },
        {
          "indexed": false,
          "internalType": "address",
          "name": "newValue",
          "type": "address"
        }
      ],
      "name": "DepositBoxWasChanged",
      "type": "event"
    },
    {
      "anonymous": false,
      "inputs": [
        {
          "indexed": true,
          "internalType": "address",
          "name": "erc1155OnMainnet",
          "type": "address"
        },
        {
          "indexed": true,
          "internalType": "address",
          "name": "erc1155OnSchain",
          "type": "address"
        }
      ],
      "name": "ERC1155TokenAdded",
      "type": "event"
    },
    {
      "anonymous": false,
      "inputs": [
        {
          "indexed": true,
          "internalType": "address",
          "name": "erc1155OnMainnet",
          "type": "address"
        },
        {
          "indexed": true,
          "internalType": "address",
          "name": "erc1155OnSchain",
          "type": "address"
        }
      ],
      "name": "ERC1155TokenCreated",
      "type": "event"
    },
    {
      "anonymous": false,
      "inputs": [
        {
          "indexed": true,
          "internalType": "address",
          "name": "erc1155OnMainnet",
          "type": "address"
        },
        {
          "indexed": true,
          "internalType": "address",
          "name": "erc1155OnSchain",
          "type": "address"
        },
        {
          "indexed": false,
          "internalType": "uint256[]",
          "name": "ids",
          "type": "uint256[]"
        },
        {
          "indexed": false,
          "internalType": "uint256[]",
          "name": "amounts",
          "type": "uint256[]"
        }
      ],
      "name": "ERC1155TokenReceived",
      "type": "event"
    },
    {
      "anonymous": false,
      "inputs": [
        {
          "indexed": true,
          "internalType": "bytes32",
          "name": "role",
          "type": "bytes32"
        },
        {
          "indexed": true,
          "internalType": "bytes32",
          "name": "previousAdminRole",
          "type": "bytes32"
        },
        {
          "indexed": true,
          "internalType": "bytes32",
          "name": "newAdminRole",
          "type": "bytes32"
        }
      ],
      "name": "RoleAdminChanged",
      "type": "event"
    },
    {
      "anonymous": false,
      "inputs": [
        {
          "indexed": true,
          "internalType": "bytes32",
          "name": "role",
          "type": "bytes32"
        },
        {
          "indexed": true,
          "internalType": "address",
          "name": "account",
          "type": "address"
        },
        {
          "indexed": true,
          "internalType": "address",
          "name": "sender",
          "type": "address"
        }
      ],
      "name": "RoleGranted",
      "type": "event"
    },
    {
      "anonymous": false,
      "inputs": [
        {
          "indexed": true,
          "internalType": "bytes32",
          "name": "role",
          "type": "bytes32"
        },
        {
          "indexed": true,
          "internalType": "address",
          "name": "account",
          "type": "address"
        },
        {
          "indexed": true,
          "internalType": "address",
          "name": "sender",
          "type": "address"
        }
      ],
      "name": "RoleRevoked",
      "type": "event"
    },
    {
      "inputs": [],
      "name": "AUTOMATIC_DEPLOY_ROLE",
      "outputs": [
        {
          "internalType": "bytes32",
          "name": "",
          "type": "bytes32"
        }
      ],
      "stateMutability": "view",
      "type": "function"
    },
    {
      "inputs": [],
      "name": "DEFAULT_ADMIN_ROLE",
      "outputs": [
        {
          "internalType": "bytes32",
          "name": "",
          "type": "bytes32"
        }
      ],
      "stateMutability": "view",
      "type": "function"
    },
    {
      "inputs": [],
      "name": "MAINNET_HASH",
      "outputs": [
        {
          "internalType": "bytes32",
          "name": "",
          "type": "bytes32"
        }
      ],
      "stateMutability": "view",
      "type": "function"
    },
    {
      "inputs": [],
      "name": "MAINNET_NAME",
      "outputs": [
        {
          "internalType": "string",
          "name": "",
          "type": "string"
        }
      ],
      "stateMutability": "view",
      "type": "function"
    },
    {
      "inputs": [],
      "name": "TOKEN_REGISTRAR_ROLE",
      "outputs": [
        {
          "internalType": "bytes32",
          "name": "",
          "type": "bytes32"
        }
      ],
      "stateMutability": "view",
      "type": "function"
    },
    {
      "inputs": [
        {
          "internalType": "address",
          "name": "erc1155OnMainnet",
          "type": "address"
        },
        {
          "internalType": "contract ERC1155OnChain",
          "name": "erc1155OnSchain",
          "type": "address"
        }
      ],
      "name": "addERC1155TokenByOwner",
      "outputs": [],
      "stateMutability": "nonpayable",
      "type": "function"
    },
    {
      "inputs": [
        {
          "internalType": "string",
          "name": "schainName",
          "type": "string"
        },
        {
          "internalType": "address",
          "name": "newTokenManager",
          "type": "address"
        }
      ],
      "name": "addTokenManager",
      "outputs": [],
      "stateMutability": "nonpayable",
      "type": "function"
    },
    {
      "inputs": [],
      "name": "automaticDeploy",
      "outputs": [
        {
          "internalType": "bool",
          "name": "",
          "type": "bool"
        }
      ],
      "stateMutability": "view",
      "type": "function"
    },
    {
      "inputs": [
        {
          "internalType": "address",
          "name": "newDepositBox",
          "type": "address"
        }
      ],
      "name": "changeDepositBoxAddress",
      "outputs": [],
      "stateMutability": "nonpayable",
      "type": "function"
    },
    {
      "inputs": [
        {
          "internalType": "address",
          "name": "",
          "type": "address"
        }
      ],
      "name": "clonesErc1155",
      "outputs": [
        {
          "internalType": "contract ERC1155OnChain",
          "name": "",
          "type": "address"
        }
      ],
      "stateMutability": "view",
      "type": "function"
    },
    {
      "inputs": [],
      "name": "communityLocker",
      "outputs": [
        {
          "internalType": "contract CommunityLocker",
          "name": "",
          "type": "address"
        }
      ],
      "stateMutability": "view",
      "type": "function"
    },
    {
      "inputs": [],
      "name": "depositBox",
      "outputs": [
        {
          "internalType": "address",
          "name": "",
          "type": "address"
        }
      ],
      "stateMutability": "view",
      "type": "function"
    },
    {
      "inputs": [],
      "name": "disableAutomaticDeploy",
      "outputs": [],
      "stateMutability": "nonpayable",
      "type": "function"
    },
    {
      "inputs": [],
      "name": "enableAutomaticDeploy",
      "outputs": [],
      "stateMutability": "nonpayable",
      "type": "function"
    },
    {
      "inputs": [
        {
          "internalType": "address",
          "name": "contractOnMainnet",
          "type": "address"
        },
        {
          "internalType": "address",
          "name": "to",
          "type": "address"
        },
        {
          "internalType": "uint256",
          "name": "id",
          "type": "uint256"
        },
        {
          "internalType": "uint256",
          "name": "amount",
          "type": "uint256"
        }
      ],
      "name": "exitToMainERC1155",
      "outputs": [],
      "stateMutability": "nonpayable",
      "type": "function"
    },
    {
      "inputs": [
        {
          "internalType": "address",
          "name": "contractOnMainnet",
          "type": "address"
        },
        {
          "internalType": "address",
          "name": "to",
          "type": "address"
        },
        {
          "internalType": "uint256[]",
          "name": "ids",
          "type": "uint256[]"
        },
        {
          "internalType": "uint256[]",
          "name": "amounts",
          "type": "uint256[]"
        }
      ],
      "name": "exitToMainERC1155Batch",
      "outputs": [],
      "stateMutability": "nonpayable",
      "type": "function"
    },
    {
      "inputs": [
        {
          "internalType": "bytes32",
          "name": "role",
          "type": "bytes32"
        }
      ],
      "name": "getRoleAdmin",
      "outputs": [
        {
          "internalType": "bytes32",
          "name": "",
          "type": "bytes32"
        }
      ],
      "stateMutability": "view",
      "type": "function"
    },
    {
      "inputs": [
        {
          "internalType": "bytes32",
          "name": "role",
          "type": "bytes32"
        },
        {
          "internalType": "uint256",
          "name": "index",
          "type": "uint256"
        }
      ],
      "name": "getRoleMember",
      "outputs": [
        {
          "internalType": "address",
          "name": "",
          "type": "address"
        }
      ],
      "stateMutability": "view",
      "type": "function"
    },
    {
      "inputs": [
        {
          "internalType": "bytes32",
          "name": "role",
          "type": "bytes32"
        }
      ],
      "name": "getRoleMemberCount",
      "outputs": [
        {
          "internalType": "uint256",
          "name": "",
          "type": "uint256"
        }
      ],
      "stateMutability": "view",
      "type": "function"
    },
    {
      "inputs": [
        {
          "internalType": "bytes32",
          "name": "role",
          "type": "bytes32"
        },
        {
          "internalType": "address",
          "name": "account",
          "type": "address"
        }
      ],
      "name": "grantRole",
      "outputs": [],
      "stateMutability": "nonpayable",
      "type": "function"
    },
    {
      "inputs": [
        {
          "internalType": "bytes32",
          "name": "role",
          "type": "bytes32"
        },
        {
          "internalType": "address",
          "name": "account",
          "type": "address"
        }
      ],
      "name": "hasRole",
      "outputs": [
        {
          "internalType": "bool",
          "name": "",
          "type": "bool"
        }
      ],
      "stateMutability": "view",
      "type": "function"
    },
    {
      "inputs": [
        {
          "internalType": "string",
          "name": "schainName",
          "type": "string"
        }
      ],
      "name": "hasTokenManager",
      "outputs": [
        {
          "internalType": "bool",
          "name": "",
          "type": "bool"
        }
      ],
      "stateMutability": "view",
      "type": "function"
    },
    {
      "inputs": [
        {
          "internalType": "string",
          "name": "newChainName",
          "type": "string"
        },
        {
          "internalType": "contract MessageProxyForSchain",
          "name": "newMessageProxy",
          "type": "address"
        },
        {
          "internalType": "contract TokenManagerLinker",
          "name": "newIMALinker",
          "type": "address"
        },
        {
          "internalType": "contract CommunityLocker",
          "name": "newCommunityLocker",
          "type": "address"
        },
        {
          "internalType": "address",
          "name": "newDepositBox",
          "type": "address"
        }
      ],
      "name": "initialize",
      "outputs": [],
      "stateMutability": "nonpayable",
      "type": "function"
    },
    {
      "inputs": [
        {
          "internalType": "string",
          "name": "newSchainName",
          "type": "string"
        },
        {
          "internalType": "contract MessageProxyForSchain",
          "name": "newMessageProxy",
          "type": "address"
        },
        {
          "internalType": "contract TokenManagerLinker",
          "name": "newIMALinker",
          "type": "address"
        },
        {
          "internalType": "contract CommunityLocker",
          "name": "newCommunityLocker",
          "type": "address"
        },
        {
          "internalType": "address",
          "name": "newDepositBox",
          "type": "address"
        }
      ],
      "name": "initializeTokenManager",
      "outputs": [],
      "stateMutability": "nonpayable",
      "type": "function"
    },
    {
      "inputs": [],
      "name": "messageProxy",
      "outputs": [
        {
          "internalType": "contract MessageProxyForSchain",
          "name": "",
          "type": "address"
        }
      ],
      "stateMutability": "view",
      "type": "function"
    },
    {
      "inputs": [
        {
          "internalType": "bytes32",
          "name": "fromChainHash",
          "type": "bytes32"
        },
        {
          "internalType": "address",
          "name": "sender",
          "type": "address"
        },
        {
          "internalType": "bytes",
          "name": "data",
          "type": "bytes"
        }
      ],
      "name": "postMessage",
      "outputs": [
        {
          "internalType": "address",
          "name": "",
          "type": "address"
        }
      ],
      "stateMutability": "nonpayable",
      "type": "function"
    },
    {
      "inputs": [
        {
          "internalType": "string",
          "name": "schainName",
          "type": "string"
        }
      ],
      "name": "removeTokenManager",
      "outputs": [],
      "stateMutability": "nonpayable",
      "type": "function"
    },
    {
      "inputs": [
        {
          "internalType": "bytes32",
          "name": "role",
          "type": "bytes32"
        },
        {
          "internalType": "address",
          "name": "account",
          "type": "address"
        }
      ],
      "name": "renounceRole",
      "outputs": [],
      "stateMutability": "nonpayable",
      "type": "function"
    },
    {
      "inputs": [
        {
          "internalType": "bytes32",
          "name": "role",
          "type": "bytes32"
        },
        {
          "internalType": "address",
          "name": "account",
          "type": "address"
        }
      ],
      "name": "revokeRole",
      "outputs": [],
      "stateMutability": "nonpayable",
      "type": "function"
    },
    {
      "inputs": [],
      "name": "schainHash",
      "outputs": [
        {
          "internalType": "bytes32",
          "name": "",
          "type": "bytes32"
        }
      ],
      "stateMutability": "view",
      "type": "function"
    },
    {
      "inputs": [
        {
          "internalType": "bytes4",
          "name": "interfaceId",
          "type": "bytes4"
        }
      ],
      "name": "supportsInterface",
      "outputs": [
        {
          "internalType": "bool",
          "name": "",
          "type": "bool"
        }
      ],
      "stateMutability": "view",
      "type": "function"
    },
    {
      "inputs": [],
      "name": "tokenManagerLinker",
      "outputs": [
        {
          "internalType": "contract TokenManagerLinker",
          "name": "",
          "type": "address"
        }
      ],
      "stateMutability": "view",
      "type": "function"
    },
    {
      "inputs": [
        {
          "internalType": "bytes32",
          "name": "",
          "type": "bytes32"
        }
      ],
      "name": "tokenManagers",
      "outputs": [
        {
          "internalType": "address",
          "name": "",
          "type": "address"
        }
      ],
      "stateMutability": "view",
      "type": "function"
    },
    {
      "inputs": [
        {
          "internalType": "string",
          "name": "targetSchainName",
          "type": "string"
        },
        {
          "internalType": "address",
          "name": "contractOnMainnet",
          "type": "address"
        },
        {
          "internalType": "address",
          "name": "to",
          "type": "address"
        },
        {
          "internalType": "uint256",
          "name": "id",
          "type": "uint256"
        },
        {
          "internalType": "uint256",
          "name": "amount",
          "type": "uint256"
        }
      ],
      "name": "transferToSchainERC1155",
      "outputs": [],
      "stateMutability": "nonpayable",
      "type": "function"
    },
    {
      "inputs": [
        {
          "internalType": "string",
          "name": "targetSchainName",
          "type": "string"
        },
        {
          "internalType": "address",
          "name": "contractOnMainnet",
          "type": "address"
        },
        {
          "internalType": "address",
          "name": "to",
          "type": "address"
        },
        {
          "internalType": "uint256[]",
          "name": "ids",
          "type": "uint256[]"
        },
        {
          "internalType": "uint256[]",
          "name": "amounts",
          "type": "uint256[]"
        }
      ],
      "name": "transferToSchainERC1155Batch",
      "outputs": [],
      "stateMutability": "nonpayable",
      "type": "function"
    }
  ],
  "bytecode": "0x608060405234801561001057600080fd5b50616dc1806100206000396000f3fe60806040523480156200001157600080fd5b50600436106200023d5760003560e01c80636ce681d2116200013d578063b9581c5011620000bb578063cc5b715b1162000086578063cc5b715b146200053d578063d547741f1462000565578063dec2deb6146200057c578063e7ece2281462000591578063edcc12b514620005a857600080fd5b8063b9581c5014620004ee578063c0e312dc14620004f8578063ca15c873146200050f578063cb703bff146200052657600080fd5b80639010d07c11620001085780639010d07c146200048957806391d1485414620004a0578063a217fddf14620004b7578063ade6867614620004c0578063b626a44f14620004d757600080fd5b80636ce681d214620004335780636d611286146200044a5780636d6c68e6146200045e578063884cee5a146200047257600080fd5b80632f2ff15d11620001cb5780633fa194ce11620001965780633fa194ce146200038f57806350f4428014620003a65780635492d3b514620003dc5780635573b8b614620003f35780636685bde5146200040757600080fd5b80632f2ff15d146200034057806336568abe146200035757806339927cf9146200036e5780633b690b6b146200038557600080fd5b80630f1a8f74116200020c5780630f1a8f7414620002a8578063248a9ca314620002ed57806328c5e18214620003225780632dc151de146200032c57600080fd5b806301ffc9a71462000242578063029996b8146200026e578063066ee47f146200027a5780630b885ac31462000291575b600080fd5b6200025962000253366004620030ac565b620005bf565b60405190151581526020015b60405180910390f35b62000278620005ed565b005b620002786200028b36600462003197565b62000645565b62000278620002a2366004620032db565b620007ff565b620002d4620002b936600462002fe6565b60ce602052600090815260409020546001600160a01b031681565b6040516001600160a01b03909116815260200162000265565b62000313620002fe36600462002fe6565b60009081526065602052604090206001015490565b60405190815260200162000265565b6200031362000885565b60ca54620002d4906001600160a01b031681565b620002786200035136600462003000565b620008d0565b620002786200036836600462003000565b620008fb565b620002596200037f366004620030f6565b62000921565b6200031360cc5481565b6200031360008051602062006d6c83398151915281565b620003cd6040518060400160405280600781526020016613585a5b9b995d60ca1b81525081565b60405162000265919062003706565b62000278620003ed3660046200325a565b6200097e565b60c954620002d4906001600160a01b031681565b620002d46200041836600462002e86565b60cf602052600090815260409020546001600160a01b031681565b6200027862000444366004620032db565b62000b2c565b60cd54620002d4906001600160a01b031681565b60cb54620002d4906001600160a01b031681565b620002d46200048336600462003028565b62000d01565b620002d46200049a36600462003089565b62000f3e565b62000259620004b136600462003000565b62000f5f565b62000313600081565b62000278620004d136600462002ea6565b62000f8a565b62000278620004e836600462002f84565b62001055565b620002786200117f565b6200027862000509366004620030f6565b620011c8565b620003136200052036600462002fe6565b620012e6565b62000278620005373660046200313b565b620012ff565b620003137ffda70c2cc66a36c14884ee85424961f51b1d92b4494751699b6d105b3bcbcba881565b620002786200057636600462003000565b62001457565b60cd546200025990600160a01b900460ff1681565b62000278620005a236600462002f39565b62001463565b62000278620005b936600462002e86565b62001528565b60006001600160e01b03198216635a05180f60e01b1480620005e75750620005e78262001644565b92915050565b6200060860008051602062006d6c8339815191523362000f5f565b620006305760405162461bcd60e51b81526004016200062790620037a2565b60405180910390fd5b60cd805460ff60a01b1916600160a01b179055565b85858080601f0160208091040260200160405190810160405280939291908181526020018383808284376000920182905250604051889450909250620006919150849060200162003577565b60408051601f1981840301815282825280516020918201208383018352600784526613585a5b9b995d60ca1b848301529151919350620006d392910162003577565b604051602081830303815290604052805190602001208114156200070b5760405162461bcd60e51b8152600401620006279062003752565b6001600160a01b038216620007635760405162461bcd60e51b815260206004820152601a60248201527f496e636f72726563742072656365697665722061646472657373000000000000604482015260640162000627565b600081815260ce60205260409020546001600160a01b03166200079a5760405162461bcd60e51b815260040162000627906200371b565b60008989604051602001620007b192919062003567565b60408051601f198184030181529181528151602092830120600081815260ce909352912054909150620007f39082906001600160a01b03168a8a8a8a6200167b565b50505050505050505050565b600054610100900460ff168062000819575060005460ff16155b620008385760405162461bcd60e51b81526004016200062790620037e3565b600054610100900460ff161580156200085b576000805461ffff19166101011790555b6200086a868686868662000b2c565b80156200087d576000805461ff00191690555b505050505050565b6040518060400160405280600781526020016613585a5b9b995d60ca1b815250604051602001620008b7919062003577565b6040516020818303038152906040528051906020012081565b620008dc828262001897565b6000828152609760205260409020620008f69082620018c1565b505050565b620009078282620018d8565b6000828152609760205260409020620008f690826200195a565b6000806001600160a01b031660ce600085856040516020016200094692919062003567565b60408051808303601f19018152918152815160209283012083529082019290925201600020546001600160a01b031614159392505050565b85858080601f0160208091040260200160405190810160405280939291908181526020018383808284376000920182905250604051889450909250620009ca9150849060200162003577565b60408051601f1981840301815282825280516020918201208383018352600784526613585a5b9b995d60ca1b84830152915191935062000a0c92910162003577565b6040516020818303038152906040528051906020012081141562000a445760405162461bcd60e51b8152600401620006279062003752565b6001600160a01b03821662000a9c5760405162461bcd60e51b815260206004820152601a60248201527f496e636f72726563742072656365697665722061646472657373000000000000604482015260640162000627565b600081815260ce60205260409020546001600160a01b031662000ad35760405162461bcd60e51b815260040162000627906200371b565b6000898960405160200162000aea92919062003567565b60408051601f198184030181529181528151602092830120600081815260ce909352912054909150620007f39082906001600160a01b03168a8a8a8a62001971565b600054610100900460ff168062000b46575060005460ff16155b62000b655760405162461bcd60e51b81526004016200062790620037e3565b600054610100900460ff1615801562000b88576000805461ffff19166101011790555b6001600160a01b03821662000be05760405162461bcd60e51b815260206004820181905260248201527f4465706f736974426f7820616464726573732068617320746f20626520736574604482015260640162000627565b62000bea62001b1b565b62000bf760003362001bb5565b62000c1260008051602062006d6c8339815191523362001bb5565b62000c3e7ffda70c2cc66a36c14884ee85424961f51b1d92b4494751699b6d105b3bcbcba83362001bb5565b8560405160200162000c51919062003577565b60408051601f19818403018152828252805160209182012060cc5560c980546001600160a01b038a81166001600160a01b03199283161790925560ca80548a841690831617905560cb805489841690831617905560cd8054928816929091168217905560008452908301527fc968af77923193016f61d74ba6827296db5e1f37ec4fab3ad1ef20e193395e59910160405180910390a180156200087d576000805461ff0019169055505050505050565b60c9546000906001600160a01b0316331462000d605760405162461bcd60e51b815260206004820152601c60248201527f53656e646572206973206e6f742061204d65737361676550726f787900000000604482015260640162000627565b848460cc54821415801562000df457506040518060400160405280600781526020016613585a5b9b995d60ca1b81525060405160200162000da2919062003577565b60405160208183030381529060405280519060200120821462000de257600082815260ce60205260409020546001600160a01b0382811691161462000df4565b60cd546001600160a01b038281169116145b62000e425760405162461bcd60e51b815260206004820152601b60248201527f526563656976657220636861696e20697320696e636f72726563740000000000604482015260640162000627565b600062000e50868662001bc1565b90506000600982600c81111562000e6b5762000e6b62003aa1565b148062000e8c5750600a82600c81111562000e8a5762000e8a62003aa1565b145b1562000ea65762000e9e878762001c15565b905062000f32565b600b82600c81111562000ebd5762000ebd62003aa1565b148062000ede5750600c82600c81111562000edc5762000edc62003aa1565b145b1562000ef05762000e9e878762001ed4565b60405162461bcd60e51b815260206004820152601660248201527526b2b9b9b0b3b2aa3cb8329034b9903ab735b737bbb760511b604482015260640162000627565b98975050505050505050565b600082815260976020526040812062000f58908362002158565b9392505050565b60009182526065602090815260408084206001600160a01b0393909316845291905290205460ff1690565b60cb546040516311be333d60e11b81526001600160a01b0385811660048301529091169063237c667a90602401600060405180830381600087803b15801562000fd257600080fd5b505af115801562000fe7573d6000803e3d6000fd5b505050506200104f6040518060400160405280600781526020016613585a5b9b995d60ca1b81525060405160200162001021919062003577565b60408051601f19818403018152919052805160209091012060cd546001600160a01b0316868686866200167b565b50505050565b620010817ffda70c2cc66a36c14884ee85424961f51b1d92b4494751699b6d105b3bcbcba83362000f5f565b620010cf5760405162461bcd60e51b815260206004820181905260248201527f544f4b454e5f5245474953545241525f524f4c45206973207265717569726564604482015260640162000627565b6001600160a01b0381163b620011285760405162461bcd60e51b815260206004820152601f60248201527f476976656e2061646472657373206973206e6f74206120636f6e747261637400604482015260640162000627565b6001600160a01b03828116600081815260cf602052604080822080546001600160a01b0319169486169485179055517f096b3e2c36bc263e90f7577e70dc47b6536fc8d85d467d54f61f91c2ca091c519190a35050565b6200119a60008051602062006d6c8339815191523362000f5f565b620011b95760405162461bcd60e51b81526004016200062790620037a2565b60cd805460ff60a01b19169055565b60ca546001600160a01b0316331480620011ea5750620011ea60003362000f5f565b620012305760405162461bcd60e51b81526020600482015260156024820152742737ba1030baba3437b934bd32b21031b0b63632b960591b604482015260640162000627565b600082826040516020016200124792919062003567565b60408051601f198184030181529181528151602092830120600081815260ce9093529120549091506001600160a01b0316620012c65760405162461bcd60e51b815260206004820152601860248201527f546f6b656e204d616e61676572206973206e6f74207365740000000000000000604482015260640162000627565b600090815260ce6020526040902080546001600160a01b03191690555050565b6000818152609760205260408120620005e79062002166565b60ca546001600160a01b03163314806200132157506200132160003362000f5f565b620013675760405162461bcd60e51b81526020600482015260156024820152742737ba1030baba3437b934bd32b21031b0b63632b960591b604482015260640162000627565b600083836040516020016200137e92919062003567565b60408051601f198184030181529181528151602092830120600081815260ce9093529120549091506001600160a01b031615620013fe5760405162461bcd60e51b815260206004820152601c60248201527f546f6b656e204d616e6167657220697320616c72656164792073657400000000604482015260640162000627565b6001600160a01b038216620014275760405162461bcd60e51b815260040162000627906200371b565b600090815260ce6020526040902080546001600160a01b0319166001600160a01b03929092169190911790555050565b62000907828262002171565b60cb546040516311be333d60e11b81526001600160a01b0385811660048301529091169063237c667a90602401600060405180830381600087803b158015620014ab57600080fd5b505af1158015620014c0573d6000803e3d6000fd5b505050506200104f6040518060400160405280600781526020016613585a5b9b995d60ca1b815250604051602001620014fa919062003577565b60408051601f19818403018152919052805160209091012060cd546001600160a01b03168686868662001971565b6200153560003362000f5f565b620015835760405162461bcd60e51b815260206004820152601e60248201527f44454641554c545f41444d494e5f524f4c452069732072657175697265640000604482015260640162000627565b6001600160a01b038116620015db5760405162461bcd60e51b815260206004820181905260248201527f4465706f736974426f7820616464726573732068617320746f20626520736574604482015260640162000627565b60cd54604080516001600160a01b03928316815291831660208301527fc968af77923193016f61d74ba6827296db5e1f37ec4fab3ad1ef20e193395e59910160405180910390a160cd80546001600160a01b0319166001600160a01b0392909216919091179055565b60006001600160e01b03198216637965db0b60e01b1480620005e757506301ffc9a760e01b6001600160e01b0319831614620005e7565b6001600160a01b03848116600090815260cf602052604090205416803b620016e15760405162461bcd60e51b81526020600482015260186024820152772737903a37b5b2b71031b637b7329037b71039b1b430b4b760411b604482015260640162000627565b60405163e985e9c560e01b81523360048201523060248201526001600160a01b0382169063e985e9c59060440160206040518083038186803b1580156200172757600080fd5b505afa1580156200173c573d6000803e3d6000fd5b505050506040513d601f19601f8201168201806040525081019062001762919062002fc2565b620017ac5760405162461bcd60e51b81526020600482015260196024820152782737ba1030b63637bbb2b21022a92198989a9a902a37b5b2b760391b604482015260640162000627565b604051631ac8311560e21b81526001600160a01b03821690636b20c45490620017de903390879087906004016200360e565b600060405180830381600087803b158015620017f957600080fd5b505af11580156200180e573d6000803e3d6000fd5b50505050600062001822868686866200219b565b60c954604051634a24490160e11b81529192506001600160a01b03169063944892029062001859908b908b908690600401620036da565b600060405180830381600087803b1580156200187457600080fd5b505af115801562001889573d6000803e3d6000fd5b505050505050505050505050565b600082815260656020526040902060010154620018b5813362002204565b620008f6838362002273565b600062000f58836001600160a01b038416620022fd565b6001600160a01b03811633146200194a5760405162461bcd60e51b815260206004820152602f60248201527f416363657373436f6e74726f6c3a2063616e206f6e6c792072656e6f756e636560448201526e103937b632b9903337b91039b2b63360891b606482015260840162000627565b6200195682826200234f565b5050565b600062000f58836001600160a01b038416620023b9565b6001600160a01b03848116600090815260cf602052604090205416803b620019d75760405162461bcd60e51b81526020600482015260186024820152772737903a37b5b2b71031b637b7329037b71039b1b430b4b760411b604482015260640162000627565b60405163e985e9c560e01b81523360048201523060248201526001600160a01b0382169063e985e9c59060440160206040518083038186803b15801562001a1d57600080fd5b505afa15801562001a32573d6000803e3d6000fd5b505050506040513d601f19601f8201168201806040525081019062001a58919062002fc2565b62001aa25760405162461bcd60e51b81526020600482015260196024820152782737ba1030b63637bbb2b21022a92198989a9a902a37b5b2b760391b604482015260640162000627565b604051637a94c56560e11b815233600482015260248101849052604481018390526001600160a01b0382169063f5298aca90606401600060405180830381600087803b15801562001af257600080fd5b505af115801562001b07573d6000803e3d6000fd5b5050505060006200182286868686620024b6565b600054610100900460ff168062001b35575060005460ff16155b62001b545760405162461bcd60e51b81526004016200062790620037e3565b600054610100900460ff1615801562001b77576000805461ffff19166101011790555b62001b8162002505565b62001b8b62002505565b62001b9562002505565b62001b9f62002505565b801562001bb2576000805461ff00191690555b50565b620008dc828262002575565b60008062001bd28385018562002fe6565b905062001be160208262003a68565b62001c075762001bfe62001bf8848381886200399c565b62001bc1565b915050620005e7565b62001bfe83850185620030d8565b60008062001c24848462001bc1565b9050600080808080600986600c81111562001c435762001c4362003aa1565b141562001c9f57600062001c588a8a62002581565b60408082015160208084015160608501516080909501516001600160a01b03808316600090815260cf9094529490922054929a50985092965091945016915062001deb9050565b600062001cad8a8a6200263d565b805160408082015160208084015160608501516080909501516001600160a01b03808316600090815260cf9094529490922054929b50995092975091955016925090508162001de95760cd54600160a01b900460ff1662001d515760405162461bcd60e51b815260206004820152601c60248201527f4175746f6d61746963206465706c6f792069732064697361626c656400000000604482015260640162000627565b60208101515160405162001d659062002ad5565b62001d71919062003706565b604051809103906000f08015801562001d8e573d6000803e3d6000fd5b506001600160a01b03868116600081815260cf602052604080822080546001600160a01b031916948616948517905551939550919290917ff591ef422bd6af456a3cad967032f043099a7d9838494d88ba15d16a89f50b7491a35b505b60405163731133e960e01b81526001600160a01b0386811660048301526024820185905260448201849052608060648301526000608483015282169063731133e99060a401600060405180830381600087803b15801562001e4b57600080fd5b505af115801562001e60573d6000803e3d6000fd5b50505050806001600160a01b0316846001600160a01b03167f84899afd4ab55115c2eab5a59471e73bc42359e7c3d4e5a3c1aa4837bd20ed5562001ea486620026df565b62001eaf86620026df565b60405162001ebf929190620036a8565b60405180910390a35092979650505050505050565b60008062001ee3848462001bc1565b905060008060608082600b86600c81111562001f035762001f0362003aa1565b141562001f5f57600062001f188a8a62002729565b60408082015160208084015160608501516080909501516001600160a01b03808316600090815260cf9094529490922054929a509850929650919450169150620020ab9050565b600062001f6d8a8a620027ea565b805160408082015160208084015160608501516080909501516001600160a01b03808316600090815260cf9094529490922054929b509950929750919550169250905081620020a95760cd54600160a01b900460ff16620020115760405162461bcd60e51b815260206004820152601c60248201527f4175746f6d61746963206465706c6f792069732064697361626c656400000000604482015260640162000627565b602081015151604051620020259062002ad5565b62002031919062003706565b604051809103906000f0801580156200204e573d6000803e3d6000fd5b506001600160a01b03868116600081815260cf602052604080822080546001600160a01b031916948616948517905551939550919290917ff591ef422bd6af456a3cad967032f043099a7d9838494d88ba15d16a89f50b7491a35b505b604051630fbfeffd60e11b81526001600160a01b03821690631f7fdffa90620020dd9088908790879060040162003652565b600060405180830381600087803b158015620020f857600080fd5b505af11580156200210d573d6000803e3d6000fd5b50505050806001600160a01b0316846001600160a01b03167f84899afd4ab55115c2eab5a59471e73bc42359e7c3d4e5a3c1aa4837bd20ed55858560405162001ebf929190620036a8565b600062000f58838362002891565b6000620005e7825490565b6000828152606560205260409020600101546200218f813362002204565b620008f683836200234f565b6040805160c081018252600b60a0820190815281526001600160a01b03808716602080840191909152908616828401526060808301869052608083018590529251620021ea9183910162003831565b604051602081830303815290604052915050949350505050565b62002210828262000f5f565b62001956576200222b816001600160a01b031660146200291c565b620022388360206200291c565b6040516020016200224b92919062003595565b60408051601f198184030181529082905262461bcd60e51b8252620006279160040162003706565b6200227f828262000f5f565b620019565760008281526065602090815260408083206001600160a01b03851684529091529020805460ff19166001179055620022b93390565b6001600160a01b0316816001600160a01b0316837f2f8788117e7eff1d82e926ec794901d17c78024a50270940304540a733656f0d60405160405180910390a45050565b60008181526001830160205260408120546200234657508154600181810184556000848152602080822090930184905584548482528286019093526040902091909155620005e7565b506000620005e7565b6200235b828262000f5f565b15620019565760008281526065602090815260408083206001600160a01b0385168085529252808320805460ff1916905551339285917ff6391f5c32d9c69d2a47ea670b442974b53935d1edc7fd64eb21e047a839171b9190a45050565b60008181526001830160205260408120548015620024ab576000620023e060018362003a05565b8554909150600090620023f69060019062003a05565b9050600086600001828154811062002412576200241262003acd565b906000526020600020015490508087600001848154811062002438576200243862003acd565b6000918252602080832090910192909255828152600189019091526040902084905586548790806200246e576200246e62003ab7565b60019003818190600052602060002001600090559055866001016000878152602001908152602001600020600090556001945050505050620005e7565b6000915050620005e7565b6040805160c081018252600960a0820190815281526001600160a01b03808716602080840191909152908616828401526060808301869052608083018590529251620021ea91839101620038a3565b600054610100900460ff16806200251f575060005460ff16155b6200253e5760405162461bcd60e51b81526004016200062790620037e3565b600054610100900460ff1615801562001b9f576000805461ffff1916610101179055801562001bb2576000805461ff001916905550565b62001956828262002273565b6040805160c081018252600060a082018181528252602082018190529181018290526060810182905260808101919091526009620025c0848462001bc1565b600c811115620025d457620025d462003aa1565b146200262f5760405162461bcd60e51b8152602060048201526024808201527f4d6573736167652074797065206973206e6f742045524331313535207472616e60448201526339b332b960e11b606482015260840162000627565b62000f5882840184620034b6565b6200264762002ae3565b600a62002655848462001bc1565b600c81111562002669576200266962003aa1565b14620026d15760405162461bcd60e51b815260206004820152603060248201527f4d6573736167652074797065206973206e6f742045524331313535416e64546f60448201526f35b2b724b73337903a3930b739b332b960811b606482015260840162000627565b62000f588284018462003370565b60408051600180825281830190925260609160208083019080368337019050509050818160008151811062002718576200271862003acd565b602002602001018181525050919050565b6040805160c081018252600060a082018181528252602082018190529181019190915260608082018190526080820152600b62002767848462001bc1565b600c8111156200277b576200277b62003aa1565b14620027dc5760405162461bcd60e51b815260206004820152602960248201527f4d6573736167652074797065206973206e6f7420455243313135354261746368604482015268103a3930b739b332b960b91b606482015260840162000627565b62000f588284018462003476565b620027f462002b3c565b600c62002802848462001bc1565b600c81111562002816576200281662003aa1565b14620028835760405162461bcd60e51b815260206004820152603560248201527f4d6573736167652074797065206973206e6f742045524331313535426174636860448201527420b7322a37b5b2b724b73337903a3930b739b332b960591b606482015260840162000627565b62000f5882840184620033f8565b81546000908210620028f15760405162461bcd60e51b815260206004820152602260248201527f456e756d657261626c655365743a20696e646578206f7574206f6620626f756e604482015261647360f01b606482015260840162000627565b82600001828154811062002909576200290962003acd565b9060005260206000200154905092915050565b606060006200292d836002620039e3565b6200293a906002620039c8565b6001600160401b0381111562002954576200295462003ae3565b6040519080825280601f01601f1916602001820160405280156200297f576020820181803683370190505b509050600360fc1b816000815181106200299d576200299d62003acd565b60200101906001600160f81b031916908160001a905350600f60fb1b81600181518110620029cf57620029cf62003acd565b60200101906001600160f81b031916908160001a9053506000620029f5846002620039e3565b62002a02906001620039c8565b90505b600181111562002a84576f181899199a1a9b1b9c1cb0b131b232b360811b85600f166010811062002a3a5762002a3a62003acd565b1a60f81b82828151811062002a535762002a5362003acd565b60200101906001600160f81b031916908160001a90535060049490941c9362002a7c8162003a4e565b905062002a05565b50831562000f585760405162461bcd60e51b815260206004820181905260248201527f537472696e67733a20686578206c656e67746820696e73756666696369656e74604482015260640162000627565b61325c8062003b1083390190565b6040805161010081018252600060e08201818152928201928352606082018190526080820181905260a0820181905260c08201529081905b815260200162002b376040518060200160405280606081525090565b905290565b6040805161010081018252600060e082018181529282019283526060808301829052608083019190915260a0820181905260c082015290819062002b1b565b600082601f83011262002b8d57600080fd5b813560206001600160401b0382111562002bab5762002bab62003ae3565b8160051b62002bbc82820162003969565b83815282810190868401838801850189101562002bd857600080fd5b600093505b8584101562002bfd57803583526001939093019291840191840162002bdd565b50979650505050505050565b60008083601f84011262002c1c57600080fd5b5081356001600160401b0381111562002c3457600080fd5b60208301915083602082850101111562002c4d57600080fd5b9250929050565b8035600d811062002c6457600080fd5b919050565b600082601f83011262002c7b57600080fd5b81356001600160401b0381111562002c975762002c9762003ae3565b62002cac601f8201601f191660200162003969565b81815284602083860101111562002cc257600080fd5b816020850160208301376000918101602001919091529392505050565b60006020828403121562002cf257600080fd5b62002cfc620038f4565b905062002d098262002c54565b815292915050565b60006020828403121562002d2457600080fd5b62002d2e620038f4565b905081356001600160401b0381111562002d4757600080fd5b62002d558482850162002c69565b82525092915050565b600060a0828403121562002d7157600080fd5b62002d7b6200391f565b905062002d89838362002cdf565b8152602082013562002d9b8162003af9565b6020820152604082013562002db08162003af9565b604082015260608201356001600160401b038082111562002dd057600080fd5b62002dde8583860162002b7b565b6060840152608084013591508082111562002df857600080fd5b5062002e078482850162002b7b565b60808301525092915050565b600060a0828403121562002e2657600080fd5b62002e306200391f565b905062002e3e838362002cdf565b8152602082013562002e508162003af9565b6020820152604082013562002e658162003af9565b80604083015250606082013560608201526080820135608082015292915050565b60006020828403121562002e9957600080fd5b813562000f588162003af9565b6000806000806080858703121562002ebd57600080fd5b843562002eca8162003af9565b9350602085013562002edc8162003af9565b925060408501356001600160401b038082111562002ef957600080fd5b62002f078883890162002b7b565b9350606087013591508082111562002f1e57600080fd5b5062002f2d8782880162002b7b565b91505092959194509250565b6000806000806080858703121562002f5057600080fd5b843562002f5d8162003af9565b9350602085013562002f6f8162003af9565b93969395505050506040820135916060013590565b6000806040838503121562002f9857600080fd5b823562002fa58162003af9565b9150602083013562002fb78162003af9565b809150509250929050565b60006020828403121562002fd557600080fd5b8151801515811462000f5857600080fd5b60006020828403121562002ff957600080fd5b5035919050565b600080604083850312156200301457600080fd5b82359150602083013562002fb78162003af9565b600080600080606085870312156200303f57600080fd5b843593506020850135620030538162003af9565b925060408501356001600160401b038111156200306f57600080fd5b6200307d8782880162002c09565b95989497509550505050565b600080604083850312156200309d57600080fd5b50508035926020909101359150565b600060208284031215620030bf57600080fd5b81356001600160e01b03198116811462000f5857600080fd5b600060208284031215620030eb57600080fd5b62000f588262002c54565b600080602083850312156200310a57600080fd5b82356001600160401b038111156200312157600080fd5b6200312f8582860162002c09565b90969095509350505050565b6000806000604084860312156200315157600080fd5b83356001600160401b038111156200316857600080fd5b620031768682870162002c09565b90945092505060208401356200318c8162003af9565b809150509250925092565b60008060008060008060a08789031215620031b157600080fd5b86356001600160401b0380821115620031c957600080fd5b620031d78a838b0162002c09565b909850965060208901359150620031ee8262003af9565b909450604088013590620032028262003af9565b909350606088013590808211156200321957600080fd5b620032278a838b0162002b7b565b935060808901359150808211156200323e57600080fd5b506200324d89828a0162002b7b565b9150509295509295509295565b60008060008060008060a087890312156200327457600080fd5b86356001600160401b038111156200328b57600080fd5b6200329989828a0162002c09565b9097509550506020870135620032af8162003af9565b93506040870135620032c18162003af9565b959894975092956060810135946080909101359350915050565b600080600080600060a08688031215620032f457600080fd5b85356001600160401b038111156200330b57600080fd5b620033198882890162002c69565b95505060208601356200332c8162003af9565b935060408601356200333e8162003af9565b92506060860135620033508162003af9565b91506080860135620033628162003af9565b809150509295509295909350565b6000602082840312156200338357600080fd5b81356001600160401b03808211156200339b57600080fd5b9083019060c08286031215620033b057600080fd5b620033ba62003944565b620033c6868462002e13565b815260a083013582811115620033db57600080fd5b620033e98782860162002d11565b60208301525095945050505050565b6000602082840312156200340b57600080fd5b81356001600160401b03808211156200342357600080fd5b90830190604082860312156200343857600080fd5b6200344262003944565b8235828111156200345257600080fd5b620034608782860162002d5e565b825250602083013582811115620033db57600080fd5b6000602082840312156200348957600080fd5b81356001600160401b03811115620034a057600080fd5b620034ae8482850162002d5e565b949350505050565b600060a08284031215620034c957600080fd5b62000f58838362002e13565b600081518084526020808501945080840160005b838110156200350757815187529582019590820190600101620034e9565b509495945050505050565b600081518084526200352c81602086016020860162003a1f565b601f01601f19169290920160200192915050565b8051600d81106200356157634e487b7160e01b600052602160045260246000fd5b90915250565b8183823760009101908152919050565b600082516200358b81846020870162003a1f565b9190910192915050565b7f416363657373436f6e74726f6c3a206163636f756e7420000000000000000000815260008351620035cf81601785016020880162003a1f565b7001034b99036b4b9b9b4b733903937b6329607d1b60179184019182015283516200360281602884016020880162003a1f565b01602801949350505050565b6001600160a01b03841681526060602082018190526000906200363490830185620034d5565b8281036040840152620036488185620034d5565b9695505050505050565b6001600160a01b03841681526080602082018190526000906200367890830185620034d5565b82810360408401526200368c8185620034d5565b8381036060909401939093525050600081526020019392505050565b604081526000620036bd6040830185620034d5565b8281036020840152620036d18185620034d5565b95945050505050565b8381526001600160a01b0383166020820152606060408201819052600090620036d19083018462003512565b60208152600062000f58602083018462003512565b6020808252601f908201527f496e636f727265637420546f6b656e204d616e61676572206164647265737300604082015260600190565b60208082526030908201527f546869732066756e6374696f6e206973206e6f7420666f72207472616e73666560408201526f1c9c9a5b99c81d1bc813585a5b9b995d60821b606082015260800190565b60208082526021908201527f4155544f4d415449435f4445504c4f595f524f4c4520697320726571756972656040820152601960fa1b606082015260800190565b6020808252602e908201527f496e697469616c697a61626c653a20636f6e747261637420697320616c72656160408201526d191e481a5b9a5d1a585b1a5e995960921b606082015260800190565b602081526200384560208201835162003540565b6000602083015160018060a01b0380821660408501528060408601511660608501525050606083015160a060808401526200388460c0840182620034d5565b90506080840151601f198483030160a0850152620036d18282620034d5565b600060a082019050620038b882845162003540565b602083015160018060a01b0380821660208501528060408601511660408501525050606083015160608301526080830151608083015292915050565b604051602081016001600160401b038111828210171562003919576200391962003ae3565b60405290565b60405160a081016001600160401b038111828210171562003919576200391962003ae3565b604080519081016001600160401b038111828210171562003919576200391962003ae3565b604051601f8201601f191681016001600160401b038111828210171562003994576200399462003ae3565b604052919050565b60008085851115620039ad57600080fd5b83861115620039bb57600080fd5b5050820193919092039150565b60008219821115620039de57620039de62003a8b565b500190565b600081600019048311821515161562003a005762003a0062003a8b565b500290565b60008282101562003a1a5762003a1a62003a8b565b500390565b60005b8381101562003a3c57818101518382015260200162003a22565b838111156200104f5750506000910152565b60008162003a605762003a6062003a8b565b506000190190565b60008262003a8657634e487b7160e01b600052601260045260246000fd5b500690565b634e487b7160e01b600052601160045260246000fd5b634e487b7160e01b600052602160045260246000fd5b634e487b7160e01b600052603160045260246000fd5b634e487b7160e01b600052603260045260246000fd5b634e487b7160e01b600052604160045260246000fd5b6001600160a01b038116811462001bb257600080fdfe60806040523480156200001157600080fd5b506040516200325c3803806200325c83398101604081905262000034916200073f565b600054610100900460ff16806200004e575060005460ff16155b620000a65760405162461bcd60e51b815260206004820152602e60248201526000805160206200321c83398151915260448201526d191e481a5b9a5d1a585b1a5e995960921b60648201526084015b60405180910390fd5b600054610100900460ff16158015620000c9576000805461ffff19166101011790555b620000de6200015a60201b62000cb41760201c565b620000f4826200022960201b62000d401760201c565b62000109620002f060201b62000dc61760201c565b620001246000805160206200323c833981519152806200038a565b6200013f6000805160206200323c83398151915233620003de565b801562000152576000805461ff00191690555b50506200086e565b600054610100900460ff168062000174575060005460ff16155b620001c85760405162461bcd60e51b815260206004820152602e60248201526000805160206200321c83398151915260448201526d191e481a5b9a5d1a585b1a5e995960921b60648201526084016200009d565b600054610100900460ff16158015620001eb576000805461ffff19166101011790555b620001f562000421565b620001ff62000421565b6200020962000421565b6200021362000421565b801562000226576000805461ff00191690555b50565b600054610100900460ff168062000243575060005460ff16155b620002975760405162461bcd60e51b815260206004820152602e60248201526000805160206200321c83398151915260448201526d191e481a5b9a5d1a585b1a5e995960921b60648201526084016200009d565b600054610100900460ff16158015620002ba576000805461ffff19166101011790555b620002c462000421565b620002ce62000421565b620002d982620004c6565b8015620002ec576000805461ff00191690555b5050565b600054610100900460ff16806200030a575060005460ff16155b6200035e5760405162461bcd60e51b815260206004820152602e60248201526000805160206200321c83398151915260448201526d191e481a5b9a5d1a585b1a5e995960921b60648201526084016200009d565b600054610100900460ff16158015620001f5576000805461ffff1916610101179055620001ff62000421565b600082815260656020526040902060010154819060405184907fbd79b86ffe0ab8e8776151514217cd7cacd52c909f66475c3af44e129f0b00ff90600090a460009182526065602052604090912060010155565b620003f582826200056260201b62000e241760201c565b60008281526097602090815260409091206200041c91839062000e2e6200056e821b17901c565b505050565b600054610100900460ff16806200043b575060005460ff16155b6200048f5760405162461bcd60e51b815260206004820152602e60248201526000805160206200321c83398151915260448201526d191e481a5b9a5d1a585b1a5e995960921b60648201526084016200009d565b600054610100900460ff1615801562000213576000805461ffff1916610101179055801562000226576000805461ff001916905550565b600054610100900460ff1680620004e0575060005460ff16155b620005345760405162461bcd60e51b815260206004820152602e60248201526000805160206200321c83398151915260448201526d191e481a5b9a5d1a585b1a5e995960921b60648201526084016200009d565b600054610100900460ff1615801562000557576000805461ffff19166101011790555b620002d9826200058e565b620002ec8282620005a3565b600062000585836001600160a01b03841662000647565b90505b92915050565b8051620002ec9060cb90602084019062000699565b60008281526065602090815260408083206001600160a01b038516845290915290205460ff16620002ec5760008281526065602090815260408083206001600160a01b03851684529091529020805460ff19166001179055620006033390565b6001600160a01b0316816001600160a01b0316837f2f8788117e7eff1d82e926ec794901d17c78024a50270940304540a733656f0d60405160405180910390a45050565b6000818152600183016020526040812054620006905750815460018181018455600084815260208082209093018490558454848252828601909352604090209190915562000588565b50600062000588565b828054620006a7906200081b565b90600052602060002090601f016020900481019282620006cb576000855562000716565b82601f10620006e657805160ff191683800117855562000716565b8280016001018555821562000716579182015b8281111562000716578251825591602001919060010190620006f9565b506200072492915062000728565b5090565b5b8082111562000724576000815560010162000729565b600060208083850312156200075357600080fd5b82516001600160401b03808211156200076b57600080fd5b818501915085601f8301126200078057600080fd5b81518181111562000795576200079562000858565b604051601f8201601f19908116603f01168101908382118183101715620007c057620007c062000858565b816040528281528886848701011115620007d957600080fd5b600093505b82841015620007fd5784840186015181850187015292850192620007de565b828411156200080f5760008684830101525b98975050505050505050565b600181811c908216806200083057607f821691505b602082108114156200085257634e487b7160e01b600052602260045260246000fd5b50919050565b634e487b7160e01b600052604160045260246000fd5b61299e806200087e6000396000f3fe608060405234801561001057600080fd5b50600436106101365760003560e01c8063731133e9116100b8578063ca15c8731161007c578063ca15c873146102b4578063d5391393146102c7578063d547741f146102ee578063e985e9c514610301578063f242432a1461033d578063f5298aca1461035057600080fd5b8063731133e9146102485780639010d07c1461025b57806391d1485414610286578063a217fddf14610299578063a22cb465146102a157600080fd5b80632eb2c2d6116100ff5780632eb2c2d6146101dc5780632f2ff15d146101ef57806336568abe146102025780634e1273f4146102155780636b20c4541461023557600080fd5b8062fdd58e1461013b57806301ffc9a7146101615780630e89341c146101845780631f7fdffa146101a4578063248a9ca3146101b9575b600080fd5b61014e6101493660046120b0565b610363565b6040519081526020015b60405180910390f35b61017461016f366004612291565b6103ff565b6040519015158152602001610158565b610197610192366004612233565b61040a565b604051610158919061248b565b6101b76101b2366004611fdb565b61049e565b005b61014e6101c7366004612233565b60009081526065602052604090206001015490565b6101b76101ea366004611e58565b61051f565b6101b76101fd36600461224c565b61078c565b6101b761021036600461224c565b6107b3565b610228610223366004612162565b6107d5565b604051610158919061244a565b6101b7610243366004611f67565b6108ff565b6101b761025636600461210d565b610942565b61026e61026936600461226f565b6109bd565b6040516001600160a01b039091168152602001610158565b61017461029436600461224c565b6109dc565b61014e600081565b6101b76102af366004612074565b610a07565b61014e6102c2366004612233565b610ade565b61014e7f9f2df0fed2c77648de5860a4cc508cd0818c85b8b8a1ab4ceeef8d981c8956a681565b6101b76102fc36600461224c565b610af5565b61017461030f366004611e25565b6001600160a01b03918216600090815260ca6020908152604080832093909416825291909152205460ff1690565b6101b761034b366004611f02565b610aff565b6101b761035e3660046120da565b610c71565b60006001600160a01b0383166103d45760405162461bcd60e51b815260206004820152602b60248201527f455243313135353a2062616c616e636520717565727920666f7220746865207a60448201526a65726f206164647265737360a81b60648201526084015b60405180910390fd5b50600081815260c9602090815260408083206001600160a01b03861684529091529020545b92915050565b60006103f982610e43565b606060cb8054610419906127d1565b80601f0160208091040260200160405190810160405280929190818152602001828054610445906127d1565b80156104925780601f1061046757610100808354040283529160200191610492565b820191906000526020600020905b81548152906001019060200180831161047557829003601f168201915b50505050509050919050565b6104c87f9f2df0fed2c77648de5860a4cc508cd0818c85b8b8a1ab4ceeef8d981c8956a6336109dc565b61050d5760405162461bcd60e51b815260206004820152601660248201527529b2b73232b91034b9903737ba10309026b4b73a32b960511b60448201526064016103cb565b61051984848484610e83565b50505050565b81518351146105405760405162461bcd60e51b81526004016103cb90612693565b6001600160a01b0384166105665760405162461bcd60e51b81526004016103cb90612573565b6001600160a01b0385163314806105825750610582853361030f565b6105e95760405162461bcd60e51b815260206004820152603260248201527f455243313135353a207472616e736665722063616c6c6572206973206e6f74206044820152711bdddb995c881b9bdc88185c1c1c9bdd995960721b60648201526084016103cb565b3360005b845181101561071e57600085828151811061060a5761060a612880565b60200260200101519050600085838151811061062857610628612880565b602090810291909101810151600084815260c9835260408082206001600160a01b038e1683529093529190912054909150818110156106795760405162461bcd60e51b81526004016103cb90612649565b6106838282612777565b60c9600085815260200190815260200160002060008c6001600160a01b03166001600160a01b03168152602001908152602001600020819055508160c9600085815260200190815260200160002060008b6001600160a01b03166001600160a01b0316815260200190815260200160002060008282546107039190612740565b925050819055505050508061071790612839565b90506105ed565b50846001600160a01b0316866001600160a01b0316826001600160a01b03167f4a39dc06d4c0dbc64b70af90fd698a233a518aa5d07e595d983b8c0526c8f7fb878760405161076e92919061245d565b60405180910390a4610784818787878787610fcb565b505050505050565b6107968282611136565b60008281526097602052604090206107ae9082610e2e565b505050565b6107bd828261115c565b60008281526097602052604090206107ae90826111d6565b6060815183511461083a5760405162461bcd60e51b815260206004820152602960248201527f455243313135353a206163636f756e747320616e6420696473206c656e677468604482015268040dad2e6dac2e8c6d60bb1b60648201526084016103cb565b6000835167ffffffffffffffff81111561085657610856612896565b60405190808252806020026020018201604052801561087f578160200160208202803683370190505b50905060005b84518110156108f7576108ca8582815181106108a3576108a3612880565b60200260200101518583815181106108bd576108bd612880565b6020026020010151610363565b8282815181106108dc576108dc612880565b60209081029190910101526108f081612839565b9050610885565b509392505050565b6001600160a01b03831633148061091b575061091b833361030f565b6109375760405162461bcd60e51b81526004016103cb9061252a565b6107ae8383836111eb565b61096c7f9f2df0fed2c77648de5860a4cc508cd0818c85b8b8a1ab4ceeef8d981c8956a6336109dc565b6109b15760405162461bcd60e51b815260206004820152601660248201527529b2b73232b91034b9903737ba10309026b4b73a32b960511b60448201526064016103cb565b61051984848484611377565b60008281526097602052604081206109d59083611440565b9392505050565b60009182526065602090815260408084206001600160a01b0393909316845291905290205460ff1690565b336001600160a01b0383161415610a725760405162461bcd60e51b815260206004820152602960248201527f455243313135353a2073657474696e6720617070726f76616c20737461747573604482015268103337b91039b2b63360b91b60648201526084016103cb565b33600081815260ca602090815260408083206001600160a01b03871680855290835292819020805460ff191686151590811790915590519081529192917f17307eab39ab6107e8899845ad3d59bd9653f200f220920489ca2b5937696c31910160405180910390a35050565b60008181526097602052604081206103f99061144c565b6107bd8282611456565b6001600160a01b038416610b255760405162461bcd60e51b81526004016103cb90612573565b6001600160a01b038516331480610b415750610b41853361030f565b610b5d5760405162461bcd60e51b81526004016103cb9061252a565b33610b7d818787610b6d8861147c565b610b768861147c565b5050505050565b600084815260c9602090815260408083206001600160a01b038a16845290915290205483811015610bc05760405162461bcd60e51b81526004016103cb90612649565b610bca8482612777565b600086815260c9602090815260408083206001600160a01b038c81168552925280832093909355881681529081208054869290610c08908490612740565b909155505060408051868152602081018690526001600160a01b03808916928a821692918616917fc3d58168c5ae7397731d063d5bbf3d657854427343f4c083240f7aacaa2d0f62910160405180910390a4610c688288888888886114c7565b50505050505050565b6001600160a01b038316331480610c8d5750610c8d833361030f565b610ca95760405162461bcd60e51b81526004016103cb9061252a565b6107ae838383611591565b600054610100900460ff1680610ccd575060005460ff16155b610ce95760405162461bcd60e51b81526004016103cb906125b8565b600054610100900460ff16158015610d0b576000805461ffff19166101011790555b610d1361169f565b610d1b61169f565b610d2361169f565b610d2b61169f565b8015610d3d576000805461ff00191690555b50565b600054610100900460ff1680610d59575060005460ff16155b610d755760405162461bcd60e51b81526004016103cb906125b8565b600054610100900460ff16158015610d97576000805461ffff19166101011790555b610d9f61169f565b610da761169f565b610db082611709565b8015610dc2576000805461ff00191690555b5050565b600054610100900460ff1680610ddf575060005460ff16155b610dfb5760405162461bcd60e51b81526004016103cb906125b8565b600054610100900460ff16158015610d13576000805461ffff1916610101179055610d1b61169f565b610dc28282611769565b60006109d5836001600160a01b0384166117ef565b60006001600160e01b03198216636cdb3d1360e11b1480610e7457506001600160e01b031982166303a24d0760e21b145b806103f957506103f98261183e565b6001600160a01b038416610ea95760405162461bcd60e51b81526004016103cb906126db565b8151835114610eca5760405162461bcd60e51b81526004016103cb90612693565b3360005b8451811015610f6757838181518110610ee957610ee9612880565b602002602001015160c96000878481518110610f0757610f07612880565b602002602001015181526020019081526020016000206000886001600160a01b03166001600160a01b031681526020019081526020016000206000828254610f4f9190612740565b90915550819050610f5f81612839565b915050610ece565b50846001600160a01b031660006001600160a01b0316826001600160a01b03167f4a39dc06d4c0dbc64b70af90fd698a233a518aa5d07e595d983b8c0526c8f7fb8787604051610fb892919061245d565b60405180910390a4610b76816000878787875b6001600160a01b0384163b156107845760405163bc197c8160e01b81526001600160a01b0385169063bc197c819061100f90899089908890889088906004016123a7565b602060405180830381600087803b15801561102957600080fd5b505af1925050508015611059575060408051601f3d908101601f19168201909252611056918101906122ae565b60015b611106576110656128ac565b806308c379a0141561109f575061107a6128c8565b8061108557506110a1565b8060405162461bcd60e51b81526004016103cb919061248b565b505b60405162461bcd60e51b815260206004820152603460248201527f455243313135353a207472616e7366657220746f206e6f6e20455243313135356044820152732932b1b2b4bb32b91034b6b83632b6b2b73a32b960611b60648201526084016103cb565b6001600160e01b0319811663bc197c8160e01b14610c685760405162461bcd60e51b81526004016103cb9061249e565b6000828152606560205260409020600101546111528133611863565b6107ae8383611769565b6001600160a01b03811633146111cc5760405162461bcd60e51b815260206004820152602f60248201527f416363657373436f6e74726f6c3a2063616e206f6e6c792072656e6f756e636560448201526e103937b632b9903337b91039b2b63360891b60648201526084016103cb565b610dc282826118c7565b60006109d5836001600160a01b03841661192e565b6001600160a01b0383166112115760405162461bcd60e51b81526004016103cb90612606565b80518251146112325760405162461bcd60e51b81526004016103cb90612693565b604080516020810190915260009081905233905b835181101561131857600084828151811061126357611263612880565b60200260200101519050600084838151811061128157611281612880565b602090810291909101810151600084815260c9835260408082206001600160a01b038c1683529093529190912054909150818110156112d25760405162461bcd60e51b81526004016103cb906124e6565b6112dc8282612777565b600093845260c9602090815260408086206001600160a01b038c168752909152909320929092555081905061131081612839565b915050611246565b5060006001600160a01b0316846001600160a01b0316826001600160a01b03167f4a39dc06d4c0dbc64b70af90fd698a233a518aa5d07e595d983b8c0526c8f7fb868660405161136992919061245d565b60405180910390a450505050565b6001600160a01b03841661139d5760405162461bcd60e51b81526004016103cb906126db565b336113ae81600087610b6d8861147c565b600084815260c9602090815260408083206001600160a01b0389168452909152812080548592906113e0908490612740565b909155505060408051858152602081018590526001600160a01b0380881692600092918516917fc3d58168c5ae7397731d063d5bbf3d657854427343f4c083240f7aacaa2d0f62910160405180910390a4610b76816000878787876114c7565b60006109d58383611a1b565b60006103f9825490565b6000828152606560205260409020600101546114728133611863565b6107ae83836118c7565b604080516001808252818301909252606091600091906020808301908036833701905050905082816000815181106114b6576114b6612880565b602090810291909101015292915050565b6001600160a01b0384163b156107845760405163f23a6e6160e01b81526001600160a01b0385169063f23a6e619061150b9089908990889088908890600401612405565b602060405180830381600087803b15801561152557600080fd5b505af1925050508015611555575060408051601f3d908101601f19168201909252611552918101906122ae565b60015b611561576110656128ac565b6001600160e01b0319811663f23a6e6160e01b14610c685760405162461bcd60e51b81526004016103cb9061249e565b6001600160a01b0383166115b75760405162461bcd60e51b81526004016103cb90612606565b336115e7818560006115c88761147c565b6115d18761147c565b5050604080516020810190915260009052505050565b600083815260c9602090815260408083206001600160a01b03881684529091529020548281101561162a5760405162461bcd60e51b81526004016103cb906124e6565b6116348382612777565b600085815260c9602090815260408083206001600160a01b038a811680865291845282852095909555815189815292830188905292938616917fc3d58168c5ae7397731d063d5bbf3d657854427343f4c083240f7aacaa2d0f62910160405180910390a45050505050565b600054610100900460ff16806116b8575060005460ff16155b6116d45760405162461bcd60e51b81526004016103cb906125b8565b600054610100900460ff16158015610d2b576000805461ffff19166101011790558015610d3d576000805461ff001916905550565b600054610100900460ff1680611722575060005460ff16155b61173e5760405162461bcd60e51b81526004016103cb906125b8565b600054610100900460ff16158015611760576000805461ffff19166101011790555b610db082611aa1565b61177382826109dc565b610dc25760008281526065602090815260408083206001600160a01b03851684529091529020805460ff191660011790556117ab3390565b6001600160a01b0316816001600160a01b0316837f2f8788117e7eff1d82e926ec794901d17c78024a50270940304540a733656f0d60405160405180910390a45050565b6000818152600183016020526040812054611836575081546001818101845560008481526020808220909301849055845484825282860190935260409020919091556103f9565b5060006103f9565b60006001600160e01b03198216635a05180f60e01b14806103f957506103f982611ab4565b61186d82826109dc565b610dc257611885816001600160a01b03166014611ae9565b611890836020611ae9565b6040516020016118a1929190612332565b60408051601f198184030181529082905262461bcd60e51b82526103cb9160040161248b565b6118d182826109dc565b15610dc25760008281526065602090815260408083206001600160a01b0385168085529252808320805460ff1916905551339285917ff6391f5c32d9c69d2a47ea670b442974b53935d1edc7fd64eb21e047a839171b9190a45050565b60008181526001830160205260408120548015611a11576000611952600183612777565b855490915060009061196690600190612777565b9050600086600001828154811061197f5761197f612880565b90600052602060002001549050808760000184815481106119a2576119a2612880565b6000918252602080832090910192909255828152600189019091526040902084905586548790806119d5576119d561286a565b600190038181906000526020600020016000905590558660010160008781526020019081526020016000206000905560019450505050506103f9565b60009150506103f9565b81546000908210611a795760405162461bcd60e51b815260206004820152602260248201527f456e756d657261626c655365743a20696e646578206f7574206f6620626f756e604482015261647360f01b60648201526084016103cb565b826000018281548110611a8e57611a8e612880565b9060005260206000200154905092915050565b8051610dc29060cb906020840190611c85565b60006001600160e01b03198216637965db0b60e01b14806103f957506301ffc9a760e01b6001600160e01b03198316146103f9565b60606000611af8836002612758565b611b03906002612740565b67ffffffffffffffff811115611b1b57611b1b612896565b6040519080825280601f01601f191660200182016040528015611b45576020820181803683370190505b509050600360fc1b81600081518110611b6057611b60612880565b60200101906001600160f81b031916908160001a905350600f60fb1b81600181518110611b8f57611b8f612880565b60200101906001600160f81b031916908160001a9053506000611bb3846002612758565b611bbe906001612740565b90505b6001811115611c36576f181899199a1a9b1b9c1cb0b131b232b360811b85600f1660108110611bf257611bf2612880565b1a60f81b828281518110611c0857611c08612880565b60200101906001600160f81b031916908160001a90535060049490941c93611c2f816127ba565b9050611bc1565b5083156109d55760405162461bcd60e51b815260206004820181905260248201527f537472696e67733a20686578206c656e67746820696e73756666696369656e7460448201526064016103cb565b828054611c91906127d1565b90600052602060002090601f016020900481019282611cb35760008555611cf9565b82601f10611ccc57805160ff1916838001178555611cf9565b82800160010185558215611cf9579182015b82811115611cf9578251825591602001919060010190611cde565b50611d05929150611d09565b5090565b5b80821115611d055760008155600101611d0a565b80356001600160a01b0381168114611d3557600080fd5b919050565b600082601f830112611d4b57600080fd5b81356020611d588261271c565b604051611d65828261280c565b8381528281019150858301600585901b87018401881015611d8557600080fd5b60005b85811015611da457813584529284019290840190600101611d88565b5090979650505050505050565b600082601f830112611dc257600080fd5b813567ffffffffffffffff811115611ddc57611ddc612896565b604051611df3601f8301601f19166020018261280c565b818152846020838601011115611e0857600080fd5b816020850160208301376000918101602001919091529392505050565b60008060408385031215611e3857600080fd5b611e4183611d1e565b9150611e4f60208401611d1e565b90509250929050565b600080600080600060a08688031215611e7057600080fd5b611e7986611d1e565b9450611e8760208701611d1e565b9350604086013567ffffffffffffffff80821115611ea457600080fd5b611eb089838a01611d3a565b94506060880135915080821115611ec657600080fd5b611ed289838a01611d3a565b93506080880135915080821115611ee857600080fd5b50611ef588828901611db1565b9150509295509295909350565b600080600080600060a08688031215611f1a57600080fd5b611f2386611d1e565b9450611f3160208701611d1e565b93506040860135925060608601359150608086013567ffffffffffffffff811115611f5b57600080fd5b611ef588828901611db1565b600080600060608486031215611f7c57600080fd5b611f8584611d1e565b9250602084013567ffffffffffffffff80821115611fa257600080fd5b611fae87838801611d3a565b93506040860135915080821115611fc457600080fd5b50611fd186828701611d3a565b9150509250925092565b60008060008060808587031215611ff157600080fd5b611ffa85611d1e565b9350602085013567ffffffffffffffff8082111561201757600080fd5b61202388838901611d3a565b9450604087013591508082111561203957600080fd5b61204588838901611d3a565b9350606087013591508082111561205b57600080fd5b5061206887828801611db1565b91505092959194509250565b6000806040838503121561208757600080fd5b61209083611d1e565b9150602083013580151581146120a557600080fd5b809150509250929050565b600080604083850312156120c357600080fd5b6120cc83611d1e565b946020939093013593505050565b6000806000606084860312156120ef57600080fd5b6120f884611d1e565b95602085013595506040909401359392505050565b6000806000806080858703121561212357600080fd5b61212c85611d1e565b93506020850135925060408501359150606085013567ffffffffffffffff81111561215657600080fd5b61206887828801611db1565b6000806040838503121561217557600080fd5b823567ffffffffffffffff8082111561218d57600080fd5b818501915085601f8301126121a157600080fd5b813560206121ae8261271c565b6040516121bb828261280c565b8381528281019150858301600585901b870184018b10156121db57600080fd5b600096505b84871015612205576121f181611d1e565b8352600196909601959183019183016121e0565b509650508601359250508082111561221c57600080fd5b5061222985828601611d3a565b9150509250929050565b60006020828403121561224557600080fd5b5035919050565b6000806040838503121561225f57600080fd5b82359150611e4f60208401611d1e565b6000806040838503121561228257600080fd5b50508035926020909101359150565b6000602082840312156122a357600080fd5b81356109d581612952565b6000602082840312156122c057600080fd5b81516109d581612952565b600081518084526020808501945080840160005b838110156122fb578151875295820195908201906001016122df565b509495945050505050565b6000815180845261231e81602086016020860161278e565b601f01601f19169290920160200192915050565b7f416363657373436f6e74726f6c3a206163636f756e742000000000000000000081526000835161236a81601785016020880161278e565b7001034b99036b4b9b9b4b733903937b6329607d1b601791840191820152835161239b81602884016020880161278e565b01602801949350505050565b6001600160a01b0386811682528516602082015260a0604082018190526000906123d3908301866122cb565b82810360608401526123e581866122cb565b905082810360808401526123f98185612306565b98975050505050505050565b6001600160a01b03868116825285166020820152604081018490526060810183905260a06080820181905260009061243f90830184612306565b979650505050505050565b6020815260006109d560208301846122cb565b60408152600061247060408301856122cb565b828103602084015261248281856122cb565b95945050505050565b6020815260006109d56020830184612306565b60208082526028908201527f455243313135353a204552433131353552656365697665722072656a656374656040820152676420746f6b656e7360c01b606082015260800190565b60208082526024908201527f455243313135353a206275726e20616d6f756e7420657863656564732062616c604082015263616e636560e01b606082015260800190565b60208082526029908201527f455243313135353a2063616c6c6572206973206e6f74206f776e6572206e6f7260408201526808185c1c1c9bdd995960ba1b606082015260800190565b60208082526025908201527f455243313135353a207472616e7366657220746f20746865207a65726f206164604082015264647265737360d81b606082015260800190565b6020808252602e908201527f496e697469616c697a61626c653a20636f6e747261637420697320616c72656160408201526d191e481a5b9a5d1a585b1a5e995960921b606082015260800190565b60208082526023908201527f455243313135353a206275726e2066726f6d20746865207a65726f206164647260408201526265737360e81b606082015260800190565b6020808252602a908201527f455243313135353a20696e73756666696369656e742062616c616e636520666f60408201526939103a3930b739b332b960b11b606082015260800190565b60208082526028908201527f455243313135353a2069647320616e6420616d6f756e7473206c656e677468206040820152670dad2e6dac2e8c6d60c31b606082015260800190565b60208082526021908201527f455243313135353a206d696e7420746f20746865207a65726f206164647265736040820152607360f81b606082015260800190565b600067ffffffffffffffff82111561273657612736612896565b5060051b60200190565b6000821982111561275357612753612854565b500190565b600081600019048311821515161561277257612772612854565b500290565b60008282101561278957612789612854565b500390565b60005b838110156127a9578181015183820152602001612791565b838111156105195750506000910152565b6000816127c9576127c9612854565b506000190190565b600181811c908216806127e557607f821691505b6020821081141561280657634e487b7160e01b600052602260045260246000fd5b50919050565b601f8201601f1916810167ffffffffffffffff8111828210171561283257612832612896565b6040525050565b600060001982141561284d5761284d612854565b5060010190565b634e487b7160e01b600052601160045260246000fd5b634e487b7160e01b600052603160045260246000fd5b634e487b7160e01b600052603260045260246000fd5b634e487b7160e01b600052604160045260246000fd5b600060033d11156128c55760046000803e5060005160e01c5b90565b600060443d10156128d65790565b6040516003193d81016004833e81513d67ffffffffffffffff816024840111818411171561290657505050505090565b828501915081518181111561291e5750505050505090565b843d87010160208285010111156129385750505050505090565b6129476020828601018761280c565b509095945050505050565b6001600160e01b031981168114610d3d57600080fdfea2646970667358221220b03a271abe35afe356d15d9936f8da7e17f0759383aa1145fbb9df733f76b51064736f6c63430008060033496e697469616c697a61626c653a20636f6e747261637420697320616c7265619f2df0fed2c77648de5860a4cc508cd0818c85b8b8a1ab4ceeef8d981c8956a67164765a3c8bd2513bdfa0c90f1bee9606e920fbf2c9071f310263fbd818684ba2646970667358221220f84d21a29e1c5cf4599047c577f7c21088fe891a10e598c21ae983d96bf9246964736f6c63430008060033",
  "linkReferences": {},
  "deployedLinkReferences": {}
}