{
  "_format": "hh-sol-artifact-1",
  "contractName": "TokenManagerLinker",
  "sourceName": "contracts/schain/TokenManagerLinker.sol",
  "abi": [
    {
      "anonymous": false,
      "inputs": [
        {
          "indexed": false,
          "internalType": "bool",
          "name": "isAllowed",
          "type": "bool"
        }
      ],
      "name": "InterchainConnectionAllowed",
      "type": "event"
    },
    {
      "anonymous": false,
      "inputs": [
        {
          "indexed": true,
          "internalType": "bytes32",
          "name": "role",
          "type": "bytes32"
        },
        {
          "indexed": true,
          "internalType": "bytes32",
          "name": "previousAdminRole",
          "type": "bytes32"
        },
        {
          "indexed": true,
          "internalType": "bytes32",
          "name": "newAdminRole",
          "type": "bytes32"
        }
      ],
      "name": "RoleAdminChanged",
      "type": "event"
    },
    {
      "anonymous": false,
      "inputs": [
        {
          "indexed": true,
          "internalType": "bytes32",
          "name": "role",
          "type": "bytes32"
        },
        {
          "indexed": true,
          "internalType": "address",
          "name": "account",
          "type": "address"
        },
        {
          "indexed": true,
          "internalType": "address",
          "name": "sender",
          "type": "address"
        }
      ],
      "name": "RoleGranted",
      "type": "event"
    },
    {
      "anonymous": false,
      "inputs": [
        {
          "indexed": true,
          "internalType": "bytes32",
          "name": "role",
          "type": "bytes32"
        },
        {
          "indexed": true,
          "internalType": "address",
          "name": "account",
          "type": "address"
        },
        {
          "indexed": true,
          "internalType": "address",
          "name": "sender",
          "type": "address"
        }
      ],
      "name": "RoleRevoked",
      "type": "event"
    },
    {
      "inputs": [],
      "name": "DEFAULT_ADMIN_ROLE",
      "outputs": [
        {
          "internalType": "bytes32",
          "name": "",
          "type": "bytes32"
        }
      ],
      "stateMutability": "view",
      "type": "function"
    },
    {
      "inputs": [],
      "name": "MAINNET_HASH",
      "outputs": [
        {
          "internalType": "bytes32",
          "name": "",
          "type": "bytes32"
        }
      ],
      "stateMutability": "view",
      "type": "function"
    },
    {
      "inputs": [],
      "name": "MAINNET_NAME",
      "outputs": [
        {
          "internalType": "string",
          "name": "",
          "type": "string"
        }
      ],
      "stateMutability": "view",
      "type": "function"
    },
    {
      "inputs": [],
      "name": "REGISTRAR_ROLE",
      "outputs": [
        {
          "internalType": "bytes32",
          "name": "",
          "type": "bytes32"
        }
      ],
      "stateMutability": "view",
      "type": "function"
    },
    {
      "inputs": [
        {
          "internalType": "string",
          "name": "schainName",
          "type": "string"
        },
        {
          "internalType": "address[]",
          "name": "tokenManagerAddresses",
          "type": "address[]"
        }
      ],
      "name": "connectSchain",
      "outputs": [],
      "stateMutability": "nonpayable",
      "type": "function"
    },
    {
      "inputs": [
        {
          "internalType": "string",
          "name": "schainName",
          "type": "string"
        }
      ],
      "name": "disconnectSchain",
      "outputs": [],
      "stateMutability": "nonpayable",
      "type": "function"
    },
    {
      "inputs": [
        {
          "internalType": "bytes32",
          "name": "role",
          "type": "bytes32"
        }
      ],
      "name": "getRoleAdmin",
      "outputs": [
        {
          "internalType": "bytes32",
          "name": "",
          "type": "bytes32"
        }
      ],
      "stateMutability": "view",
      "type": "function"
    },
    {
      "inputs": [
        {
          "internalType": "bytes32",
          "name": "role",
          "type": "bytes32"
        },
        {
          "internalType": "uint256",
          "name": "index",
          "type": "uint256"
        }
      ],
      "name": "getRoleMember",
      "outputs": [
        {
          "internalType": "address",
          "name": "",
          "type": "address"
        }
      ],
      "stateMutability": "view",
      "type": "function"
    },
    {
      "inputs": [
        {
          "internalType": "bytes32",
          "name": "role",
          "type": "bytes32"
        }
      ],
      "name": "getRoleMemberCount",
      "outputs": [
        {
          "internalType": "uint256",
          "name": "",
          "type": "uint256"
        }
      ],
      "stateMutability": "view",
      "type": "function"
    },
    {
      "inputs": [
        {
          "internalType": "bytes32",
          "name": "role",
          "type": "bytes32"
        },
        {
          "internalType": "address",
          "name": "account",
          "type": "address"
        }
      ],
      "name": "grantRole",
      "outputs": [],
      "stateMutability": "nonpayable",
      "type": "function"
    },
    {
      "inputs": [
        {
          "internalType": "bytes32",
          "name": "role",
          "type": "bytes32"
        },
        {
          "internalType": "address",
          "name": "account",
          "type": "address"
        }
      ],
      "name": "hasRole",
      "outputs": [
        {
          "internalType": "bool",
          "name": "",
          "type": "bool"
        }
      ],
      "stateMutability": "view",
      "type": "function"
    },
    {
      "inputs": [
        {
          "internalType": "string",
          "name": "schainName",
          "type": "string"
        }
      ],
      "name": "hasSchain",
      "outputs": [
        {
          "internalType": "bool",
          "name": "connected",
          "type": "bool"
        }
      ],
      "stateMutability": "view",
      "type": "function"
    },
    {
      "inputs": [
        {
          "internalType": "contract TokenManager",
          "name": "tokenManager",
          "type": "address"
        }
      ],
      "name": "hasTokenManager",
      "outputs": [
        {
          "internalType": "bool",
          "name": "",
          "type": "bool"
        }
      ],
      "stateMutability": "view",
      "type": "function"
    },
    {
      "inputs": [
        {
          "internalType": "contract MessageProxy",
          "name": "newMessageProxyAddress",
          "type": "address"
        },
        {
          "internalType": "address",
          "name": "linker",
          "type": "address"
        }
      ],
      "name": "initialize",
      "outputs": [],
      "stateMutability": "nonpayable",
      "type": "function"
    },
    {
      "inputs": [],
      "name": "interchainConnections",
      "outputs": [
        {
          "internalType": "bool",
          "name": "",
          "type": "bool"
        }
      ],
      "stateMutability": "view",
      "type": "function"
    },
    {
      "inputs": [],
      "name": "linkerAddress",
      "outputs": [
        {
          "internalType": "address",
          "name": "",
          "type": "address"
        }
      ],
      "stateMutability": "view",
      "type": "function"
    },
    {
      "inputs": [],
      "name": "messageProxy",
      "outputs": [
        {
          "internalType": "contract MessageProxy",
          "name": "",
          "type": "address"
        }
      ],
      "stateMutability": "view",
      "type": "function"
    },
    {
      "inputs": [
        {
          "internalType": "bytes32",
          "name": "fromChainHash",
          "type": "bytes32"
        },
        {
          "internalType": "address",
          "name": "sender",
          "type": "address"
        },
        {
          "internalType": "bytes",
          "name": "data",
          "type": "bytes"
        }
      ],
      "name": "postMessage",
      "outputs": [
        {
          "internalType": "address",
          "name": "",
          "type": "address"
        }
      ],
      "stateMutability": "nonpayable",
      "type": "function"
    },
    {
      "inputs": [
        {
          "internalType": "contract TokenManager",
          "name": "newTokenManager",
          "type": "address"
        }
      ],
      "name": "registerTokenManager",
      "outputs": [],
      "stateMutability": "nonpayable",
      "type": "function"
    },
    {
      "inputs": [
        {
          "internalType": "contract TokenManager",
          "name": "tokenManagerAddress",
          "type": "address"
        }
      ],
      "name": "removeTokenManager",
      "outputs": [],
      "stateMutability": "nonpayable",
      "type": "function"
    },
    {
      "inputs": [
        {
          "internalType": "bytes32",
          "name": "role",
          "type": "bytes32"
        },
        {
          "internalType": "address",
          "name": "account",
          "type": "address"
        }
      ],
      "name": "renounceRole",
      "outputs": [],
      "stateMutability": "nonpayable",
      "type": "function"
    },
    {
      "inputs": [
        {
          "internalType": "bytes32",
          "name": "role",
          "type": "bytes32"
        },
        {
          "internalType": "address",
          "name": "account",
          "type": "address"
        }
      ],
      "name": "revokeRole",
      "outputs": [],
      "stateMutability": "nonpayable",
      "type": "function"
    },
    {
      "inputs": [
        {
          "internalType": "bytes4",
          "name": "interfaceId",
          "type": "bytes4"
        }
      ],
      "name": "supportsInterface",
      "outputs": [
        {
          "internalType": "bool",
          "name": "",
          "type": "bool"
        }
      ],
      "stateMutability": "view",
      "type": "function"
    },
    {
      "inputs": [
        {
          "internalType": "uint256",
          "name": "",
          "type": "uint256"
        }
      ],
      "name": "tokenManagers",
      "outputs": [
        {
          "internalType": "contract TokenManager",
          "name": "",
          "type": "address"
        }
      ],
      "stateMutability": "view",
      "type": "function"
    }
  ],
  "bytecode": "0x608060405234801561001057600080fd5b50611e8e806100206000396000f3fe608060405234801561001057600080fd5b50600436106101585760003560e01c80635573b8b6116100c3578063b4fd8e141161007c578063b4fd8e1414610304578063b9727f9614610317578063ca15c8731461032a578063d547741f1461033d578063e953c99214610350578063f68e95531461036357600080fd5b80635573b8b61461029d57806364a5142f146102b0578063884cee5a146102c35780639010d07c146102d657806391d14854146102e9578063a217fddf146102fc57600080fd5b8063291f60d311610115578063291f60d3146101f35780632f2ff15d1461020657806336568abe1461021957806341ecadf91461022c578063485cc9551461025757806350f442801461026a57600080fd5b806301ffc9a71461015d578063041f4c9b146101855780630f4ef5fd14610198578063173df64b146101a5578063248a9ca3146101ba57806328c5e182146101eb575b600080fd5b61017061016b3660046118fa565b610378565b60405190151581526020015b60405180910390f35b61017061019336600461196d565b6103a3565b60cc546101709060ff1681565b6101b86101b336600461196d565b610501565b005b6101dd6101c8366004611833565b60009081526065602052604090206001015490565b60405190815260200161017c565b6101dd610649565b6101b86102013660046117f9565b610692565b6101b861021436600461184c565b610718565b6101b861022736600461184c565b61073f565b61023f61023a366004611833565b610761565b6040516001600160a01b03909116815260200161017c565b6101b8610265366004611924565b61078b565b6102906040518060400160405280600781526020016613585a5b9b995d60ca1b81525081565b60405161017c9190611bf3565b60c95461023f906001600160a01b031681565b60ca5461023f906001600160a01b031681565b61023f6102d136600461187c565b6108a9565b61023f6102e43660046118d8565b610b72565b6101706102f736600461184c565b610b91565b6101dd600081565b6101b86103123660046119af565b610bbc565b6101b86103253660046117f9565b610dcc565b6101dd610338366004611833565b610f28565b6101b861034b36600461184c565b610f3f565b61017061035e3660046117f9565b610f49565b6101dd600080516020611e3983398151915281565b60006001600160e01b03198216635a05180f60e01b148061039d575061039d82610fb8565b92915050565b60cb5460019060005b8181101561046e5782801561045a575060cb81815481106103cf576103cf611de9565b6000918252602090912001546040516339927cf960e01b81526001600160a01b03909116906339927cf99061040a9088908890600401611bb3565b60206040518083038186803b15801561042257600080fd5b505afa158015610436573d6000803e3d6000fd5b505050506040513d601f19601f8201168201806040525081019061045a9190611816565b92508061046681611d6a565b9150506103ac565b508180156104f9575060c954604051634ccd5cd560e11b81526001600160a01b039091169063999ab9aa906104a99087908790600401611bb3565b60206040518083038186803b1580156104c157600080fd5b505afa1580156104d5573d6000803e3d6000fd5b505050506040513d601f19601f820116820180604052508101906104f99190611816565b949350505050565b610519600080516020611e3983398151915233610b91565b61053e5760405162461bcd60e51b815260040161053590611c26565b60405180910390fd5b60cb5460005b818110156105df5760cb818154811061055f5761055f611de9565b600091825260209091200154604051633038c4b760e21b81526001600160a01b039091169063c0e312dc9061059a9087908790600401611bb3565b600060405180830381600087803b1580156105b457600080fd5b505af11580156105c8573d6000803e3d6000fd5b5050505080806105d790611d6a565b915050610544565b5060c954604051633cdd2cc360e01b81526001600160a01b0390911690633cdd2cc3906106129086908690600401611bb3565b600060405180830381600087803b15801561062c57600080fd5b505af1158015610640573d6000803e3d6000fd5b50505050505050565b6040518060400160405280600781526020016613585a5b9b995d60ca1b8152506040516020016106799190611b22565b6040516020818303038152906040528051906020012081565b6106aa600080516020611e3983398151915233610b91565b6106c65760405162461bcd60e51b815260040161053590611c26565b60cb80546001810182556000919091527fa7ce836d032b2bf62b7e2097a8e0a6d8aeb35405ad15271e96d3b0188a1d06fb0180546001600160a01b0319166001600160a01b0392909216919091179055565b6107228282610fed565b600082815260976020526040902061073a9082611013565b505050565b6107498282611028565b600082815260976020526040902061073a90826110a6565b60cb818154811061077157600080fd5b6000918252602090912001546001600160a01b0316905081565b600054610100900460ff16806107a4575060005460ff16155b6107c05760405162461bcd60e51b815260040161053590611c5d565b600054610100900460ff161580156107e2576000805461ffff19166101011790555b6001600160a01b0382166108385760405162461bcd60e51b815260206004820152601c60248201527f4c696e6b657220616464726573732068617320746f20626520736574000000006044820152606401610535565b6108406110bb565b61084b600033611147565b610863600080516020611e3983398151915233611147565b60c980546001600160a01b038086166001600160a01b03199283161790925560ca805492851692909116919091179055801561073a576000805461ff0019169055505050565b60c9546000906001600160a01b031633146109065760405162461bcd60e51b815260206004820152601d60248201527f53656e646572206973206e6f742061206d6573736167652070726f78790000006044820152606401610535565b60ca546001600160a01b038581169116146109635760405162461bcd60e51b815260206004820181905260248201527f53656e6465722066726f6d204d61696e6e657420697320696e636f72726563746044820152606401610535565b6040518060400160405280600781526020016613585a5b9b995d60ca1b8152506040516020016109939190611b22565b604051602081830303815290604052805190602001208514610a035760405162461bcd60e51b815260206004820152602360248201527f536f7572636520636861696e206e616d652073686f756c64206265204d61696e6044820152621b995d60ea1b6064820152608401610535565b6000610a0f8484611151565b9050600881600c811115610a2557610a25611dbd565b14610a985760405162461bcd60e51b815260206004820152603860248201527f546865206d6573736167652073686f756c6420636f6e7461696e206120696e7460448201527f6572636861696e20636f6e6e656374696f6e20737461746500000000000000006064820152608401610535565b6000610aa48585611199565b602081015160cc54919250151560ff90911615151415610b1e5760405162461bcd60e51b815260206004820152602f60248201527f496e746572636861696e20636f6e6e656374696f6e2073746174652073686f7560448201526e1b1908189948191a5999995c995b9d608a1b6064820152608401610535565b60208181015160cc805460ff191691151591821790556040519081527fce4347a8c71d04a62f940154f3607d6a42f153b91cb09d9ec71356d2b36beb32910160405180910390a15060009695505050505050565b6000828152609760205260408120610b8a908361123d565b9392505050565b60009182526065602090815260408084206001600160a01b0393909316845291905290205460ff1690565b610bd4600080516020611e3983398151915233610b91565b610bf05760405162461bcd60e51b815260040161053590611c26565b60cc5460ff16610c4c5760405162461bcd60e51b815260206004820152602160248201527f496e746572636861696e20636f6e6e656374696f6e206e6f7420616c6c6f77656044820152601960fa1b6064820152608401610535565b60cb548114610c9d5760405162461bcd60e51b815260206004820152601d60248201527f496e636f7272656374206e756d626572206f66206164647265737365730000006044820152606401610535565b60005b81811015610d615760cb8181548110610cbb57610cbb611de9565b6000918252602090912001546001600160a01b031663cb703bff8686868686818110610ce957610ce9611de9565b9050602002016020810190610cfe91906117f9565b6040518463ffffffff1660e01b8152600401610d1c93929190611bc7565b600060405180830381600087803b158015610d3657600080fd5b505af1158015610d4a573d6000803e3d6000fd5b505050508080610d5990611d6a565b915050610ca0565b5060c95460405163f2f6360560e01b81526001600160a01b039091169063f2f6360590610d949087908790600401611bb3565b600060405180830381600087803b158015610dae57600080fd5b505af1158015610dc2573d6000803e3d6000fd5b5050505050505050565b610de4600080516020611e3983398151915233610b91565b610e005760405162461bcd60e51b815260040161053590611c26565b60cb546000905b80821015610e5e57826001600160a01b031660cb8381548110610e2c57610e2c611de9565b6000918252602090912001546001600160a01b03161415610e4c57610e5e565b81610e5681611d6a565b925050610e07565b8082101561073a57610e71600182611d0c565b821015610ef05760cb610e85600183611d0c565b81548110610e9557610e95611de9565b60009182526020909120015460cb80546001600160a01b039092169184908110610ec157610ec1611de9565b9060005260206000200160006101000a8154816001600160a01b0302191690836001600160a01b031602179055505b60cb805480610f0157610f01611dd3565b600082815260209020810160001990810180546001600160a01b0319169055019055505050565b600081815260976020526040812061039d90611249565b6107498282611253565b60cb5460009081905b80821015610fae57836001600160a01b031660cb8381548110610f7757610f77611de9565b6000918252602090912001546001600160a01b03161415610f9c575060019392505050565b81610fa681611d6a565b925050610f52565b5060009392505050565b60006001600160e01b03198216637965db0b60e01b148061039d57506301ffc9a760e01b6001600160e01b031983161461039d565b6000828152606560205260409020600101546110098133611279565b61073a83836112dd565b6000610b8a836001600160a01b038416611363565b6001600160a01b03811633146110985760405162461bcd60e51b815260206004820152602f60248201527f416363657373436f6e74726f6c3a2063616e206f6e6c792072656e6f756e636560448201526e103937b632b9903337b91039b2b63360891b6064820152608401610535565b6110a282826113b2565b5050565b6000610b8a836001600160a01b038416611419565b600054610100900460ff16806110d4575060005460ff16155b6110f05760405162461bcd60e51b815260040161053590611c5d565b600054610100900460ff16158015611112576000805461ffff19166101011790555b61111a611506565b611122611506565b61112a611506565b611132611506565b8015611144576000805461ff00191690555b50565b6107228282611570565b60008061116083850185611833565b905061116d602082611d85565b61118d5761118561118084838188611cab565b611151565b91505061039d565b61118583850185611952565b6040805160608101825260009181018281528152602081019190915260086111c18484611151565b600c8111156111d2576111d2611dbd565b146112315760405162461bcd60e51b815260206004820152602960248201527f4d6573736167652074797065206973206e6f7420496e746572636861696e206360448201526837b73732b1ba34b7b760b91b6064820152608401610535565b610b8a82840184611a49565b6000610b8a838361157a565b600061039d825490565b60008281526065602052604090206001015461126f8133611279565b61073a83836113b2565b6112838282610b91565b6110a25761129b816001600160a01b03166014611600565b6112a6836020611600565b6040516020016112b7929190611b3e565b60408051601f198184030181529082905262461bcd60e51b825261053591600401611bf3565b6112e78282610b91565b6110a25760008281526065602090815260408083206001600160a01b03851684529091529020805460ff1916600117905561131f3390565b6001600160a01b0316816001600160a01b0316837f2f8788117e7eff1d82e926ec794901d17c78024a50270940304540a733656f0d60405160405180910390a45050565b60008181526001830160205260408120546113aa5750815460018181018455600084815260208082209093018490558454848252828601909352604090209190915561039d565b50600061039d565b6113bc8282610b91565b156110a25760008281526065602090815260408083206001600160a01b0385168085529252808320805460ff1916905551339285917ff6391f5c32d9c69d2a47ea670b442974b53935d1edc7fd64eb21e047a839171b9190a45050565b600081815260018301602052604081205480156114fc57600061143d600183611d0c565b855490915060009061145190600190611d0c565b9050600086600001828154811061146a5761146a611de9565b906000526020600020015490508087600001848154811061148d5761148d611de9565b6000918252602080832090910192909255828152600189019091526040902084905586548790806114c0576114c0611dd3565b6001900381819060005260206000200160009055905586600101600087815260200190815260200160002060009055600194505050505061039d565b600091505061039d565b600054610100900460ff168061151f575060005460ff16155b61153b5760405162461bcd60e51b815260040161053590611c5d565b600054610100900460ff16158015611132576000805461ffff19166101011790558015611144576000805461ff001916905550565b6110a282826112dd565b815460009082106115d85760405162461bcd60e51b815260206004820152602260248201527f456e756d657261626c655365743a20696e646578206f7574206f6620626f756e604482015261647360f01b6064820152608401610535565b8260000182815481106115ed576115ed611de9565b9060005260206000200154905092915050565b6060600061160f836002611ced565b61161a906002611cd5565b67ffffffffffffffff81111561163257611632611dff565b6040519080825280601f01601f19166020018201604052801561165c576020820181803683370190505b509050600360fc1b8160008151811061167757611677611de9565b60200101906001600160f81b031916908160001a905350600f60fb1b816001815181106116a6576116a6611de9565b60200101906001600160f81b031916908160001a90535060006116ca846002611ced565b6116d5906001611cd5565b90505b600181111561174d576f181899199a1a9b1b9c1cb0b131b232b360811b85600f166010811061170957611709611de9565b1a60f81b82828151811061171f5761171f611de9565b60200101906001600160f81b031916908160001a90535060049490941c9361174681611d53565b90506116d8565b508315610b8a5760405162461bcd60e51b815260206004820181905260248201527f537472696e67733a20686578206c656e67746820696e73756666696369656e746044820152606401610535565b60008083601f8401126117ae57600080fd5b50813567ffffffffffffffff8111156117c657600080fd5b6020830191508360208285010111156117de57600080fd5b9250929050565b8035600d81106117f457600080fd5b919050565b60006020828403121561180b57600080fd5b8135610b8a81611e15565b60006020828403121561182857600080fd5b8151610b8a81611e2a565b60006020828403121561184557600080fd5b5035919050565b6000806040838503121561185f57600080fd5b82359150602083013561187181611e15565b809150509250929050565b6000806000806060858703121561189257600080fd5b8435935060208501356118a481611e15565b9250604085013567ffffffffffffffff8111156118c057600080fd5b6118cc8782880161179c565b95989497509550505050565b600080604083850312156118eb57600080fd5b50508035926020909101359150565b60006020828403121561190c57600080fd5b81356001600160e01b031981168114610b8a57600080fd5b6000806040838503121561193757600080fd5b823561194281611e15565b9150602083013561187181611e15565b60006020828403121561196457600080fd5b610b8a826117e5565b6000806020838503121561198057600080fd5b823567ffffffffffffffff81111561199757600080fd5b6119a38582860161179c565b90969095509350505050565b600080600080604085870312156119c557600080fd5b843567ffffffffffffffff808211156119dd57600080fd5b6119e98883890161179c565b90965094506020870135915080821115611a0257600080fd5b818701915087601f830112611a1657600080fd5b813581811115611a2557600080fd5b8860208260051b8501011115611a3a57600080fd5b95989497505060200194505050565b60008183036040811215611a5c57600080fd5b6040516040810167ffffffffffffffff8282108183111715611a8e57634e487b7160e01b600052604160045260246000fd5b816040526020841215611aa057600080fd5b6060830193508184108185111715611ac857634e487b7160e01b600052604160045260246000fd5b5082604052611ad6856117e5565b8152815260208401359150611aea82611e2a565b60208101919091529392505050565b81835281816020850137506000828201602090810191909152601f909101601f19169091010190565b60008251611b34818460208701611d23565b9190910192915050565b7f416363657373436f6e74726f6c3a206163636f756e7420000000000000000000815260008351611b76816017850160208801611d23565b7001034b99036b4b9b9b4b733903937b6329607d1b6017918401918201528351611ba7816028840160208801611d23565b01602801949350505050565b6020815260006104f9602083018486611af9565b604081526000611bdb604083018587611af9565b905060018060a01b0383166020830152949350505050565b6020815260008251806020840152611c12816040850160208701611d23565b601f01601f19169190910160400192915050565b6020808252601a908201527f5245474953545241525f524f4c45206973207265717569726564000000000000604082015260600190565b6020808252602e908201527f496e697469616c697a61626c653a20636f6e747261637420697320616c72656160408201526d191e481a5b9a5d1a585b1a5e995960921b606082015260800190565b60008085851115611cbb57600080fd5b83861115611cc857600080fd5b5050820193919092039150565b60008219821115611ce857611ce8611da7565b500190565b6000816000190483118215151615611d0757611d07611da7565b500290565b600082821015611d1e57611d1e611da7565b500390565b60005b83811015611d3e578181015183820152602001611d26565b83811115611d4d576000848401525b50505050565b600081611d6257611d62611da7565b506000190190565b6000600019821415611d7e57611d7e611da7565b5060010190565b600082611da257634e487b7160e01b600052601260045260246000fd5b500690565b634e487b7160e01b600052601160045260246000fd5b634e487b7160e01b600052602160045260246000fd5b634e487b7160e01b600052603160045260246000fd5b634e487b7160e01b600052603260045260246000fd5b634e487b7160e01b600052604160045260246000fd5b6001600160a01b038116811461114457600080fd5b801515811461114457600080fdfeedcc084d3dcd65a1f7f23c65c46722faca6953d28e43150a467cf43e5c309238a2646970667358221220710b235c1a53c9b266cebd57a9d942842e187a294c256bcff6644d28680993f664736f6c63430008060033",
  "linkReferences": {},
  "deployedLinkReferences": {}
}